
ventillator.elf:     file format elf32-littlearm

Sections:
Idx Name          Size      VMA       LMA       File off  Algn
  0 .isr_vector   0000010c  08000000  08000000  00010000  2**0
                  CONTENTS, ALLOC, LOAD, READONLY, DATA
  1 .text         0000c27c  08000110  08000110  00010110  2**3
                  CONTENTS, ALLOC, LOAD, READONLY, CODE
  2 .rodata       00000408  0800c390  0800c390  0001c390  2**3
                  CONTENTS, ALLOC, LOAD, READONLY, DATA
  3 .ARM.extab    00000000  0800c798  0800c798  0002036c  2**0
                  CONTENTS
  4 .ARM          00000000  0800c798  0800c798  0002036c  2**0
                  CONTENTS
  5 .preinit_array 00000000  0800c798  0800c798  0002036c  2**0
                  CONTENTS, ALLOC, LOAD, DATA
  6 .init_array   00000004  0800c798  0800c798  0001c798  2**2
                  CONTENTS, ALLOC, LOAD, DATA
  7 .fini_array   00000004  0800c79c  0800c79c  0001c79c  2**2
                  CONTENTS, ALLOC, LOAD, DATA
  8 .data         0000036c  20000000  0800c7a0  00020000  2**2
                  CONTENTS, ALLOC, LOAD, DATA
  9 .bss          00001338  2000036c  0800cb0c  0002036c  2**2
                  ALLOC
 10 ._user_heap_stack 00000604  200016a4  0800cb0c  000216a4  2**0
                  ALLOC
 11 .ARM.attributes 00000029  00000000  00000000  0002036c  2**0
                  CONTENTS, READONLY
 12 .debug_info   0001c9e5  00000000  00000000  00020395  2**0
                  CONTENTS, READONLY, DEBUGGING
 13 .debug_abbrev 0000420e  00000000  00000000  0003cd7a  2**0
                  CONTENTS, READONLY, DEBUGGING
 14 .debug_aranges 00001568  00000000  00000000  00040f88  2**3
                  CONTENTS, READONLY, DEBUGGING
 15 .debug_ranges 00001360  00000000  00000000  000424f0  2**3
                  CONTENTS, READONLY, DEBUGGING
 16 .debug_macro  00018ef6  00000000  00000000  00043850  2**0
                  CONTENTS, READONLY, DEBUGGING
 17 .debug_line   000144f4  00000000  00000000  0005c746  2**0
                  CONTENTS, READONLY, DEBUGGING
 18 .debug_str    00079bed  00000000  00000000  00070c3a  2**0
                  CONTENTS, READONLY, DEBUGGING
 19 .comment      0000007b  00000000  00000000  000ea827  2**0
                  CONTENTS, READONLY
 20 .debug_frame  00006540  00000000  00000000  000ea8a4  2**2
                  CONTENTS, READONLY, DEBUGGING

Disassembly of section .text:

08000110 <__do_global_dtors_aux>:
 8000110:	b510      	push	{r4, lr}
 8000112:	4c05      	ldr	r4, [pc, #20]	; (8000128 <__do_global_dtors_aux+0x18>)
 8000114:	7823      	ldrb	r3, [r4, #0]
 8000116:	b933      	cbnz	r3, 8000126 <__do_global_dtors_aux+0x16>
 8000118:	4b04      	ldr	r3, [pc, #16]	; (800012c <__do_global_dtors_aux+0x1c>)
 800011a:	b113      	cbz	r3, 8000122 <__do_global_dtors_aux+0x12>
 800011c:	4804      	ldr	r0, [pc, #16]	; (8000130 <__do_global_dtors_aux+0x20>)
 800011e:	f3af 8000 	nop.w
 8000122:	2301      	movs	r3, #1
 8000124:	7023      	strb	r3, [r4, #0]
 8000126:	bd10      	pop	{r4, pc}
 8000128:	2000036c 	.word	0x2000036c
 800012c:	00000000 	.word	0x00000000
 8000130:	0800c374 	.word	0x0800c374

08000134 <frame_dummy>:
 8000134:	b508      	push	{r3, lr}
 8000136:	4b03      	ldr	r3, [pc, #12]	; (8000144 <frame_dummy+0x10>)
 8000138:	b11b      	cbz	r3, 8000142 <frame_dummy+0xe>
 800013a:	4903      	ldr	r1, [pc, #12]	; (8000148 <frame_dummy+0x14>)
 800013c:	4803      	ldr	r0, [pc, #12]	; (800014c <frame_dummy+0x18>)
 800013e:	f3af 8000 	nop.w
 8000142:	bd08      	pop	{r3, pc}
 8000144:	00000000 	.word	0x00000000
 8000148:	20000370 	.word	0x20000370
 800014c:	0800c374 	.word	0x0800c374

08000150 <strcmp>:
 8000150:	f810 2b01 	ldrb.w	r2, [r0], #1
 8000154:	f811 3b01 	ldrb.w	r3, [r1], #1
 8000158:	2a01      	cmp	r2, #1
 800015a:	bf28      	it	cs
 800015c:	429a      	cmpcs	r2, r3
 800015e:	d0f7      	beq.n	8000150 <strcmp>
 8000160:	1ad0      	subs	r0, r2, r3
 8000162:	4770      	bx	lr

08000164 <strlen>:
 8000164:	4603      	mov	r3, r0
 8000166:	f813 2b01 	ldrb.w	r2, [r3], #1
 800016a:	2a00      	cmp	r2, #0
 800016c:	d1fb      	bne.n	8000166 <strlen+0x2>
 800016e:	1a18      	subs	r0, r3, r0
 8000170:	3801      	subs	r0, #1
 8000172:	4770      	bx	lr

08000174 <__aeabi_drsub>:
 8000174:	f081 4100 	eor.w	r1, r1, #2147483648	; 0x80000000
 8000178:	e002      	b.n	8000180 <__adddf3>
 800017a:	bf00      	nop

0800017c <__aeabi_dsub>:
 800017c:	f083 4300 	eor.w	r3, r3, #2147483648	; 0x80000000

08000180 <__adddf3>:
 8000180:	b530      	push	{r4, r5, lr}
 8000182:	ea4f 0441 	mov.w	r4, r1, lsl #1
 8000186:	ea4f 0543 	mov.w	r5, r3, lsl #1
 800018a:	ea94 0f05 	teq	r4, r5
 800018e:	bf08      	it	eq
 8000190:	ea90 0f02 	teqeq	r0, r2
 8000194:	bf1f      	itttt	ne
 8000196:	ea54 0c00 	orrsne.w	ip, r4, r0
 800019a:	ea55 0c02 	orrsne.w	ip, r5, r2
 800019e:	ea7f 5c64 	mvnsne.w	ip, r4, asr #21
 80001a2:	ea7f 5c65 	mvnsne.w	ip, r5, asr #21
 80001a6:	f000 80e2 	beq.w	800036e <__adddf3+0x1ee>
 80001aa:	ea4f 5454 	mov.w	r4, r4, lsr #21
 80001ae:	ebd4 5555 	rsbs	r5, r4, r5, lsr #21
 80001b2:	bfb8      	it	lt
 80001b4:	426d      	neglt	r5, r5
 80001b6:	dd0c      	ble.n	80001d2 <__adddf3+0x52>
 80001b8:	442c      	add	r4, r5
 80001ba:	ea80 0202 	eor.w	r2, r0, r2
 80001be:	ea81 0303 	eor.w	r3, r1, r3
 80001c2:	ea82 0000 	eor.w	r0, r2, r0
 80001c6:	ea83 0101 	eor.w	r1, r3, r1
 80001ca:	ea80 0202 	eor.w	r2, r0, r2
 80001ce:	ea81 0303 	eor.w	r3, r1, r3
 80001d2:	2d36      	cmp	r5, #54	; 0x36
 80001d4:	bf88      	it	hi
 80001d6:	bd30      	pophi	{r4, r5, pc}
 80001d8:	f011 4f00 	tst.w	r1, #2147483648	; 0x80000000
 80001dc:	ea4f 3101 	mov.w	r1, r1, lsl #12
 80001e0:	f44f 1c80 	mov.w	ip, #1048576	; 0x100000
 80001e4:	ea4c 3111 	orr.w	r1, ip, r1, lsr #12
 80001e8:	d002      	beq.n	80001f0 <__adddf3+0x70>
 80001ea:	4240      	negs	r0, r0
 80001ec:	eb61 0141 	sbc.w	r1, r1, r1, lsl #1
 80001f0:	f013 4f00 	tst.w	r3, #2147483648	; 0x80000000
 80001f4:	ea4f 3303 	mov.w	r3, r3, lsl #12
 80001f8:	ea4c 3313 	orr.w	r3, ip, r3, lsr #12
 80001fc:	d002      	beq.n	8000204 <__adddf3+0x84>
 80001fe:	4252      	negs	r2, r2
 8000200:	eb63 0343 	sbc.w	r3, r3, r3, lsl #1
 8000204:	ea94 0f05 	teq	r4, r5
 8000208:	f000 80a7 	beq.w	800035a <__adddf3+0x1da>
 800020c:	f1a4 0401 	sub.w	r4, r4, #1
 8000210:	f1d5 0e20 	rsbs	lr, r5, #32
 8000214:	db0d      	blt.n	8000232 <__adddf3+0xb2>
 8000216:	fa02 fc0e 	lsl.w	ip, r2, lr
 800021a:	fa22 f205 	lsr.w	r2, r2, r5
 800021e:	1880      	adds	r0, r0, r2
 8000220:	f141 0100 	adc.w	r1, r1, #0
 8000224:	fa03 f20e 	lsl.w	r2, r3, lr
 8000228:	1880      	adds	r0, r0, r2
 800022a:	fa43 f305 	asr.w	r3, r3, r5
 800022e:	4159      	adcs	r1, r3
 8000230:	e00e      	b.n	8000250 <__adddf3+0xd0>
 8000232:	f1a5 0520 	sub.w	r5, r5, #32
 8000236:	f10e 0e20 	add.w	lr, lr, #32
 800023a:	2a01      	cmp	r2, #1
 800023c:	fa03 fc0e 	lsl.w	ip, r3, lr
 8000240:	bf28      	it	cs
 8000242:	f04c 0c02 	orrcs.w	ip, ip, #2
 8000246:	fa43 f305 	asr.w	r3, r3, r5
 800024a:	18c0      	adds	r0, r0, r3
 800024c:	eb51 71e3 	adcs.w	r1, r1, r3, asr #31
 8000250:	f001 4500 	and.w	r5, r1, #2147483648	; 0x80000000
 8000254:	d507      	bpl.n	8000266 <__adddf3+0xe6>
 8000256:	f04f 0e00 	mov.w	lr, #0
 800025a:	f1dc 0c00 	rsbs	ip, ip, #0
 800025e:	eb7e 0000 	sbcs.w	r0, lr, r0
 8000262:	eb6e 0101 	sbc.w	r1, lr, r1
 8000266:	f5b1 1f80 	cmp.w	r1, #1048576	; 0x100000
 800026a:	d31b      	bcc.n	80002a4 <__adddf3+0x124>
 800026c:	f5b1 1f00 	cmp.w	r1, #2097152	; 0x200000
 8000270:	d30c      	bcc.n	800028c <__adddf3+0x10c>
 8000272:	0849      	lsrs	r1, r1, #1
 8000274:	ea5f 0030 	movs.w	r0, r0, rrx
 8000278:	ea4f 0c3c 	mov.w	ip, ip, rrx
 800027c:	f104 0401 	add.w	r4, r4, #1
 8000280:	ea4f 5244 	mov.w	r2, r4, lsl #21
 8000284:	f512 0f80 	cmn.w	r2, #4194304	; 0x400000
 8000288:	f080 809a 	bcs.w	80003c0 <__adddf3+0x240>
 800028c:	f1bc 4f00 	cmp.w	ip, #2147483648	; 0x80000000
 8000290:	bf08      	it	eq
 8000292:	ea5f 0c50 	movseq.w	ip, r0, lsr #1
 8000296:	f150 0000 	adcs.w	r0, r0, #0
 800029a:	eb41 5104 	adc.w	r1, r1, r4, lsl #20
 800029e:	ea41 0105 	orr.w	r1, r1, r5
 80002a2:	bd30      	pop	{r4, r5, pc}
 80002a4:	ea5f 0c4c 	movs.w	ip, ip, lsl #1
 80002a8:	4140      	adcs	r0, r0
 80002aa:	eb41 0101 	adc.w	r1, r1, r1
 80002ae:	f411 1f80 	tst.w	r1, #1048576	; 0x100000
 80002b2:	f1a4 0401 	sub.w	r4, r4, #1
 80002b6:	d1e9      	bne.n	800028c <__adddf3+0x10c>
 80002b8:	f091 0f00 	teq	r1, #0
 80002bc:	bf04      	itt	eq
 80002be:	4601      	moveq	r1, r0
 80002c0:	2000      	moveq	r0, #0
 80002c2:	fab1 f381 	clz	r3, r1
 80002c6:	bf08      	it	eq
 80002c8:	3320      	addeq	r3, #32
 80002ca:	f1a3 030b 	sub.w	r3, r3, #11
 80002ce:	f1b3 0220 	subs.w	r2, r3, #32
 80002d2:	da0c      	bge.n	80002ee <__adddf3+0x16e>
 80002d4:	320c      	adds	r2, #12
 80002d6:	dd08      	ble.n	80002ea <__adddf3+0x16a>
 80002d8:	f102 0c14 	add.w	ip, r2, #20
 80002dc:	f1c2 020c 	rsb	r2, r2, #12
 80002e0:	fa01 f00c 	lsl.w	r0, r1, ip
 80002e4:	fa21 f102 	lsr.w	r1, r1, r2
 80002e8:	e00c      	b.n	8000304 <__adddf3+0x184>
 80002ea:	f102 0214 	add.w	r2, r2, #20
 80002ee:	bfd8      	it	le
 80002f0:	f1c2 0c20 	rsble	ip, r2, #32
 80002f4:	fa01 f102 	lsl.w	r1, r1, r2
 80002f8:	fa20 fc0c 	lsr.w	ip, r0, ip
 80002fc:	bfdc      	itt	le
 80002fe:	ea41 010c 	orrle.w	r1, r1, ip
 8000302:	4090      	lslle	r0, r2
 8000304:	1ae4      	subs	r4, r4, r3
 8000306:	bfa2      	ittt	ge
 8000308:	eb01 5104 	addge.w	r1, r1, r4, lsl #20
 800030c:	4329      	orrge	r1, r5
 800030e:	bd30      	popge	{r4, r5, pc}
 8000310:	ea6f 0404 	mvn.w	r4, r4
 8000314:	3c1f      	subs	r4, #31
 8000316:	da1c      	bge.n	8000352 <__adddf3+0x1d2>
 8000318:	340c      	adds	r4, #12
 800031a:	dc0e      	bgt.n	800033a <__adddf3+0x1ba>
 800031c:	f104 0414 	add.w	r4, r4, #20
 8000320:	f1c4 0220 	rsb	r2, r4, #32
 8000324:	fa20 f004 	lsr.w	r0, r0, r4
 8000328:	fa01 f302 	lsl.w	r3, r1, r2
 800032c:	ea40 0003 	orr.w	r0, r0, r3
 8000330:	fa21 f304 	lsr.w	r3, r1, r4
 8000334:	ea45 0103 	orr.w	r1, r5, r3
 8000338:	bd30      	pop	{r4, r5, pc}
 800033a:	f1c4 040c 	rsb	r4, r4, #12
 800033e:	f1c4 0220 	rsb	r2, r4, #32
 8000342:	fa20 f002 	lsr.w	r0, r0, r2
 8000346:	fa01 f304 	lsl.w	r3, r1, r4
 800034a:	ea40 0003 	orr.w	r0, r0, r3
 800034e:	4629      	mov	r1, r5
 8000350:	bd30      	pop	{r4, r5, pc}
 8000352:	fa21 f004 	lsr.w	r0, r1, r4
 8000356:	4629      	mov	r1, r5
 8000358:	bd30      	pop	{r4, r5, pc}
 800035a:	f094 0f00 	teq	r4, #0
 800035e:	f483 1380 	eor.w	r3, r3, #1048576	; 0x100000
 8000362:	bf06      	itte	eq
 8000364:	f481 1180 	eoreq.w	r1, r1, #1048576	; 0x100000
 8000368:	3401      	addeq	r4, #1
 800036a:	3d01      	subne	r5, #1
 800036c:	e74e      	b.n	800020c <__adddf3+0x8c>
 800036e:	ea7f 5c64 	mvns.w	ip, r4, asr #21
 8000372:	bf18      	it	ne
 8000374:	ea7f 5c65 	mvnsne.w	ip, r5, asr #21
 8000378:	d029      	beq.n	80003ce <__adddf3+0x24e>
 800037a:	ea94 0f05 	teq	r4, r5
 800037e:	bf08      	it	eq
 8000380:	ea90 0f02 	teqeq	r0, r2
 8000384:	d005      	beq.n	8000392 <__adddf3+0x212>
 8000386:	ea54 0c00 	orrs.w	ip, r4, r0
 800038a:	bf04      	itt	eq
 800038c:	4619      	moveq	r1, r3
 800038e:	4610      	moveq	r0, r2
 8000390:	bd30      	pop	{r4, r5, pc}
 8000392:	ea91 0f03 	teq	r1, r3
 8000396:	bf1e      	ittt	ne
 8000398:	2100      	movne	r1, #0
 800039a:	2000      	movne	r0, #0
 800039c:	bd30      	popne	{r4, r5, pc}
 800039e:	ea5f 5c54 	movs.w	ip, r4, lsr #21
 80003a2:	d105      	bne.n	80003b0 <__adddf3+0x230>
 80003a4:	0040      	lsls	r0, r0, #1
 80003a6:	4149      	adcs	r1, r1
 80003a8:	bf28      	it	cs
 80003aa:	f041 4100 	orrcs.w	r1, r1, #2147483648	; 0x80000000
 80003ae:	bd30      	pop	{r4, r5, pc}
 80003b0:	f514 0480 	adds.w	r4, r4, #4194304	; 0x400000
 80003b4:	bf3c      	itt	cc
 80003b6:	f501 1180 	addcc.w	r1, r1, #1048576	; 0x100000
 80003ba:	bd30      	popcc	{r4, r5, pc}
 80003bc:	f001 4500 	and.w	r5, r1, #2147483648	; 0x80000000
 80003c0:	f045 41fe 	orr.w	r1, r5, #2130706432	; 0x7f000000
 80003c4:	f441 0170 	orr.w	r1, r1, #15728640	; 0xf00000
 80003c8:	f04f 0000 	mov.w	r0, #0
 80003cc:	bd30      	pop	{r4, r5, pc}
 80003ce:	ea7f 5c64 	mvns.w	ip, r4, asr #21
 80003d2:	bf1a      	itte	ne
 80003d4:	4619      	movne	r1, r3
 80003d6:	4610      	movne	r0, r2
 80003d8:	ea7f 5c65 	mvnseq.w	ip, r5, asr #21
 80003dc:	bf1c      	itt	ne
 80003de:	460b      	movne	r3, r1
 80003e0:	4602      	movne	r2, r0
 80003e2:	ea50 3401 	orrs.w	r4, r0, r1, lsl #12
 80003e6:	bf06      	itte	eq
 80003e8:	ea52 3503 	orrseq.w	r5, r2, r3, lsl #12
 80003ec:	ea91 0f03 	teqeq	r1, r3
 80003f0:	f441 2100 	orrne.w	r1, r1, #524288	; 0x80000
 80003f4:	bd30      	pop	{r4, r5, pc}
 80003f6:	bf00      	nop

080003f8 <__aeabi_ui2d>:
 80003f8:	f090 0f00 	teq	r0, #0
 80003fc:	bf04      	itt	eq
 80003fe:	2100      	moveq	r1, #0
 8000400:	4770      	bxeq	lr
 8000402:	b530      	push	{r4, r5, lr}
 8000404:	f44f 6480 	mov.w	r4, #1024	; 0x400
 8000408:	f104 0432 	add.w	r4, r4, #50	; 0x32
 800040c:	f04f 0500 	mov.w	r5, #0
 8000410:	f04f 0100 	mov.w	r1, #0
 8000414:	e750      	b.n	80002b8 <__adddf3+0x138>
 8000416:	bf00      	nop

08000418 <__aeabi_i2d>:
 8000418:	f090 0f00 	teq	r0, #0
 800041c:	bf04      	itt	eq
 800041e:	2100      	moveq	r1, #0
 8000420:	4770      	bxeq	lr
 8000422:	b530      	push	{r4, r5, lr}
 8000424:	f44f 6480 	mov.w	r4, #1024	; 0x400
 8000428:	f104 0432 	add.w	r4, r4, #50	; 0x32
 800042c:	f010 4500 	ands.w	r5, r0, #2147483648	; 0x80000000
 8000430:	bf48      	it	mi
 8000432:	4240      	negmi	r0, r0
 8000434:	f04f 0100 	mov.w	r1, #0
 8000438:	e73e      	b.n	80002b8 <__adddf3+0x138>
 800043a:	bf00      	nop

0800043c <__aeabi_f2d>:
 800043c:	0042      	lsls	r2, r0, #1
 800043e:	ea4f 01e2 	mov.w	r1, r2, asr #3
 8000442:	ea4f 0131 	mov.w	r1, r1, rrx
 8000446:	ea4f 7002 	mov.w	r0, r2, lsl #28
 800044a:	bf1f      	itttt	ne
 800044c:	f012 437f 	andsne.w	r3, r2, #4278190080	; 0xff000000
 8000450:	f093 4f7f 	teqne	r3, #4278190080	; 0xff000000
 8000454:	f081 5160 	eorne.w	r1, r1, #939524096	; 0x38000000
 8000458:	4770      	bxne	lr
 800045a:	f032 427f 	bics.w	r2, r2, #4278190080	; 0xff000000
 800045e:	bf08      	it	eq
 8000460:	4770      	bxeq	lr
 8000462:	f093 4f7f 	teq	r3, #4278190080	; 0xff000000
 8000466:	bf04      	itt	eq
 8000468:	f441 2100 	orreq.w	r1, r1, #524288	; 0x80000
 800046c:	4770      	bxeq	lr
 800046e:	b530      	push	{r4, r5, lr}
 8000470:	f44f 7460 	mov.w	r4, #896	; 0x380
 8000474:	f001 4500 	and.w	r5, r1, #2147483648	; 0x80000000
 8000478:	f021 4100 	bic.w	r1, r1, #2147483648	; 0x80000000
 800047c:	e71c      	b.n	80002b8 <__adddf3+0x138>
 800047e:	bf00      	nop

08000480 <__aeabi_ul2d>:
 8000480:	ea50 0201 	orrs.w	r2, r0, r1
 8000484:	bf08      	it	eq
 8000486:	4770      	bxeq	lr
 8000488:	b530      	push	{r4, r5, lr}
 800048a:	f04f 0500 	mov.w	r5, #0
 800048e:	e00a      	b.n	80004a6 <__aeabi_l2d+0x16>

08000490 <__aeabi_l2d>:
 8000490:	ea50 0201 	orrs.w	r2, r0, r1
 8000494:	bf08      	it	eq
 8000496:	4770      	bxeq	lr
 8000498:	b530      	push	{r4, r5, lr}
 800049a:	f011 4500 	ands.w	r5, r1, #2147483648	; 0x80000000
 800049e:	d502      	bpl.n	80004a6 <__aeabi_l2d+0x16>
 80004a0:	4240      	negs	r0, r0
 80004a2:	eb61 0141 	sbc.w	r1, r1, r1, lsl #1
 80004a6:	f44f 6480 	mov.w	r4, #1024	; 0x400
 80004aa:	f104 0432 	add.w	r4, r4, #50	; 0x32
 80004ae:	ea5f 5c91 	movs.w	ip, r1, lsr #22
 80004b2:	f43f aed8 	beq.w	8000266 <__adddf3+0xe6>
 80004b6:	f04f 0203 	mov.w	r2, #3
 80004ba:	ea5f 0cdc 	movs.w	ip, ip, lsr #3
 80004be:	bf18      	it	ne
 80004c0:	3203      	addne	r2, #3
 80004c2:	ea5f 0cdc 	movs.w	ip, ip, lsr #3
 80004c6:	bf18      	it	ne
 80004c8:	3203      	addne	r2, #3
 80004ca:	eb02 02dc 	add.w	r2, r2, ip, lsr #3
 80004ce:	f1c2 0320 	rsb	r3, r2, #32
 80004d2:	fa00 fc03 	lsl.w	ip, r0, r3
 80004d6:	fa20 f002 	lsr.w	r0, r0, r2
 80004da:	fa01 fe03 	lsl.w	lr, r1, r3
 80004de:	ea40 000e 	orr.w	r0, r0, lr
 80004e2:	fa21 f102 	lsr.w	r1, r1, r2
 80004e6:	4414      	add	r4, r2
 80004e8:	e6bd      	b.n	8000266 <__adddf3+0xe6>
 80004ea:	bf00      	nop

080004ec <__aeabi_dmul>:
 80004ec:	b570      	push	{r4, r5, r6, lr}
 80004ee:	f04f 0cff 	mov.w	ip, #255	; 0xff
 80004f2:	f44c 6ce0 	orr.w	ip, ip, #1792	; 0x700
 80004f6:	ea1c 5411 	ands.w	r4, ip, r1, lsr #20
 80004fa:	bf1d      	ittte	ne
 80004fc:	ea1c 5513 	andsne.w	r5, ip, r3, lsr #20
 8000500:	ea94 0f0c 	teqne	r4, ip
 8000504:	ea95 0f0c 	teqne	r5, ip
 8000508:	f000 f8de 	bleq	80006c8 <__aeabi_dmul+0x1dc>
 800050c:	442c      	add	r4, r5
 800050e:	ea81 0603 	eor.w	r6, r1, r3
 8000512:	ea21 514c 	bic.w	r1, r1, ip, lsl #21
 8000516:	ea23 534c 	bic.w	r3, r3, ip, lsl #21
 800051a:	ea50 3501 	orrs.w	r5, r0, r1, lsl #12
 800051e:	bf18      	it	ne
 8000520:	ea52 3503 	orrsne.w	r5, r2, r3, lsl #12
 8000524:	f441 1180 	orr.w	r1, r1, #1048576	; 0x100000
 8000528:	f443 1380 	orr.w	r3, r3, #1048576	; 0x100000
 800052c:	d038      	beq.n	80005a0 <__aeabi_dmul+0xb4>
 800052e:	fba0 ce02 	umull	ip, lr, r0, r2
 8000532:	f04f 0500 	mov.w	r5, #0
 8000536:	fbe1 e502 	umlal	lr, r5, r1, r2
 800053a:	f006 4200 	and.w	r2, r6, #2147483648	; 0x80000000
 800053e:	fbe0 e503 	umlal	lr, r5, r0, r3
 8000542:	f04f 0600 	mov.w	r6, #0
 8000546:	fbe1 5603 	umlal	r5, r6, r1, r3
 800054a:	f09c 0f00 	teq	ip, #0
 800054e:	bf18      	it	ne
 8000550:	f04e 0e01 	orrne.w	lr, lr, #1
 8000554:	f1a4 04ff 	sub.w	r4, r4, #255	; 0xff
 8000558:	f5b6 7f00 	cmp.w	r6, #512	; 0x200
 800055c:	f564 7440 	sbc.w	r4, r4, #768	; 0x300
 8000560:	d204      	bcs.n	800056c <__aeabi_dmul+0x80>
 8000562:	ea5f 0e4e 	movs.w	lr, lr, lsl #1
 8000566:	416d      	adcs	r5, r5
 8000568:	eb46 0606 	adc.w	r6, r6, r6
 800056c:	ea42 21c6 	orr.w	r1, r2, r6, lsl #11
 8000570:	ea41 5155 	orr.w	r1, r1, r5, lsr #21
 8000574:	ea4f 20c5 	mov.w	r0, r5, lsl #11
 8000578:	ea40 505e 	orr.w	r0, r0, lr, lsr #21
 800057c:	ea4f 2ece 	mov.w	lr, lr, lsl #11
 8000580:	f1b4 0cfd 	subs.w	ip, r4, #253	; 0xfd
 8000584:	bf88      	it	hi
 8000586:	f5bc 6fe0 	cmphi.w	ip, #1792	; 0x700
 800058a:	d81e      	bhi.n	80005ca <__aeabi_dmul+0xde>
 800058c:	f1be 4f00 	cmp.w	lr, #2147483648	; 0x80000000
 8000590:	bf08      	it	eq
 8000592:	ea5f 0e50 	movseq.w	lr, r0, lsr #1
 8000596:	f150 0000 	adcs.w	r0, r0, #0
 800059a:	eb41 5104 	adc.w	r1, r1, r4, lsl #20
 800059e:	bd70      	pop	{r4, r5, r6, pc}
 80005a0:	f006 4600 	and.w	r6, r6, #2147483648	; 0x80000000
 80005a4:	ea46 0101 	orr.w	r1, r6, r1
 80005a8:	ea40 0002 	orr.w	r0, r0, r2
 80005ac:	ea81 0103 	eor.w	r1, r1, r3
 80005b0:	ebb4 045c 	subs.w	r4, r4, ip, lsr #1
 80005b4:	bfc2      	ittt	gt
 80005b6:	ebd4 050c 	rsbsgt	r5, r4, ip
 80005ba:	ea41 5104 	orrgt.w	r1, r1, r4, lsl #20
 80005be:	bd70      	popgt	{r4, r5, r6, pc}
 80005c0:	f441 1180 	orr.w	r1, r1, #1048576	; 0x100000
 80005c4:	f04f 0e00 	mov.w	lr, #0
 80005c8:	3c01      	subs	r4, #1
 80005ca:	f300 80ab 	bgt.w	8000724 <__aeabi_dmul+0x238>
 80005ce:	f114 0f36 	cmn.w	r4, #54	; 0x36
 80005d2:	bfde      	ittt	le
 80005d4:	2000      	movle	r0, #0
 80005d6:	f001 4100 	andle.w	r1, r1, #2147483648	; 0x80000000
 80005da:	bd70      	pople	{r4, r5, r6, pc}
 80005dc:	f1c4 0400 	rsb	r4, r4, #0
 80005e0:	3c20      	subs	r4, #32
 80005e2:	da35      	bge.n	8000650 <__aeabi_dmul+0x164>
 80005e4:	340c      	adds	r4, #12
 80005e6:	dc1b      	bgt.n	8000620 <__aeabi_dmul+0x134>
 80005e8:	f104 0414 	add.w	r4, r4, #20
 80005ec:	f1c4 0520 	rsb	r5, r4, #32
 80005f0:	fa00 f305 	lsl.w	r3, r0, r5
 80005f4:	fa20 f004 	lsr.w	r0, r0, r4
 80005f8:	fa01 f205 	lsl.w	r2, r1, r5
 80005fc:	ea40 0002 	orr.w	r0, r0, r2
 8000600:	f001 4200 	and.w	r2, r1, #2147483648	; 0x80000000
 8000604:	f021 4100 	bic.w	r1, r1, #2147483648	; 0x80000000
 8000608:	eb10 70d3 	adds.w	r0, r0, r3, lsr #31
 800060c:	fa21 f604 	lsr.w	r6, r1, r4
 8000610:	eb42 0106 	adc.w	r1, r2, r6
 8000614:	ea5e 0e43 	orrs.w	lr, lr, r3, lsl #1
 8000618:	bf08      	it	eq
 800061a:	ea20 70d3 	biceq.w	r0, r0, r3, lsr #31
 800061e:	bd70      	pop	{r4, r5, r6, pc}
 8000620:	f1c4 040c 	rsb	r4, r4, #12
 8000624:	f1c4 0520 	rsb	r5, r4, #32
 8000628:	fa00 f304 	lsl.w	r3, r0, r4
 800062c:	fa20 f005 	lsr.w	r0, r0, r5
 8000630:	fa01 f204 	lsl.w	r2, r1, r4
 8000634:	ea40 0002 	orr.w	r0, r0, r2
 8000638:	f001 4100 	and.w	r1, r1, #2147483648	; 0x80000000
 800063c:	eb10 70d3 	adds.w	r0, r0, r3, lsr #31
 8000640:	f141 0100 	adc.w	r1, r1, #0
 8000644:	ea5e 0e43 	orrs.w	lr, lr, r3, lsl #1
 8000648:	bf08      	it	eq
 800064a:	ea20 70d3 	biceq.w	r0, r0, r3, lsr #31
 800064e:	bd70      	pop	{r4, r5, r6, pc}
 8000650:	f1c4 0520 	rsb	r5, r4, #32
 8000654:	fa00 f205 	lsl.w	r2, r0, r5
 8000658:	ea4e 0e02 	orr.w	lr, lr, r2
 800065c:	fa20 f304 	lsr.w	r3, r0, r4
 8000660:	fa01 f205 	lsl.w	r2, r1, r5
 8000664:	ea43 0302 	orr.w	r3, r3, r2
 8000668:	fa21 f004 	lsr.w	r0, r1, r4
 800066c:	f001 4100 	and.w	r1, r1, #2147483648	; 0x80000000
 8000670:	fa21 f204 	lsr.w	r2, r1, r4
 8000674:	ea20 0002 	bic.w	r0, r0, r2
 8000678:	eb00 70d3 	add.w	r0, r0, r3, lsr #31
 800067c:	ea5e 0e43 	orrs.w	lr, lr, r3, lsl #1
 8000680:	bf08      	it	eq
 8000682:	ea20 70d3 	biceq.w	r0, r0, r3, lsr #31
 8000686:	bd70      	pop	{r4, r5, r6, pc}
 8000688:	f094 0f00 	teq	r4, #0
 800068c:	d10f      	bne.n	80006ae <__aeabi_dmul+0x1c2>
 800068e:	f001 4600 	and.w	r6, r1, #2147483648	; 0x80000000
 8000692:	0040      	lsls	r0, r0, #1
 8000694:	eb41 0101 	adc.w	r1, r1, r1
 8000698:	f411 1f80 	tst.w	r1, #1048576	; 0x100000
 800069c:	bf08      	it	eq
 800069e:	3c01      	subeq	r4, #1
 80006a0:	d0f7      	beq.n	8000692 <__aeabi_dmul+0x1a6>
 80006a2:	ea41 0106 	orr.w	r1, r1, r6
 80006a6:	f095 0f00 	teq	r5, #0
 80006aa:	bf18      	it	ne
 80006ac:	4770      	bxne	lr
 80006ae:	f003 4600 	and.w	r6, r3, #2147483648	; 0x80000000
 80006b2:	0052      	lsls	r2, r2, #1
 80006b4:	eb43 0303 	adc.w	r3, r3, r3
 80006b8:	f413 1f80 	tst.w	r3, #1048576	; 0x100000
 80006bc:	bf08      	it	eq
 80006be:	3d01      	subeq	r5, #1
 80006c0:	d0f7      	beq.n	80006b2 <__aeabi_dmul+0x1c6>
 80006c2:	ea43 0306 	orr.w	r3, r3, r6
 80006c6:	4770      	bx	lr
 80006c8:	ea94 0f0c 	teq	r4, ip
 80006cc:	ea0c 5513 	and.w	r5, ip, r3, lsr #20
 80006d0:	bf18      	it	ne
 80006d2:	ea95 0f0c 	teqne	r5, ip
 80006d6:	d00c      	beq.n	80006f2 <__aeabi_dmul+0x206>
 80006d8:	ea50 0641 	orrs.w	r6, r0, r1, lsl #1
 80006dc:	bf18      	it	ne
 80006de:	ea52 0643 	orrsne.w	r6, r2, r3, lsl #1
 80006e2:	d1d1      	bne.n	8000688 <__aeabi_dmul+0x19c>
 80006e4:	ea81 0103 	eor.w	r1, r1, r3
 80006e8:	f001 4100 	and.w	r1, r1, #2147483648	; 0x80000000
 80006ec:	f04f 0000 	mov.w	r0, #0
 80006f0:	bd70      	pop	{r4, r5, r6, pc}
 80006f2:	ea50 0641 	orrs.w	r6, r0, r1, lsl #1
 80006f6:	bf06      	itte	eq
 80006f8:	4610      	moveq	r0, r2
 80006fa:	4619      	moveq	r1, r3
 80006fc:	ea52 0643 	orrsne.w	r6, r2, r3, lsl #1
 8000700:	d019      	beq.n	8000736 <__aeabi_dmul+0x24a>
 8000702:	ea94 0f0c 	teq	r4, ip
 8000706:	d102      	bne.n	800070e <__aeabi_dmul+0x222>
 8000708:	ea50 3601 	orrs.w	r6, r0, r1, lsl #12
 800070c:	d113      	bne.n	8000736 <__aeabi_dmul+0x24a>
 800070e:	ea95 0f0c 	teq	r5, ip
 8000712:	d105      	bne.n	8000720 <__aeabi_dmul+0x234>
 8000714:	ea52 3603 	orrs.w	r6, r2, r3, lsl #12
 8000718:	bf1c      	itt	ne
 800071a:	4610      	movne	r0, r2
 800071c:	4619      	movne	r1, r3
 800071e:	d10a      	bne.n	8000736 <__aeabi_dmul+0x24a>
 8000720:	ea81 0103 	eor.w	r1, r1, r3
 8000724:	f001 4100 	and.w	r1, r1, #2147483648	; 0x80000000
 8000728:	f041 41fe 	orr.w	r1, r1, #2130706432	; 0x7f000000
 800072c:	f441 0170 	orr.w	r1, r1, #15728640	; 0xf00000
 8000730:	f04f 0000 	mov.w	r0, #0
 8000734:	bd70      	pop	{r4, r5, r6, pc}
 8000736:	f041 41fe 	orr.w	r1, r1, #2130706432	; 0x7f000000
 800073a:	f441 0178 	orr.w	r1, r1, #16252928	; 0xf80000
 800073e:	bd70      	pop	{r4, r5, r6, pc}

08000740 <__aeabi_ddiv>:
 8000740:	b570      	push	{r4, r5, r6, lr}
 8000742:	f04f 0cff 	mov.w	ip, #255	; 0xff
 8000746:	f44c 6ce0 	orr.w	ip, ip, #1792	; 0x700
 800074a:	ea1c 5411 	ands.w	r4, ip, r1, lsr #20
 800074e:	bf1d      	ittte	ne
 8000750:	ea1c 5513 	andsne.w	r5, ip, r3, lsr #20
 8000754:	ea94 0f0c 	teqne	r4, ip
 8000758:	ea95 0f0c 	teqne	r5, ip
 800075c:	f000 f8a7 	bleq	80008ae <__aeabi_ddiv+0x16e>
 8000760:	eba4 0405 	sub.w	r4, r4, r5
 8000764:	ea81 0e03 	eor.w	lr, r1, r3
 8000768:	ea52 3503 	orrs.w	r5, r2, r3, lsl #12
 800076c:	ea4f 3101 	mov.w	r1, r1, lsl #12
 8000770:	f000 8088 	beq.w	8000884 <__aeabi_ddiv+0x144>
 8000774:	ea4f 3303 	mov.w	r3, r3, lsl #12
 8000778:	f04f 5580 	mov.w	r5, #268435456	; 0x10000000
 800077c:	ea45 1313 	orr.w	r3, r5, r3, lsr #4
 8000780:	ea43 6312 	orr.w	r3, r3, r2, lsr #24
 8000784:	ea4f 2202 	mov.w	r2, r2, lsl #8
 8000788:	ea45 1511 	orr.w	r5, r5, r1, lsr #4
 800078c:	ea45 6510 	orr.w	r5, r5, r0, lsr #24
 8000790:	ea4f 2600 	mov.w	r6, r0, lsl #8
 8000794:	f00e 4100 	and.w	r1, lr, #2147483648	; 0x80000000
 8000798:	429d      	cmp	r5, r3
 800079a:	bf08      	it	eq
 800079c:	4296      	cmpeq	r6, r2
 800079e:	f144 04fd 	adc.w	r4, r4, #253	; 0xfd
 80007a2:	f504 7440 	add.w	r4, r4, #768	; 0x300
 80007a6:	d202      	bcs.n	80007ae <__aeabi_ddiv+0x6e>
 80007a8:	085b      	lsrs	r3, r3, #1
 80007aa:	ea4f 0232 	mov.w	r2, r2, rrx
 80007ae:	1ab6      	subs	r6, r6, r2
 80007b0:	eb65 0503 	sbc.w	r5, r5, r3
 80007b4:	085b      	lsrs	r3, r3, #1
 80007b6:	ea4f 0232 	mov.w	r2, r2, rrx
 80007ba:	f44f 1080 	mov.w	r0, #1048576	; 0x100000
 80007be:	f44f 2c00 	mov.w	ip, #524288	; 0x80000
 80007c2:	ebb6 0e02 	subs.w	lr, r6, r2
 80007c6:	eb75 0e03 	sbcs.w	lr, r5, r3
 80007ca:	bf22      	ittt	cs
 80007cc:	1ab6      	subcs	r6, r6, r2
 80007ce:	4675      	movcs	r5, lr
 80007d0:	ea40 000c 	orrcs.w	r0, r0, ip
 80007d4:	085b      	lsrs	r3, r3, #1
 80007d6:	ea4f 0232 	mov.w	r2, r2, rrx
 80007da:	ebb6 0e02 	subs.w	lr, r6, r2
 80007de:	eb75 0e03 	sbcs.w	lr, r5, r3
 80007e2:	bf22      	ittt	cs
 80007e4:	1ab6      	subcs	r6, r6, r2
 80007e6:	4675      	movcs	r5, lr
 80007e8:	ea40 005c 	orrcs.w	r0, r0, ip, lsr #1
 80007ec:	085b      	lsrs	r3, r3, #1
 80007ee:	ea4f 0232 	mov.w	r2, r2, rrx
 80007f2:	ebb6 0e02 	subs.w	lr, r6, r2
 80007f6:	eb75 0e03 	sbcs.w	lr, r5, r3
 80007fa:	bf22      	ittt	cs
 80007fc:	1ab6      	subcs	r6, r6, r2
 80007fe:	4675      	movcs	r5, lr
 8000800:	ea40 009c 	orrcs.w	r0, r0, ip, lsr #2
 8000804:	085b      	lsrs	r3, r3, #1
 8000806:	ea4f 0232 	mov.w	r2, r2, rrx
 800080a:	ebb6 0e02 	subs.w	lr, r6, r2
 800080e:	eb75 0e03 	sbcs.w	lr, r5, r3
 8000812:	bf22      	ittt	cs
 8000814:	1ab6      	subcs	r6, r6, r2
 8000816:	4675      	movcs	r5, lr
 8000818:	ea40 00dc 	orrcs.w	r0, r0, ip, lsr #3
 800081c:	ea55 0e06 	orrs.w	lr, r5, r6
 8000820:	d018      	beq.n	8000854 <__aeabi_ddiv+0x114>
 8000822:	ea4f 1505 	mov.w	r5, r5, lsl #4
 8000826:	ea45 7516 	orr.w	r5, r5, r6, lsr #28
 800082a:	ea4f 1606 	mov.w	r6, r6, lsl #4
 800082e:	ea4f 03c3 	mov.w	r3, r3, lsl #3
 8000832:	ea43 7352 	orr.w	r3, r3, r2, lsr #29
 8000836:	ea4f 02c2 	mov.w	r2, r2, lsl #3
 800083a:	ea5f 1c1c 	movs.w	ip, ip, lsr #4
 800083e:	d1c0      	bne.n	80007c2 <__aeabi_ddiv+0x82>
 8000840:	f411 1f80 	tst.w	r1, #1048576	; 0x100000
 8000844:	d10b      	bne.n	800085e <__aeabi_ddiv+0x11e>
 8000846:	ea41 0100 	orr.w	r1, r1, r0
 800084a:	f04f 0000 	mov.w	r0, #0
 800084e:	f04f 4c00 	mov.w	ip, #2147483648	; 0x80000000
 8000852:	e7b6      	b.n	80007c2 <__aeabi_ddiv+0x82>
 8000854:	f411 1f80 	tst.w	r1, #1048576	; 0x100000
 8000858:	bf04      	itt	eq
 800085a:	4301      	orreq	r1, r0
 800085c:	2000      	moveq	r0, #0
 800085e:	f1b4 0cfd 	subs.w	ip, r4, #253	; 0xfd
 8000862:	bf88      	it	hi
 8000864:	f5bc 6fe0 	cmphi.w	ip, #1792	; 0x700
 8000868:	f63f aeaf 	bhi.w	80005ca <__aeabi_dmul+0xde>
 800086c:	ebb5 0c03 	subs.w	ip, r5, r3
 8000870:	bf04      	itt	eq
 8000872:	ebb6 0c02 	subseq.w	ip, r6, r2
 8000876:	ea5f 0c50 	movseq.w	ip, r0, lsr #1
 800087a:	f150 0000 	adcs.w	r0, r0, #0
 800087e:	eb41 5104 	adc.w	r1, r1, r4, lsl #20
 8000882:	bd70      	pop	{r4, r5, r6, pc}
 8000884:	f00e 4e00 	and.w	lr, lr, #2147483648	; 0x80000000
 8000888:	ea4e 3111 	orr.w	r1, lr, r1, lsr #12
 800088c:	eb14 045c 	adds.w	r4, r4, ip, lsr #1
 8000890:	bfc2      	ittt	gt
 8000892:	ebd4 050c 	rsbsgt	r5, r4, ip
 8000896:	ea41 5104 	orrgt.w	r1, r1, r4, lsl #20
 800089a:	bd70      	popgt	{r4, r5, r6, pc}
 800089c:	f441 1180 	orr.w	r1, r1, #1048576	; 0x100000
 80008a0:	f04f 0e00 	mov.w	lr, #0
 80008a4:	3c01      	subs	r4, #1
 80008a6:	e690      	b.n	80005ca <__aeabi_dmul+0xde>
 80008a8:	ea45 0e06 	orr.w	lr, r5, r6
 80008ac:	e68d      	b.n	80005ca <__aeabi_dmul+0xde>
 80008ae:	ea0c 5513 	and.w	r5, ip, r3, lsr #20
 80008b2:	ea94 0f0c 	teq	r4, ip
 80008b6:	bf08      	it	eq
 80008b8:	ea95 0f0c 	teqeq	r5, ip
 80008bc:	f43f af3b 	beq.w	8000736 <__aeabi_dmul+0x24a>
 80008c0:	ea94 0f0c 	teq	r4, ip
 80008c4:	d10a      	bne.n	80008dc <__aeabi_ddiv+0x19c>
 80008c6:	ea50 3401 	orrs.w	r4, r0, r1, lsl #12
 80008ca:	f47f af34 	bne.w	8000736 <__aeabi_dmul+0x24a>
 80008ce:	ea95 0f0c 	teq	r5, ip
 80008d2:	f47f af25 	bne.w	8000720 <__aeabi_dmul+0x234>
 80008d6:	4610      	mov	r0, r2
 80008d8:	4619      	mov	r1, r3
 80008da:	e72c      	b.n	8000736 <__aeabi_dmul+0x24a>
 80008dc:	ea95 0f0c 	teq	r5, ip
 80008e0:	d106      	bne.n	80008f0 <__aeabi_ddiv+0x1b0>
 80008e2:	ea52 3503 	orrs.w	r5, r2, r3, lsl #12
 80008e6:	f43f aefd 	beq.w	80006e4 <__aeabi_dmul+0x1f8>
 80008ea:	4610      	mov	r0, r2
 80008ec:	4619      	mov	r1, r3
 80008ee:	e722      	b.n	8000736 <__aeabi_dmul+0x24a>
 80008f0:	ea50 0641 	orrs.w	r6, r0, r1, lsl #1
 80008f4:	bf18      	it	ne
 80008f6:	ea52 0643 	orrsne.w	r6, r2, r3, lsl #1
 80008fa:	f47f aec5 	bne.w	8000688 <__aeabi_dmul+0x19c>
 80008fe:	ea50 0441 	orrs.w	r4, r0, r1, lsl #1
 8000902:	f47f af0d 	bne.w	8000720 <__aeabi_dmul+0x234>
 8000906:	ea52 0543 	orrs.w	r5, r2, r3, lsl #1
 800090a:	f47f aeeb 	bne.w	80006e4 <__aeabi_dmul+0x1f8>
 800090e:	e712      	b.n	8000736 <__aeabi_dmul+0x24a>

08000910 <__gedf2>:
 8000910:	f04f 3cff 	mov.w	ip, #4294967295
 8000914:	e006      	b.n	8000924 <__cmpdf2+0x4>
 8000916:	bf00      	nop

08000918 <__ledf2>:
 8000918:	f04f 0c01 	mov.w	ip, #1
 800091c:	e002      	b.n	8000924 <__cmpdf2+0x4>
 800091e:	bf00      	nop

08000920 <__cmpdf2>:
 8000920:	f04f 0c01 	mov.w	ip, #1
 8000924:	f84d cd04 	str.w	ip, [sp, #-4]!
 8000928:	ea4f 0c41 	mov.w	ip, r1, lsl #1
 800092c:	ea7f 5c6c 	mvns.w	ip, ip, asr #21
 8000930:	ea4f 0c43 	mov.w	ip, r3, lsl #1
 8000934:	bf18      	it	ne
 8000936:	ea7f 5c6c 	mvnsne.w	ip, ip, asr #21
 800093a:	d01b      	beq.n	8000974 <__cmpdf2+0x54>
 800093c:	b001      	add	sp, #4
 800093e:	ea50 0c41 	orrs.w	ip, r0, r1, lsl #1
 8000942:	bf0c      	ite	eq
 8000944:	ea52 0c43 	orrseq.w	ip, r2, r3, lsl #1
 8000948:	ea91 0f03 	teqne	r1, r3
 800094c:	bf02      	ittt	eq
 800094e:	ea90 0f02 	teqeq	r0, r2
 8000952:	2000      	moveq	r0, #0
 8000954:	4770      	bxeq	lr
 8000956:	f110 0f00 	cmn.w	r0, #0
 800095a:	ea91 0f03 	teq	r1, r3
 800095e:	bf58      	it	pl
 8000960:	4299      	cmppl	r1, r3
 8000962:	bf08      	it	eq
 8000964:	4290      	cmpeq	r0, r2
 8000966:	bf2c      	ite	cs
 8000968:	17d8      	asrcs	r0, r3, #31
 800096a:	ea6f 70e3 	mvncc.w	r0, r3, asr #31
 800096e:	f040 0001 	orr.w	r0, r0, #1
 8000972:	4770      	bx	lr
 8000974:	ea4f 0c41 	mov.w	ip, r1, lsl #1
 8000978:	ea7f 5c6c 	mvns.w	ip, ip, asr #21
 800097c:	d102      	bne.n	8000984 <__cmpdf2+0x64>
 800097e:	ea50 3c01 	orrs.w	ip, r0, r1, lsl #12
 8000982:	d107      	bne.n	8000994 <__cmpdf2+0x74>
 8000984:	ea4f 0c43 	mov.w	ip, r3, lsl #1
 8000988:	ea7f 5c6c 	mvns.w	ip, ip, asr #21
 800098c:	d1d6      	bne.n	800093c <__cmpdf2+0x1c>
 800098e:	ea52 3c03 	orrs.w	ip, r2, r3, lsl #12
 8000992:	d0d3      	beq.n	800093c <__cmpdf2+0x1c>
 8000994:	f85d 0b04 	ldr.w	r0, [sp], #4
 8000998:	4770      	bx	lr
 800099a:	bf00      	nop

0800099c <__aeabi_cdrcmple>:
 800099c:	4684      	mov	ip, r0
 800099e:	4610      	mov	r0, r2
 80009a0:	4662      	mov	r2, ip
 80009a2:	468c      	mov	ip, r1
 80009a4:	4619      	mov	r1, r3
 80009a6:	4663      	mov	r3, ip
 80009a8:	e000      	b.n	80009ac <__aeabi_cdcmpeq>
 80009aa:	bf00      	nop

080009ac <__aeabi_cdcmpeq>:
 80009ac:	b501      	push	{r0, lr}
 80009ae:	f7ff ffb7 	bl	8000920 <__cmpdf2>
 80009b2:	2800      	cmp	r0, #0
 80009b4:	bf48      	it	mi
 80009b6:	f110 0f00 	cmnmi.w	r0, #0
 80009ba:	bd01      	pop	{r0, pc}

080009bc <__aeabi_dcmpeq>:
 80009bc:	f84d ed08 	str.w	lr, [sp, #-8]!
 80009c0:	f7ff fff4 	bl	80009ac <__aeabi_cdcmpeq>
 80009c4:	bf0c      	ite	eq
 80009c6:	2001      	moveq	r0, #1
 80009c8:	2000      	movne	r0, #0
 80009ca:	f85d fb08 	ldr.w	pc, [sp], #8
 80009ce:	bf00      	nop

080009d0 <__aeabi_dcmplt>:
 80009d0:	f84d ed08 	str.w	lr, [sp, #-8]!
 80009d4:	f7ff ffea 	bl	80009ac <__aeabi_cdcmpeq>
 80009d8:	bf34      	ite	cc
 80009da:	2001      	movcc	r0, #1
 80009dc:	2000      	movcs	r0, #0
 80009de:	f85d fb08 	ldr.w	pc, [sp], #8
 80009e2:	bf00      	nop

080009e4 <__aeabi_dcmple>:
 80009e4:	f84d ed08 	str.w	lr, [sp, #-8]!
 80009e8:	f7ff ffe0 	bl	80009ac <__aeabi_cdcmpeq>
 80009ec:	bf94      	ite	ls
 80009ee:	2001      	movls	r0, #1
 80009f0:	2000      	movhi	r0, #0
 80009f2:	f85d fb08 	ldr.w	pc, [sp], #8
 80009f6:	bf00      	nop

080009f8 <__aeabi_dcmpge>:
 80009f8:	f84d ed08 	str.w	lr, [sp, #-8]!
 80009fc:	f7ff ffce 	bl	800099c <__aeabi_cdrcmple>
 8000a00:	bf94      	ite	ls
 8000a02:	2001      	movls	r0, #1
 8000a04:	2000      	movhi	r0, #0
 8000a06:	f85d fb08 	ldr.w	pc, [sp], #8
 8000a0a:	bf00      	nop

08000a0c <__aeabi_dcmpgt>:
 8000a0c:	f84d ed08 	str.w	lr, [sp, #-8]!
 8000a10:	f7ff ffc4 	bl	800099c <__aeabi_cdrcmple>
 8000a14:	bf34      	ite	cc
 8000a16:	2001      	movcc	r0, #1
 8000a18:	2000      	movcs	r0, #0
 8000a1a:	f85d fb08 	ldr.w	pc, [sp], #8
 8000a1e:	bf00      	nop

08000a20 <__aeabi_dcmpun>:
 8000a20:	ea4f 0c41 	mov.w	ip, r1, lsl #1
 8000a24:	ea7f 5c6c 	mvns.w	ip, ip, asr #21
 8000a28:	d102      	bne.n	8000a30 <__aeabi_dcmpun+0x10>
 8000a2a:	ea50 3c01 	orrs.w	ip, r0, r1, lsl #12
 8000a2e:	d10a      	bne.n	8000a46 <__aeabi_dcmpun+0x26>
 8000a30:	ea4f 0c43 	mov.w	ip, r3, lsl #1
 8000a34:	ea7f 5c6c 	mvns.w	ip, ip, asr #21
 8000a38:	d102      	bne.n	8000a40 <__aeabi_dcmpun+0x20>
 8000a3a:	ea52 3c03 	orrs.w	ip, r2, r3, lsl #12
 8000a3e:	d102      	bne.n	8000a46 <__aeabi_dcmpun+0x26>
 8000a40:	f04f 0000 	mov.w	r0, #0
 8000a44:	4770      	bx	lr
 8000a46:	f04f 0001 	mov.w	r0, #1
 8000a4a:	4770      	bx	lr

08000a4c <__aeabi_d2iz>:
 8000a4c:	ea4f 0241 	mov.w	r2, r1, lsl #1
 8000a50:	f512 1200 	adds.w	r2, r2, #2097152	; 0x200000
 8000a54:	d215      	bcs.n	8000a82 <__aeabi_d2iz+0x36>
 8000a56:	d511      	bpl.n	8000a7c <__aeabi_d2iz+0x30>
 8000a58:	f46f 7378 	mvn.w	r3, #992	; 0x3e0
 8000a5c:	ebb3 5262 	subs.w	r2, r3, r2, asr #21
 8000a60:	d912      	bls.n	8000a88 <__aeabi_d2iz+0x3c>
 8000a62:	ea4f 23c1 	mov.w	r3, r1, lsl #11
 8000a66:	f043 4300 	orr.w	r3, r3, #2147483648	; 0x80000000
 8000a6a:	ea43 5350 	orr.w	r3, r3, r0, lsr #21
 8000a6e:	f011 4f00 	tst.w	r1, #2147483648	; 0x80000000
 8000a72:	fa23 f002 	lsr.w	r0, r3, r2
 8000a76:	bf18      	it	ne
 8000a78:	4240      	negne	r0, r0
 8000a7a:	4770      	bx	lr
 8000a7c:	f04f 0000 	mov.w	r0, #0
 8000a80:	4770      	bx	lr
 8000a82:	ea50 3001 	orrs.w	r0, r0, r1, lsl #12
 8000a86:	d105      	bne.n	8000a94 <__aeabi_d2iz+0x48>
 8000a88:	f011 4000 	ands.w	r0, r1, #2147483648	; 0x80000000
 8000a8c:	bf08      	it	eq
 8000a8e:	f06f 4000 	mvneq.w	r0, #2147483648	; 0x80000000
 8000a92:	4770      	bx	lr
 8000a94:	f04f 0000 	mov.w	r0, #0
 8000a98:	4770      	bx	lr
 8000a9a:	bf00      	nop

08000a9c <__aeabi_d2uiz>:
 8000a9c:	004a      	lsls	r2, r1, #1
 8000a9e:	d211      	bcs.n	8000ac4 <__aeabi_d2uiz+0x28>
 8000aa0:	f512 1200 	adds.w	r2, r2, #2097152	; 0x200000
 8000aa4:	d211      	bcs.n	8000aca <__aeabi_d2uiz+0x2e>
 8000aa6:	d50d      	bpl.n	8000ac4 <__aeabi_d2uiz+0x28>
 8000aa8:	f46f 7378 	mvn.w	r3, #992	; 0x3e0
 8000aac:	ebb3 5262 	subs.w	r2, r3, r2, asr #21
 8000ab0:	d40e      	bmi.n	8000ad0 <__aeabi_d2uiz+0x34>
 8000ab2:	ea4f 23c1 	mov.w	r3, r1, lsl #11
 8000ab6:	f043 4300 	orr.w	r3, r3, #2147483648	; 0x80000000
 8000aba:	ea43 5350 	orr.w	r3, r3, r0, lsr #21
 8000abe:	fa23 f002 	lsr.w	r0, r3, r2
 8000ac2:	4770      	bx	lr
 8000ac4:	f04f 0000 	mov.w	r0, #0
 8000ac8:	4770      	bx	lr
 8000aca:	ea50 3001 	orrs.w	r0, r0, r1, lsl #12
 8000ace:	d102      	bne.n	8000ad6 <__aeabi_d2uiz+0x3a>
 8000ad0:	f04f 30ff 	mov.w	r0, #4294967295
 8000ad4:	4770      	bx	lr
 8000ad6:	f04f 0000 	mov.w	r0, #0
 8000ada:	4770      	bx	lr

08000adc <__aeabi_d2f>:
 8000adc:	ea4f 0241 	mov.w	r2, r1, lsl #1
 8000ae0:	f1b2 43e0 	subs.w	r3, r2, #1879048192	; 0x70000000
 8000ae4:	bf24      	itt	cs
 8000ae6:	f5b3 1c00 	subscs.w	ip, r3, #2097152	; 0x200000
 8000aea:	f1dc 5cfe 	rsbscs	ip, ip, #532676608	; 0x1fc00000
 8000aee:	d90d      	bls.n	8000b0c <__aeabi_d2f+0x30>
 8000af0:	f001 4c00 	and.w	ip, r1, #2147483648	; 0x80000000
 8000af4:	ea4f 02c0 	mov.w	r2, r0, lsl #3
 8000af8:	ea4c 7050 	orr.w	r0, ip, r0, lsr #29
 8000afc:	f1b2 4f00 	cmp.w	r2, #2147483648	; 0x80000000
 8000b00:	eb40 0083 	adc.w	r0, r0, r3, lsl #2
 8000b04:	bf08      	it	eq
 8000b06:	f020 0001 	biceq.w	r0, r0, #1
 8000b0a:	4770      	bx	lr
 8000b0c:	f011 4f80 	tst.w	r1, #1073741824	; 0x40000000
 8000b10:	d121      	bne.n	8000b56 <__aeabi_d2f+0x7a>
 8000b12:	f113 7238 	adds.w	r2, r3, #48234496	; 0x2e00000
 8000b16:	bfbc      	itt	lt
 8000b18:	f001 4000 	andlt.w	r0, r1, #2147483648	; 0x80000000
 8000b1c:	4770      	bxlt	lr
 8000b1e:	f441 1180 	orr.w	r1, r1, #1048576	; 0x100000
 8000b22:	ea4f 5252 	mov.w	r2, r2, lsr #21
 8000b26:	f1c2 0218 	rsb	r2, r2, #24
 8000b2a:	f1c2 0c20 	rsb	ip, r2, #32
 8000b2e:	fa10 f30c 	lsls.w	r3, r0, ip
 8000b32:	fa20 f002 	lsr.w	r0, r0, r2
 8000b36:	bf18      	it	ne
 8000b38:	f040 0001 	orrne.w	r0, r0, #1
 8000b3c:	ea4f 23c1 	mov.w	r3, r1, lsl #11
 8000b40:	ea4f 23d3 	mov.w	r3, r3, lsr #11
 8000b44:	fa03 fc0c 	lsl.w	ip, r3, ip
 8000b48:	ea40 000c 	orr.w	r0, r0, ip
 8000b4c:	fa23 f302 	lsr.w	r3, r3, r2
 8000b50:	ea4f 0343 	mov.w	r3, r3, lsl #1
 8000b54:	e7cc      	b.n	8000af0 <__aeabi_d2f+0x14>
 8000b56:	ea7f 5362 	mvns.w	r3, r2, asr #21
 8000b5a:	d107      	bne.n	8000b6c <__aeabi_d2f+0x90>
 8000b5c:	ea50 3301 	orrs.w	r3, r0, r1, lsl #12
 8000b60:	bf1e      	ittt	ne
 8000b62:	f04f 40fe 	movne.w	r0, #2130706432	; 0x7f000000
 8000b66:	f440 0040 	orrne.w	r0, r0, #12582912	; 0xc00000
 8000b6a:	4770      	bxne	lr
 8000b6c:	f001 4000 	and.w	r0, r1, #2147483648	; 0x80000000
 8000b70:	f040 40fe 	orr.w	r0, r0, #2130706432	; 0x7f000000
 8000b74:	f440 0000 	orr.w	r0, r0, #8388608	; 0x800000
 8000b78:	4770      	bx	lr
 8000b7a:	bf00      	nop

08000b7c <__aeabi_frsub>:
 8000b7c:	f080 4000 	eor.w	r0, r0, #2147483648	; 0x80000000
 8000b80:	e002      	b.n	8000b88 <__addsf3>
 8000b82:	bf00      	nop

08000b84 <__aeabi_fsub>:
 8000b84:	f081 4100 	eor.w	r1, r1, #2147483648	; 0x80000000

08000b88 <__addsf3>:
 8000b88:	0042      	lsls	r2, r0, #1
 8000b8a:	bf1f      	itttt	ne
 8000b8c:	ea5f 0341 	movsne.w	r3, r1, lsl #1
 8000b90:	ea92 0f03 	teqne	r2, r3
 8000b94:	ea7f 6c22 	mvnsne.w	ip, r2, asr #24
 8000b98:	ea7f 6c23 	mvnsne.w	ip, r3, asr #24
 8000b9c:	d06a      	beq.n	8000c74 <__addsf3+0xec>
 8000b9e:	ea4f 6212 	mov.w	r2, r2, lsr #24
 8000ba2:	ebd2 6313 	rsbs	r3, r2, r3, lsr #24
 8000ba6:	bfc1      	itttt	gt
 8000ba8:	18d2      	addgt	r2, r2, r3
 8000baa:	4041      	eorgt	r1, r0
 8000bac:	4048      	eorgt	r0, r1
 8000bae:	4041      	eorgt	r1, r0
 8000bb0:	bfb8      	it	lt
 8000bb2:	425b      	neglt	r3, r3
 8000bb4:	2b19      	cmp	r3, #25
 8000bb6:	bf88      	it	hi
 8000bb8:	4770      	bxhi	lr
 8000bba:	f010 4f00 	tst.w	r0, #2147483648	; 0x80000000
 8000bbe:	f440 0000 	orr.w	r0, r0, #8388608	; 0x800000
 8000bc2:	f020 407f 	bic.w	r0, r0, #4278190080	; 0xff000000
 8000bc6:	bf18      	it	ne
 8000bc8:	4240      	negne	r0, r0
 8000bca:	f011 4f00 	tst.w	r1, #2147483648	; 0x80000000
 8000bce:	f441 0100 	orr.w	r1, r1, #8388608	; 0x800000
 8000bd2:	f021 417f 	bic.w	r1, r1, #4278190080	; 0xff000000
 8000bd6:	bf18      	it	ne
 8000bd8:	4249      	negne	r1, r1
 8000bda:	ea92 0f03 	teq	r2, r3
 8000bde:	d03f      	beq.n	8000c60 <__addsf3+0xd8>
 8000be0:	f1a2 0201 	sub.w	r2, r2, #1
 8000be4:	fa41 fc03 	asr.w	ip, r1, r3
 8000be8:	eb10 000c 	adds.w	r0, r0, ip
 8000bec:	f1c3 0320 	rsb	r3, r3, #32
 8000bf0:	fa01 f103 	lsl.w	r1, r1, r3
 8000bf4:	f000 4300 	and.w	r3, r0, #2147483648	; 0x80000000
 8000bf8:	d502      	bpl.n	8000c00 <__addsf3+0x78>
 8000bfa:	4249      	negs	r1, r1
 8000bfc:	eb60 0040 	sbc.w	r0, r0, r0, lsl #1
 8000c00:	f5b0 0f00 	cmp.w	r0, #8388608	; 0x800000
 8000c04:	d313      	bcc.n	8000c2e <__addsf3+0xa6>
 8000c06:	f1b0 7f80 	cmp.w	r0, #16777216	; 0x1000000
 8000c0a:	d306      	bcc.n	8000c1a <__addsf3+0x92>
 8000c0c:	0840      	lsrs	r0, r0, #1
 8000c0e:	ea4f 0131 	mov.w	r1, r1, rrx
 8000c12:	f102 0201 	add.w	r2, r2, #1
 8000c16:	2afe      	cmp	r2, #254	; 0xfe
 8000c18:	d251      	bcs.n	8000cbe <__addsf3+0x136>
 8000c1a:	f1b1 4f00 	cmp.w	r1, #2147483648	; 0x80000000
 8000c1e:	eb40 50c2 	adc.w	r0, r0, r2, lsl #23
 8000c22:	bf08      	it	eq
 8000c24:	f020 0001 	biceq.w	r0, r0, #1
 8000c28:	ea40 0003 	orr.w	r0, r0, r3
 8000c2c:	4770      	bx	lr
 8000c2e:	0049      	lsls	r1, r1, #1
 8000c30:	eb40 0000 	adc.w	r0, r0, r0
 8000c34:	f410 0f00 	tst.w	r0, #8388608	; 0x800000
 8000c38:	f1a2 0201 	sub.w	r2, r2, #1
 8000c3c:	d1ed      	bne.n	8000c1a <__addsf3+0x92>
 8000c3e:	fab0 fc80 	clz	ip, r0
 8000c42:	f1ac 0c08 	sub.w	ip, ip, #8
 8000c46:	ebb2 020c 	subs.w	r2, r2, ip
 8000c4a:	fa00 f00c 	lsl.w	r0, r0, ip
 8000c4e:	bfaa      	itet	ge
 8000c50:	eb00 50c2 	addge.w	r0, r0, r2, lsl #23
 8000c54:	4252      	neglt	r2, r2
 8000c56:	4318      	orrge	r0, r3
 8000c58:	bfbc      	itt	lt
 8000c5a:	40d0      	lsrlt	r0, r2
 8000c5c:	4318      	orrlt	r0, r3
 8000c5e:	4770      	bx	lr
 8000c60:	f092 0f00 	teq	r2, #0
 8000c64:	f481 0100 	eor.w	r1, r1, #8388608	; 0x800000
 8000c68:	bf06      	itte	eq
 8000c6a:	f480 0000 	eoreq.w	r0, r0, #8388608	; 0x800000
 8000c6e:	3201      	addeq	r2, #1
 8000c70:	3b01      	subne	r3, #1
 8000c72:	e7b5      	b.n	8000be0 <__addsf3+0x58>
 8000c74:	ea4f 0341 	mov.w	r3, r1, lsl #1
 8000c78:	ea7f 6c22 	mvns.w	ip, r2, asr #24
 8000c7c:	bf18      	it	ne
 8000c7e:	ea7f 6c23 	mvnsne.w	ip, r3, asr #24
 8000c82:	d021      	beq.n	8000cc8 <__addsf3+0x140>
 8000c84:	ea92 0f03 	teq	r2, r3
 8000c88:	d004      	beq.n	8000c94 <__addsf3+0x10c>
 8000c8a:	f092 0f00 	teq	r2, #0
 8000c8e:	bf08      	it	eq
 8000c90:	4608      	moveq	r0, r1
 8000c92:	4770      	bx	lr
 8000c94:	ea90 0f01 	teq	r0, r1
 8000c98:	bf1c      	itt	ne
 8000c9a:	2000      	movne	r0, #0
 8000c9c:	4770      	bxne	lr
 8000c9e:	f012 4f7f 	tst.w	r2, #4278190080	; 0xff000000
 8000ca2:	d104      	bne.n	8000cae <__addsf3+0x126>
 8000ca4:	0040      	lsls	r0, r0, #1
 8000ca6:	bf28      	it	cs
 8000ca8:	f040 4000 	orrcs.w	r0, r0, #2147483648	; 0x80000000
 8000cac:	4770      	bx	lr
 8000cae:	f112 7200 	adds.w	r2, r2, #33554432	; 0x2000000
 8000cb2:	bf3c      	itt	cc
 8000cb4:	f500 0000 	addcc.w	r0, r0, #8388608	; 0x800000
 8000cb8:	4770      	bxcc	lr
 8000cba:	f000 4300 	and.w	r3, r0, #2147483648	; 0x80000000
 8000cbe:	f043 40fe 	orr.w	r0, r3, #2130706432	; 0x7f000000
 8000cc2:	f440 0000 	orr.w	r0, r0, #8388608	; 0x800000
 8000cc6:	4770      	bx	lr
 8000cc8:	ea7f 6222 	mvns.w	r2, r2, asr #24
 8000ccc:	bf16      	itet	ne
 8000cce:	4608      	movne	r0, r1
 8000cd0:	ea7f 6323 	mvnseq.w	r3, r3, asr #24
 8000cd4:	4601      	movne	r1, r0
 8000cd6:	0242      	lsls	r2, r0, #9
 8000cd8:	bf06      	itte	eq
 8000cda:	ea5f 2341 	movseq.w	r3, r1, lsl #9
 8000cde:	ea90 0f01 	teqeq	r0, r1
 8000ce2:	f440 0080 	orrne.w	r0, r0, #4194304	; 0x400000
 8000ce6:	4770      	bx	lr

08000ce8 <__aeabi_ui2f>:
 8000ce8:	f04f 0300 	mov.w	r3, #0
 8000cec:	e004      	b.n	8000cf8 <__aeabi_i2f+0x8>
 8000cee:	bf00      	nop

08000cf0 <__aeabi_i2f>:
 8000cf0:	f010 4300 	ands.w	r3, r0, #2147483648	; 0x80000000
 8000cf4:	bf48      	it	mi
 8000cf6:	4240      	negmi	r0, r0
 8000cf8:	ea5f 0c00 	movs.w	ip, r0
 8000cfc:	bf08      	it	eq
 8000cfe:	4770      	bxeq	lr
 8000d00:	f043 4396 	orr.w	r3, r3, #1258291200	; 0x4b000000
 8000d04:	4601      	mov	r1, r0
 8000d06:	f04f 0000 	mov.w	r0, #0
 8000d0a:	e01c      	b.n	8000d46 <__aeabi_l2f+0x2a>

08000d0c <__aeabi_ul2f>:
 8000d0c:	ea50 0201 	orrs.w	r2, r0, r1
 8000d10:	bf08      	it	eq
 8000d12:	4770      	bxeq	lr
 8000d14:	f04f 0300 	mov.w	r3, #0
 8000d18:	e00a      	b.n	8000d30 <__aeabi_l2f+0x14>
 8000d1a:	bf00      	nop

08000d1c <__aeabi_l2f>:
 8000d1c:	ea50 0201 	orrs.w	r2, r0, r1
 8000d20:	bf08      	it	eq
 8000d22:	4770      	bxeq	lr
 8000d24:	f011 4300 	ands.w	r3, r1, #2147483648	; 0x80000000
 8000d28:	d502      	bpl.n	8000d30 <__aeabi_l2f+0x14>
 8000d2a:	4240      	negs	r0, r0
 8000d2c:	eb61 0141 	sbc.w	r1, r1, r1, lsl #1
 8000d30:	ea5f 0c01 	movs.w	ip, r1
 8000d34:	bf02      	ittt	eq
 8000d36:	4684      	moveq	ip, r0
 8000d38:	4601      	moveq	r1, r0
 8000d3a:	2000      	moveq	r0, #0
 8000d3c:	f043 43b6 	orr.w	r3, r3, #1526726656	; 0x5b000000
 8000d40:	bf08      	it	eq
 8000d42:	f1a3 5380 	subeq.w	r3, r3, #268435456	; 0x10000000
 8000d46:	f5a3 0300 	sub.w	r3, r3, #8388608	; 0x800000
 8000d4a:	fabc f28c 	clz	r2, ip
 8000d4e:	3a08      	subs	r2, #8
 8000d50:	eba3 53c2 	sub.w	r3, r3, r2, lsl #23
 8000d54:	db10      	blt.n	8000d78 <__aeabi_l2f+0x5c>
 8000d56:	fa01 fc02 	lsl.w	ip, r1, r2
 8000d5a:	4463      	add	r3, ip
 8000d5c:	fa00 fc02 	lsl.w	ip, r0, r2
 8000d60:	f1c2 0220 	rsb	r2, r2, #32
 8000d64:	f1bc 4f00 	cmp.w	ip, #2147483648	; 0x80000000
 8000d68:	fa20 f202 	lsr.w	r2, r0, r2
 8000d6c:	eb43 0002 	adc.w	r0, r3, r2
 8000d70:	bf08      	it	eq
 8000d72:	f020 0001 	biceq.w	r0, r0, #1
 8000d76:	4770      	bx	lr
 8000d78:	f102 0220 	add.w	r2, r2, #32
 8000d7c:	fa01 fc02 	lsl.w	ip, r1, r2
 8000d80:	f1c2 0220 	rsb	r2, r2, #32
 8000d84:	ea50 004c 	orrs.w	r0, r0, ip, lsl #1
 8000d88:	fa21 f202 	lsr.w	r2, r1, r2
 8000d8c:	eb43 0002 	adc.w	r0, r3, r2
 8000d90:	bf08      	it	eq
 8000d92:	ea20 70dc 	biceq.w	r0, r0, ip, lsr #31
 8000d96:	4770      	bx	lr

08000d98 <__aeabi_fmul>:
 8000d98:	f04f 0cff 	mov.w	ip, #255	; 0xff
 8000d9c:	ea1c 52d0 	ands.w	r2, ip, r0, lsr #23
 8000da0:	bf1e      	ittt	ne
 8000da2:	ea1c 53d1 	andsne.w	r3, ip, r1, lsr #23
 8000da6:	ea92 0f0c 	teqne	r2, ip
 8000daa:	ea93 0f0c 	teqne	r3, ip
 8000dae:	d06f      	beq.n	8000e90 <__aeabi_fmul+0xf8>
 8000db0:	441a      	add	r2, r3
 8000db2:	ea80 0c01 	eor.w	ip, r0, r1
 8000db6:	0240      	lsls	r0, r0, #9
 8000db8:	bf18      	it	ne
 8000dba:	ea5f 2141 	movsne.w	r1, r1, lsl #9
 8000dbe:	d01e      	beq.n	8000dfe <__aeabi_fmul+0x66>
 8000dc0:	f04f 6300 	mov.w	r3, #134217728	; 0x8000000
 8000dc4:	ea43 1050 	orr.w	r0, r3, r0, lsr #5
 8000dc8:	ea43 1151 	orr.w	r1, r3, r1, lsr #5
 8000dcc:	fba0 3101 	umull	r3, r1, r0, r1
 8000dd0:	f00c 4000 	and.w	r0, ip, #2147483648	; 0x80000000
 8000dd4:	f5b1 0f00 	cmp.w	r1, #8388608	; 0x800000
 8000dd8:	bf3e      	ittt	cc
 8000dda:	0049      	lslcc	r1, r1, #1
 8000ddc:	ea41 71d3 	orrcc.w	r1, r1, r3, lsr #31
 8000de0:	005b      	lslcc	r3, r3, #1
 8000de2:	ea40 0001 	orr.w	r0, r0, r1
 8000de6:	f162 027f 	sbc.w	r2, r2, #127	; 0x7f
 8000dea:	2afd      	cmp	r2, #253	; 0xfd
 8000dec:	d81d      	bhi.n	8000e2a <__aeabi_fmul+0x92>
 8000dee:	f1b3 4f00 	cmp.w	r3, #2147483648	; 0x80000000
 8000df2:	eb40 50c2 	adc.w	r0, r0, r2, lsl #23
 8000df6:	bf08      	it	eq
 8000df8:	f020 0001 	biceq.w	r0, r0, #1
 8000dfc:	4770      	bx	lr
 8000dfe:	f090 0f00 	teq	r0, #0
 8000e02:	f00c 4c00 	and.w	ip, ip, #2147483648	; 0x80000000
 8000e06:	bf08      	it	eq
 8000e08:	0249      	lsleq	r1, r1, #9
 8000e0a:	ea4c 2050 	orr.w	r0, ip, r0, lsr #9
 8000e0e:	ea40 2051 	orr.w	r0, r0, r1, lsr #9
 8000e12:	3a7f      	subs	r2, #127	; 0x7f
 8000e14:	bfc2      	ittt	gt
 8000e16:	f1d2 03ff 	rsbsgt	r3, r2, #255	; 0xff
 8000e1a:	ea40 50c2 	orrgt.w	r0, r0, r2, lsl #23
 8000e1e:	4770      	bxgt	lr
 8000e20:	f440 0000 	orr.w	r0, r0, #8388608	; 0x800000
 8000e24:	f04f 0300 	mov.w	r3, #0
 8000e28:	3a01      	subs	r2, #1
 8000e2a:	dc5d      	bgt.n	8000ee8 <__aeabi_fmul+0x150>
 8000e2c:	f112 0f19 	cmn.w	r2, #25
 8000e30:	bfdc      	itt	le
 8000e32:	f000 4000 	andle.w	r0, r0, #2147483648	; 0x80000000
 8000e36:	4770      	bxle	lr
 8000e38:	f1c2 0200 	rsb	r2, r2, #0
 8000e3c:	0041      	lsls	r1, r0, #1
 8000e3e:	fa21 f102 	lsr.w	r1, r1, r2
 8000e42:	f1c2 0220 	rsb	r2, r2, #32
 8000e46:	fa00 fc02 	lsl.w	ip, r0, r2
 8000e4a:	ea5f 0031 	movs.w	r0, r1, rrx
 8000e4e:	f140 0000 	adc.w	r0, r0, #0
 8000e52:	ea53 034c 	orrs.w	r3, r3, ip, lsl #1
 8000e56:	bf08      	it	eq
 8000e58:	ea20 70dc 	biceq.w	r0, r0, ip, lsr #31
 8000e5c:	4770      	bx	lr
 8000e5e:	f092 0f00 	teq	r2, #0
 8000e62:	f000 4c00 	and.w	ip, r0, #2147483648	; 0x80000000
 8000e66:	bf02      	ittt	eq
 8000e68:	0040      	lsleq	r0, r0, #1
 8000e6a:	f410 0f00 	tsteq.w	r0, #8388608	; 0x800000
 8000e6e:	3a01      	subeq	r2, #1
 8000e70:	d0f9      	beq.n	8000e66 <__aeabi_fmul+0xce>
 8000e72:	ea40 000c 	orr.w	r0, r0, ip
 8000e76:	f093 0f00 	teq	r3, #0
 8000e7a:	f001 4c00 	and.w	ip, r1, #2147483648	; 0x80000000
 8000e7e:	bf02      	ittt	eq
 8000e80:	0049      	lsleq	r1, r1, #1
 8000e82:	f411 0f00 	tsteq.w	r1, #8388608	; 0x800000
 8000e86:	3b01      	subeq	r3, #1
 8000e88:	d0f9      	beq.n	8000e7e <__aeabi_fmul+0xe6>
 8000e8a:	ea41 010c 	orr.w	r1, r1, ip
 8000e8e:	e78f      	b.n	8000db0 <__aeabi_fmul+0x18>
 8000e90:	ea0c 53d1 	and.w	r3, ip, r1, lsr #23
 8000e94:	ea92 0f0c 	teq	r2, ip
 8000e98:	bf18      	it	ne
 8000e9a:	ea93 0f0c 	teqne	r3, ip
 8000e9e:	d00a      	beq.n	8000eb6 <__aeabi_fmul+0x11e>
 8000ea0:	f030 4c00 	bics.w	ip, r0, #2147483648	; 0x80000000
 8000ea4:	bf18      	it	ne
 8000ea6:	f031 4c00 	bicsne.w	ip, r1, #2147483648	; 0x80000000
 8000eaa:	d1d8      	bne.n	8000e5e <__aeabi_fmul+0xc6>
 8000eac:	ea80 0001 	eor.w	r0, r0, r1
 8000eb0:	f000 4000 	and.w	r0, r0, #2147483648	; 0x80000000
 8000eb4:	4770      	bx	lr
 8000eb6:	f090 0f00 	teq	r0, #0
 8000eba:	bf17      	itett	ne
 8000ebc:	f090 4f00 	teqne	r0, #2147483648	; 0x80000000
 8000ec0:	4608      	moveq	r0, r1
 8000ec2:	f091 0f00 	teqne	r1, #0
 8000ec6:	f091 4f00 	teqne	r1, #2147483648	; 0x80000000
 8000eca:	d014      	beq.n	8000ef6 <__aeabi_fmul+0x15e>
 8000ecc:	ea92 0f0c 	teq	r2, ip
 8000ed0:	d101      	bne.n	8000ed6 <__aeabi_fmul+0x13e>
 8000ed2:	0242      	lsls	r2, r0, #9
 8000ed4:	d10f      	bne.n	8000ef6 <__aeabi_fmul+0x15e>
 8000ed6:	ea93 0f0c 	teq	r3, ip
 8000eda:	d103      	bne.n	8000ee4 <__aeabi_fmul+0x14c>
 8000edc:	024b      	lsls	r3, r1, #9
 8000ede:	bf18      	it	ne
 8000ee0:	4608      	movne	r0, r1
 8000ee2:	d108      	bne.n	8000ef6 <__aeabi_fmul+0x15e>
 8000ee4:	ea80 0001 	eor.w	r0, r0, r1
 8000ee8:	f000 4000 	and.w	r0, r0, #2147483648	; 0x80000000
 8000eec:	f040 40fe 	orr.w	r0, r0, #2130706432	; 0x7f000000
 8000ef0:	f440 0000 	orr.w	r0, r0, #8388608	; 0x800000
 8000ef4:	4770      	bx	lr
 8000ef6:	f040 40fe 	orr.w	r0, r0, #2130706432	; 0x7f000000
 8000efa:	f440 0040 	orr.w	r0, r0, #12582912	; 0xc00000
 8000efe:	4770      	bx	lr

08000f00 <__aeabi_fdiv>:
 8000f00:	f04f 0cff 	mov.w	ip, #255	; 0xff
 8000f04:	ea1c 52d0 	ands.w	r2, ip, r0, lsr #23
 8000f08:	bf1e      	ittt	ne
 8000f0a:	ea1c 53d1 	andsne.w	r3, ip, r1, lsr #23
 8000f0e:	ea92 0f0c 	teqne	r2, ip
 8000f12:	ea93 0f0c 	teqne	r3, ip
 8000f16:	d069      	beq.n	8000fec <__aeabi_fdiv+0xec>
 8000f18:	eba2 0203 	sub.w	r2, r2, r3
 8000f1c:	ea80 0c01 	eor.w	ip, r0, r1
 8000f20:	0249      	lsls	r1, r1, #9
 8000f22:	ea4f 2040 	mov.w	r0, r0, lsl #9
 8000f26:	d037      	beq.n	8000f98 <__aeabi_fdiv+0x98>
 8000f28:	f04f 5380 	mov.w	r3, #268435456	; 0x10000000
 8000f2c:	ea43 1111 	orr.w	r1, r3, r1, lsr #4
 8000f30:	ea43 1310 	orr.w	r3, r3, r0, lsr #4
 8000f34:	f00c 4000 	and.w	r0, ip, #2147483648	; 0x80000000
 8000f38:	428b      	cmp	r3, r1
 8000f3a:	bf38      	it	cc
 8000f3c:	005b      	lslcc	r3, r3, #1
 8000f3e:	f142 027d 	adc.w	r2, r2, #125	; 0x7d
 8000f42:	f44f 0c00 	mov.w	ip, #8388608	; 0x800000
 8000f46:	428b      	cmp	r3, r1
 8000f48:	bf24      	itt	cs
 8000f4a:	1a5b      	subcs	r3, r3, r1
 8000f4c:	ea40 000c 	orrcs.w	r0, r0, ip
 8000f50:	ebb3 0f51 	cmp.w	r3, r1, lsr #1
 8000f54:	bf24      	itt	cs
 8000f56:	eba3 0351 	subcs.w	r3, r3, r1, lsr #1
 8000f5a:	ea40 005c 	orrcs.w	r0, r0, ip, lsr #1
 8000f5e:	ebb3 0f91 	cmp.w	r3, r1, lsr #2
 8000f62:	bf24      	itt	cs
 8000f64:	eba3 0391 	subcs.w	r3, r3, r1, lsr #2
 8000f68:	ea40 009c 	orrcs.w	r0, r0, ip, lsr #2
 8000f6c:	ebb3 0fd1 	cmp.w	r3, r1, lsr #3
 8000f70:	bf24      	itt	cs
 8000f72:	eba3 03d1 	subcs.w	r3, r3, r1, lsr #3
 8000f76:	ea40 00dc 	orrcs.w	r0, r0, ip, lsr #3
 8000f7a:	011b      	lsls	r3, r3, #4
 8000f7c:	bf18      	it	ne
 8000f7e:	ea5f 1c1c 	movsne.w	ip, ip, lsr #4
 8000f82:	d1e0      	bne.n	8000f46 <__aeabi_fdiv+0x46>
 8000f84:	2afd      	cmp	r2, #253	; 0xfd
 8000f86:	f63f af50 	bhi.w	8000e2a <__aeabi_fmul+0x92>
 8000f8a:	428b      	cmp	r3, r1
 8000f8c:	eb40 50c2 	adc.w	r0, r0, r2, lsl #23
 8000f90:	bf08      	it	eq
 8000f92:	f020 0001 	biceq.w	r0, r0, #1
 8000f96:	4770      	bx	lr
 8000f98:	f00c 4c00 	and.w	ip, ip, #2147483648	; 0x80000000
 8000f9c:	ea4c 2050 	orr.w	r0, ip, r0, lsr #9
 8000fa0:	327f      	adds	r2, #127	; 0x7f
 8000fa2:	bfc2      	ittt	gt
 8000fa4:	f1d2 03ff 	rsbsgt	r3, r2, #255	; 0xff
 8000fa8:	ea40 50c2 	orrgt.w	r0, r0, r2, lsl #23
 8000fac:	4770      	bxgt	lr
 8000fae:	f440 0000 	orr.w	r0, r0, #8388608	; 0x800000
 8000fb2:	f04f 0300 	mov.w	r3, #0
 8000fb6:	3a01      	subs	r2, #1
 8000fb8:	e737      	b.n	8000e2a <__aeabi_fmul+0x92>
 8000fba:	f092 0f00 	teq	r2, #0
 8000fbe:	f000 4c00 	and.w	ip, r0, #2147483648	; 0x80000000
 8000fc2:	bf02      	ittt	eq
 8000fc4:	0040      	lsleq	r0, r0, #1
 8000fc6:	f410 0f00 	tsteq.w	r0, #8388608	; 0x800000
 8000fca:	3a01      	subeq	r2, #1
 8000fcc:	d0f9      	beq.n	8000fc2 <__aeabi_fdiv+0xc2>
 8000fce:	ea40 000c 	orr.w	r0, r0, ip
 8000fd2:	f093 0f00 	teq	r3, #0
 8000fd6:	f001 4c00 	and.w	ip, r1, #2147483648	; 0x80000000
 8000fda:	bf02      	ittt	eq
 8000fdc:	0049      	lsleq	r1, r1, #1
 8000fde:	f411 0f00 	tsteq.w	r1, #8388608	; 0x800000
 8000fe2:	3b01      	subeq	r3, #1
 8000fe4:	d0f9      	beq.n	8000fda <__aeabi_fdiv+0xda>
 8000fe6:	ea41 010c 	orr.w	r1, r1, ip
 8000fea:	e795      	b.n	8000f18 <__aeabi_fdiv+0x18>
 8000fec:	ea0c 53d1 	and.w	r3, ip, r1, lsr #23
 8000ff0:	ea92 0f0c 	teq	r2, ip
 8000ff4:	d108      	bne.n	8001008 <__aeabi_fdiv+0x108>
 8000ff6:	0242      	lsls	r2, r0, #9
 8000ff8:	f47f af7d 	bne.w	8000ef6 <__aeabi_fmul+0x15e>
 8000ffc:	ea93 0f0c 	teq	r3, ip
 8001000:	f47f af70 	bne.w	8000ee4 <__aeabi_fmul+0x14c>
 8001004:	4608      	mov	r0, r1
 8001006:	e776      	b.n	8000ef6 <__aeabi_fmul+0x15e>
 8001008:	ea93 0f0c 	teq	r3, ip
 800100c:	d104      	bne.n	8001018 <__aeabi_fdiv+0x118>
 800100e:	024b      	lsls	r3, r1, #9
 8001010:	f43f af4c 	beq.w	8000eac <__aeabi_fmul+0x114>
 8001014:	4608      	mov	r0, r1
 8001016:	e76e      	b.n	8000ef6 <__aeabi_fmul+0x15e>
 8001018:	f030 4c00 	bics.w	ip, r0, #2147483648	; 0x80000000
 800101c:	bf18      	it	ne
 800101e:	f031 4c00 	bicsne.w	ip, r1, #2147483648	; 0x80000000
 8001022:	d1ca      	bne.n	8000fba <__aeabi_fdiv+0xba>
 8001024:	f030 4200 	bics.w	r2, r0, #2147483648	; 0x80000000
 8001028:	f47f af5c 	bne.w	8000ee4 <__aeabi_fmul+0x14c>
 800102c:	f031 4300 	bics.w	r3, r1, #2147483648	; 0x80000000
 8001030:	f47f af3c 	bne.w	8000eac <__aeabi_fmul+0x114>
 8001034:	e75f      	b.n	8000ef6 <__aeabi_fmul+0x15e>
 8001036:	bf00      	nop

08001038 <__gesf2>:
 8001038:	f04f 3cff 	mov.w	ip, #4294967295
 800103c:	e006      	b.n	800104c <__cmpsf2+0x4>
 800103e:	bf00      	nop

08001040 <__lesf2>:
 8001040:	f04f 0c01 	mov.w	ip, #1
 8001044:	e002      	b.n	800104c <__cmpsf2+0x4>
 8001046:	bf00      	nop

08001048 <__cmpsf2>:
 8001048:	f04f 0c01 	mov.w	ip, #1
 800104c:	f84d cd04 	str.w	ip, [sp, #-4]!
 8001050:	ea4f 0240 	mov.w	r2, r0, lsl #1
 8001054:	ea4f 0341 	mov.w	r3, r1, lsl #1
 8001058:	ea7f 6c22 	mvns.w	ip, r2, asr #24
 800105c:	bf18      	it	ne
 800105e:	ea7f 6c23 	mvnsne.w	ip, r3, asr #24
 8001062:	d011      	beq.n	8001088 <__cmpsf2+0x40>
 8001064:	b001      	add	sp, #4
 8001066:	ea52 0c53 	orrs.w	ip, r2, r3, lsr #1
 800106a:	bf18      	it	ne
 800106c:	ea90 0f01 	teqne	r0, r1
 8001070:	bf58      	it	pl
 8001072:	ebb2 0003 	subspl.w	r0, r2, r3
 8001076:	bf88      	it	hi
 8001078:	17c8      	asrhi	r0, r1, #31
 800107a:	bf38      	it	cc
 800107c:	ea6f 70e1 	mvncc.w	r0, r1, asr #31
 8001080:	bf18      	it	ne
 8001082:	f040 0001 	orrne.w	r0, r0, #1
 8001086:	4770      	bx	lr
 8001088:	ea7f 6c22 	mvns.w	ip, r2, asr #24
 800108c:	d102      	bne.n	8001094 <__cmpsf2+0x4c>
 800108e:	ea5f 2c40 	movs.w	ip, r0, lsl #9
 8001092:	d105      	bne.n	80010a0 <__cmpsf2+0x58>
 8001094:	ea7f 6c23 	mvns.w	ip, r3, asr #24
 8001098:	d1e4      	bne.n	8001064 <__cmpsf2+0x1c>
 800109a:	ea5f 2c41 	movs.w	ip, r1, lsl #9
 800109e:	d0e1      	beq.n	8001064 <__cmpsf2+0x1c>
 80010a0:	f85d 0b04 	ldr.w	r0, [sp], #4
 80010a4:	4770      	bx	lr
 80010a6:	bf00      	nop

080010a8 <__aeabi_cfrcmple>:
 80010a8:	4684      	mov	ip, r0
 80010aa:	4608      	mov	r0, r1
 80010ac:	4661      	mov	r1, ip
 80010ae:	e7ff      	b.n	80010b0 <__aeabi_cfcmpeq>

080010b0 <__aeabi_cfcmpeq>:
 80010b0:	b50f      	push	{r0, r1, r2, r3, lr}
 80010b2:	f7ff ffc9 	bl	8001048 <__cmpsf2>
 80010b6:	2800      	cmp	r0, #0
 80010b8:	bf48      	it	mi
 80010ba:	f110 0f00 	cmnmi.w	r0, #0
 80010be:	bd0f      	pop	{r0, r1, r2, r3, pc}

080010c0 <__aeabi_fcmpeq>:
 80010c0:	f84d ed08 	str.w	lr, [sp, #-8]!
 80010c4:	f7ff fff4 	bl	80010b0 <__aeabi_cfcmpeq>
 80010c8:	bf0c      	ite	eq
 80010ca:	2001      	moveq	r0, #1
 80010cc:	2000      	movne	r0, #0
 80010ce:	f85d fb08 	ldr.w	pc, [sp], #8
 80010d2:	bf00      	nop

080010d4 <__aeabi_fcmplt>:
 80010d4:	f84d ed08 	str.w	lr, [sp, #-8]!
 80010d8:	f7ff ffea 	bl	80010b0 <__aeabi_cfcmpeq>
 80010dc:	bf34      	ite	cc
 80010de:	2001      	movcc	r0, #1
 80010e0:	2000      	movcs	r0, #0
 80010e2:	f85d fb08 	ldr.w	pc, [sp], #8
 80010e6:	bf00      	nop

080010e8 <__aeabi_fcmple>:
 80010e8:	f84d ed08 	str.w	lr, [sp, #-8]!
 80010ec:	f7ff ffe0 	bl	80010b0 <__aeabi_cfcmpeq>
 80010f0:	bf94      	ite	ls
 80010f2:	2001      	movls	r0, #1
 80010f4:	2000      	movhi	r0, #0
 80010f6:	f85d fb08 	ldr.w	pc, [sp], #8
 80010fa:	bf00      	nop

080010fc <__aeabi_fcmpge>:
 80010fc:	f84d ed08 	str.w	lr, [sp, #-8]!
 8001100:	f7ff ffd2 	bl	80010a8 <__aeabi_cfrcmple>
 8001104:	bf94      	ite	ls
 8001106:	2001      	movls	r0, #1
 8001108:	2000      	movhi	r0, #0
 800110a:	f85d fb08 	ldr.w	pc, [sp], #8
 800110e:	bf00      	nop

08001110 <__aeabi_fcmpgt>:
 8001110:	f84d ed08 	str.w	lr, [sp, #-8]!
 8001114:	f7ff ffc8 	bl	80010a8 <__aeabi_cfrcmple>
 8001118:	bf34      	ite	cc
 800111a:	2001      	movcc	r0, #1
 800111c:	2000      	movcs	r0, #0
 800111e:	f85d fb08 	ldr.w	pc, [sp], #8
 8001122:	bf00      	nop

08001124 <__aeabi_f2iz>:
 8001124:	ea4f 0240 	mov.w	r2, r0, lsl #1
 8001128:	f1b2 4ffe 	cmp.w	r2, #2130706432	; 0x7f000000
 800112c:	d30f      	bcc.n	800114e <__aeabi_f2iz+0x2a>
 800112e:	f04f 039e 	mov.w	r3, #158	; 0x9e
 8001132:	ebb3 6212 	subs.w	r2, r3, r2, lsr #24
 8001136:	d90d      	bls.n	8001154 <__aeabi_f2iz+0x30>
 8001138:	ea4f 2300 	mov.w	r3, r0, lsl #8
 800113c:	f043 4300 	orr.w	r3, r3, #2147483648	; 0x80000000
 8001140:	f010 4f00 	tst.w	r0, #2147483648	; 0x80000000
 8001144:	fa23 f002 	lsr.w	r0, r3, r2
 8001148:	bf18      	it	ne
 800114a:	4240      	negne	r0, r0
 800114c:	4770      	bx	lr
 800114e:	f04f 0000 	mov.w	r0, #0
 8001152:	4770      	bx	lr
 8001154:	f112 0f61 	cmn.w	r2, #97	; 0x61
 8001158:	d101      	bne.n	800115e <__aeabi_f2iz+0x3a>
 800115a:	0242      	lsls	r2, r0, #9
 800115c:	d105      	bne.n	800116a <__aeabi_f2iz+0x46>
 800115e:	f010 4000 	ands.w	r0, r0, #2147483648	; 0x80000000
 8001162:	bf08      	it	eq
 8001164:	f06f 4000 	mvneq.w	r0, #2147483648	; 0x80000000
 8001168:	4770      	bx	lr
 800116a:	f04f 0000 	mov.w	r0, #0
 800116e:	4770      	bx	lr

08001170 <__aeabi_f2uiz>:
 8001170:	0042      	lsls	r2, r0, #1
 8001172:	d20e      	bcs.n	8001192 <__aeabi_f2uiz+0x22>
 8001174:	f1b2 4ffe 	cmp.w	r2, #2130706432	; 0x7f000000
 8001178:	d30b      	bcc.n	8001192 <__aeabi_f2uiz+0x22>
 800117a:	f04f 039e 	mov.w	r3, #158	; 0x9e
 800117e:	ebb3 6212 	subs.w	r2, r3, r2, lsr #24
 8001182:	d409      	bmi.n	8001198 <__aeabi_f2uiz+0x28>
 8001184:	ea4f 2300 	mov.w	r3, r0, lsl #8
 8001188:	f043 4300 	orr.w	r3, r3, #2147483648	; 0x80000000
 800118c:	fa23 f002 	lsr.w	r0, r3, r2
 8001190:	4770      	bx	lr
 8001192:	f04f 0000 	mov.w	r0, #0
 8001196:	4770      	bx	lr
 8001198:	f112 0f61 	cmn.w	r2, #97	; 0x61
 800119c:	d101      	bne.n	80011a2 <__aeabi_f2uiz+0x32>
 800119e:	0242      	lsls	r2, r0, #9
 80011a0:	d102      	bne.n	80011a8 <__aeabi_f2uiz+0x38>
 80011a2:	f04f 30ff 	mov.w	r0, #4294967295
 80011a6:	4770      	bx	lr
 80011a8:	f04f 0000 	mov.w	r0, #0
 80011ac:	4770      	bx	lr
 80011ae:	bf00      	nop

080011b0 <BLDCInit>:
#include "bldc_driver.h"

//Set the instance variables. The pulse widths corresponding to minimum rpm and maximum rpm are required.
//It is assumed that the ESC operates at 50Hz. For any other frequency, we will need to update parameters
//as needed.
void BLDCInit(TIM_HandleTypeDef *bldc_htim, uint32_t bldc_channel, float min_rpm, float max_rpm){
 80011b0:	b5b0      	push	{r4, r5, r7, lr}
 80011b2:	b084      	sub	sp, #16
 80011b4:	af00      	add	r7, sp, #0
 80011b6:	60f8      	str	r0, [r7, #12]
 80011b8:	60b9      	str	r1, [r7, #8]
 80011ba:	607a      	str	r2, [r7, #4]
 80011bc:	603b      	str	r3, [r7, #0]
	assert_param(IS_TIM_CHANNELS(Channel));

	htim = *bldc_htim;
 80011be:	4a14      	ldr	r2, [pc, #80]	; (8001210 <BLDCInit+0x60>)
 80011c0:	68fb      	ldr	r3, [r7, #12]
 80011c2:	4614      	mov	r4, r2
 80011c4:	461d      	mov	r5, r3
 80011c6:	cd0f      	ldmia	r5!, {r0, r1, r2, r3}
 80011c8:	c40f      	stmia	r4!, {r0, r1, r2, r3}
 80011ca:	cd0f      	ldmia	r5!, {r0, r1, r2, r3}
 80011cc:	c40f      	stmia	r4!, {r0, r1, r2, r3}
 80011ce:	cd0f      	ldmia	r5!, {r0, r1, r2, r3}
 80011d0:	c40f      	stmia	r4!, {r0, r1, r2, r3}
 80011d2:	e895 000f 	ldmia.w	r5, {r0, r1, r2, r3}
 80011d6:	e884 000f 	stmia.w	r4, {r0, r1, r2, r3}
	channel = bldc_channel;
 80011da:	4a0e      	ldr	r2, [pc, #56]	; (8001214 <BLDCInit+0x64>)
 80011dc:	68bb      	ldr	r3, [r7, #8]
 80011de:	6013      	str	r3, [r2, #0]

	MaxRpm = (int)max_rpm*400;
 80011e0:	6838      	ldr	r0, [r7, #0]
 80011e2:	f7ff ff9f 	bl	8001124 <__aeabi_f2iz>
 80011e6:	4602      	mov	r2, r0
 80011e8:	f44f 73c8 	mov.w	r3, #400	; 0x190
 80011ec:	fb03 f302 	mul.w	r3, r3, r2
 80011f0:	4a09      	ldr	r2, [pc, #36]	; (8001218 <BLDCInit+0x68>)
 80011f2:	6013      	str	r3, [r2, #0]
	MinRpm = (int)min_rpm*400;
 80011f4:	6878      	ldr	r0, [r7, #4]
 80011f6:	f7ff ff95 	bl	8001124 <__aeabi_f2iz>
 80011fa:	4602      	mov	r2, r0
 80011fc:	f44f 73c8 	mov.w	r3, #400	; 0x190
 8001200:	fb03 f302 	mul.w	r3, r3, r2
 8001204:	4a05      	ldr	r2, [pc, #20]	; (800121c <BLDCInit+0x6c>)
 8001206:	6013      	str	r3, [r2, #0]
}
 8001208:	bf00      	nop
 800120a:	3710      	adds	r7, #16
 800120c:	46bd      	mov	sp, r7
 800120e:	bdb0      	pop	{r4, r5, r7, pc}
 8001210:	20000678 	.word	0x20000678
 8001214:	20000670 	.word	0x20000670
 8001218:	20000674 	.word	0x20000674
 800121c:	2000066c 	.word	0x2000066c

08001220 <BLDCStart>:

//Start PWM and turn on the BLDC
HAL_StatusTypeDef BLDCStart(void){
 8001220:	b580      	push	{r7, lr}
 8001222:	af00      	add	r7, sp, #0
	return HAL_TIM_PWM_Start(&htim,channel);
 8001224:	4b04      	ldr	r3, [pc, #16]	; (8001238 <BLDCStart+0x18>)
 8001226:	681b      	ldr	r3, [r3, #0]
 8001228:	4619      	mov	r1, r3
 800122a:	4804      	ldr	r0, [pc, #16]	; (800123c <BLDCStart+0x1c>)
 800122c:	f003 fc3c 	bl	8004aa8 <HAL_TIM_PWM_Start>
 8001230:	4603      	mov	r3, r0
}
 8001232:	4618      	mov	r0, r3
 8001234:	bd80      	pop	{r7, pc}
 8001236:	bf00      	nop
 8001238:	20000670 	.word	0x20000670
 800123c:	20000678 	.word	0x20000678

08001240 <BLDCStop>:

//Stop the PWM.
HAL_StatusTypeDef BLDCStop(void){
 8001240:	b580      	push	{r7, lr}
 8001242:	af00      	add	r7, sp, #0
	return HAL_TIM_PWM_Stop(&htim,channel);
 8001244:	4b04      	ldr	r3, [pc, #16]	; (8001258 <BLDCStop+0x18>)
 8001246:	681b      	ldr	r3, [r3, #0]
 8001248:	4619      	mov	r1, r3
 800124a:	4804      	ldr	r0, [pc, #16]	; (800125c <BLDCStop+0x1c>)
 800124c:	f003 fc5e 	bl	8004b0c <HAL_TIM_PWM_Stop>
 8001250:	4603      	mov	r3, r0
}
 8001252:	4618      	mov	r0, r3
 8001254:	bd80      	pop	{r7, pc}
 8001256:	bf00      	nop
 8001258:	20000670 	.word	0x20000670
 800125c:	20000678 	.word	0x20000678

08001260 <BLDCSet>:

//Set duty-cycle in %. 0% duty-cycle corresponds to minimum rpm.
void BLDCSet(float dutycycle){
 8001260:	b5b0      	push	{r4, r5, r7, lr}
 8001262:	b084      	sub	sp, #16
 8001264:	af00      	add	r7, sp, #0
 8001266:	6078      	str	r0, [r7, #4]
	uint32_t compare;

	//Make sure that the duty-cycle is within 0 to 100 range
	if (dutycycle < 0) {dutycycle=0;}
 8001268:	f04f 0100 	mov.w	r1, #0
 800126c:	6878      	ldr	r0, [r7, #4]
 800126e:	f7ff ff31 	bl	80010d4 <__aeabi_fcmplt>
 8001272:	4603      	mov	r3, r0
 8001274:	2b00      	cmp	r3, #0
 8001276:	d003      	beq.n	8001280 <BLDCSet+0x20>
 8001278:	f04f 0300 	mov.w	r3, #0
 800127c:	607b      	str	r3, [r7, #4]
 800127e:	e008      	b.n	8001292 <BLDCSet+0x32>
	else if (dutycycle > 100) {dutycycle=100;}
 8001280:	4927      	ldr	r1, [pc, #156]	; (8001320 <BLDCSet+0xc0>)
 8001282:	6878      	ldr	r0, [r7, #4]
 8001284:	f7ff ff44 	bl	8001110 <__aeabi_fcmpgt>
 8001288:	4603      	mov	r3, r0
 800128a:	2b00      	cmp	r3, #0
 800128c:	d001      	beq.n	8001292 <BLDCSet+0x32>
 800128e:	4b24      	ldr	r3, [pc, #144]	; (8001320 <BLDCSet+0xc0>)
 8001290:	607b      	str	r3, [r7, #4]

	//Calculate the value of compare register of the timer.
	compare = (uint32_t)(MinRpm + (dutycycle/100)*(MaxRpm-MinRpm));
 8001292:	4b24      	ldr	r3, [pc, #144]	; (8001324 <BLDCSet+0xc4>)
 8001294:	681b      	ldr	r3, [r3, #0]
 8001296:	4618      	mov	r0, r3
 8001298:	f7ff fd2a 	bl	8000cf0 <__aeabi_i2f>
 800129c:	4604      	mov	r4, r0
 800129e:	4920      	ldr	r1, [pc, #128]	; (8001320 <BLDCSet+0xc0>)
 80012a0:	6878      	ldr	r0, [r7, #4]
 80012a2:	f7ff fe2d 	bl	8000f00 <__aeabi_fdiv>
 80012a6:	4603      	mov	r3, r0
 80012a8:	461d      	mov	r5, r3
 80012aa:	4b1f      	ldr	r3, [pc, #124]	; (8001328 <BLDCSet+0xc8>)
 80012ac:	681a      	ldr	r2, [r3, #0]
 80012ae:	4b1d      	ldr	r3, [pc, #116]	; (8001324 <BLDCSet+0xc4>)
 80012b0:	681b      	ldr	r3, [r3, #0]
 80012b2:	1ad3      	subs	r3, r2, r3
 80012b4:	4618      	mov	r0, r3
 80012b6:	f7ff fd1b 	bl	8000cf0 <__aeabi_i2f>
 80012ba:	4603      	mov	r3, r0
 80012bc:	4619      	mov	r1, r3
 80012be:	4628      	mov	r0, r5
 80012c0:	f7ff fd6a 	bl	8000d98 <__aeabi_fmul>
 80012c4:	4603      	mov	r3, r0
 80012c6:	4619      	mov	r1, r3
 80012c8:	4620      	mov	r0, r4
 80012ca:	f7ff fc5d 	bl	8000b88 <__addsf3>
 80012ce:	4603      	mov	r3, r0
 80012d0:	4618      	mov	r0, r3
 80012d2:	f7ff ff4d 	bl	8001170 <__aeabi_f2uiz>
 80012d6:	4603      	mov	r3, r0
 80012d8:	60fb      	str	r3, [r7, #12]
	__HAL_TIM_SET_COMPARE(&htim,channel,compare);
 80012da:	4b14      	ldr	r3, [pc, #80]	; (800132c <BLDCSet+0xcc>)
 80012dc:	681b      	ldr	r3, [r3, #0]
 80012de:	2b00      	cmp	r3, #0
 80012e0:	d104      	bne.n	80012ec <BLDCSet+0x8c>
 80012e2:	4b13      	ldr	r3, [pc, #76]	; (8001330 <BLDCSet+0xd0>)
 80012e4:	681b      	ldr	r3, [r3, #0]
 80012e6:	68fa      	ldr	r2, [r7, #12]
 80012e8:	635a      	str	r2, [r3, #52]	; 0x34
}
 80012ea:	e015      	b.n	8001318 <BLDCSet+0xb8>
	__HAL_TIM_SET_COMPARE(&htim,channel,compare);
 80012ec:	4b0f      	ldr	r3, [pc, #60]	; (800132c <BLDCSet+0xcc>)
 80012ee:	681b      	ldr	r3, [r3, #0]
 80012f0:	2b04      	cmp	r3, #4
 80012f2:	d104      	bne.n	80012fe <BLDCSet+0x9e>
 80012f4:	4b0e      	ldr	r3, [pc, #56]	; (8001330 <BLDCSet+0xd0>)
 80012f6:	681b      	ldr	r3, [r3, #0]
 80012f8:	68fa      	ldr	r2, [r7, #12]
 80012fa:	639a      	str	r2, [r3, #56]	; 0x38
}
 80012fc:	e00c      	b.n	8001318 <BLDCSet+0xb8>
	__HAL_TIM_SET_COMPARE(&htim,channel,compare);
 80012fe:	4b0b      	ldr	r3, [pc, #44]	; (800132c <BLDCSet+0xcc>)
 8001300:	681b      	ldr	r3, [r3, #0]
 8001302:	2b08      	cmp	r3, #8
 8001304:	d104      	bne.n	8001310 <BLDCSet+0xb0>
 8001306:	4b0a      	ldr	r3, [pc, #40]	; (8001330 <BLDCSet+0xd0>)
 8001308:	681b      	ldr	r3, [r3, #0]
 800130a:	68fa      	ldr	r2, [r7, #12]
 800130c:	63da      	str	r2, [r3, #60]	; 0x3c
}
 800130e:	e003      	b.n	8001318 <BLDCSet+0xb8>
	__HAL_TIM_SET_COMPARE(&htim,channel,compare);
 8001310:	4b07      	ldr	r3, [pc, #28]	; (8001330 <BLDCSet+0xd0>)
 8001312:	681b      	ldr	r3, [r3, #0]
 8001314:	68fa      	ldr	r2, [r7, #12]
 8001316:	641a      	str	r2, [r3, #64]	; 0x40
}
 8001318:	bf00      	nop
 800131a:	3710      	adds	r7, #16
 800131c:	46bd      	mov	sp, r7
 800131e:	bdb0      	pop	{r4, r5, r7, pc}
 8001320:	42c80000 	.word	0x42c80000
 8001324:	2000066c 	.word	0x2000066c
 8001328:	20000674 	.word	0x20000674
 800132c:	20000670 	.word	0x20000670
 8001330:	20000678 	.word	0x20000678

08001334 <PS_Init>:
*/

#include "ps_driver.h"

//Runs the startup sequence on all sensors.
void PS_Init(void){
 8001334:	b580      	push	{r7, lr}
 8001336:	af00      	add	r7, sp, #0
	HAL_GPIO_WritePin(PS1_port, PS1_pin, GPIO_PIN_RESET);
 8001338:	2200      	movs	r2, #0
 800133a:	f44f 5180 	mov.w	r1, #4096	; 0x1000
 800133e:	482c      	ldr	r0, [pc, #176]	; (80013f0 <PS_Init+0xbc>)
 8001340:	f001 fd2f 	bl	8002da2 <HAL_GPIO_WritePin>
	HAL_Delay(5);
 8001344:	2005      	movs	r0, #5
 8001346:	f001 fa15 	bl	8002774 <HAL_Delay>
	HAL_GPIO_WritePin(PS1_port, PS1_pin, GPIO_PIN_SET);
 800134a:	2201      	movs	r2, #1
 800134c:	f44f 5180 	mov.w	r1, #4096	; 0x1000
 8001350:	4827      	ldr	r0, [pc, #156]	; (80013f0 <PS_Init+0xbc>)
 8001352:	f001 fd26 	bl	8002da2 <HAL_GPIO_WritePin>
	HAL_Delay(5);
 8001356:	2005      	movs	r0, #5
 8001358:	f001 fa0c 	bl	8002774 <HAL_Delay>
	HAL_GPIO_WritePin(PS2_port, PS2_pin, GPIO_PIN_RESET);
 800135c:	2200      	movs	r2, #0
 800135e:	f44f 7180 	mov.w	r1, #256	; 0x100
 8001362:	4824      	ldr	r0, [pc, #144]	; (80013f4 <PS_Init+0xc0>)
 8001364:	f001 fd1d 	bl	8002da2 <HAL_GPIO_WritePin>
	HAL_Delay(5);
 8001368:	2005      	movs	r0, #5
 800136a:	f001 fa03 	bl	8002774 <HAL_Delay>
	HAL_GPIO_WritePin(PS2_port, PS2_pin, GPIO_PIN_SET);
 800136e:	2201      	movs	r2, #1
 8001370:	f44f 7180 	mov.w	r1, #256	; 0x100
 8001374:	481f      	ldr	r0, [pc, #124]	; (80013f4 <PS_Init+0xc0>)
 8001376:	f001 fd14 	bl	8002da2 <HAL_GPIO_WritePin>
	HAL_Delay(5);
 800137a:	2005      	movs	r0, #5
 800137c:	f001 f9fa 	bl	8002774 <HAL_Delay>
	HAL_GPIO_WritePin(PS3_port, PS3_pin, GPIO_PIN_RESET);
 8001380:	2200      	movs	r2, #0
 8001382:	f44f 4100 	mov.w	r1, #32768	; 0x8000
 8001386:	481c      	ldr	r0, [pc, #112]	; (80013f8 <PS_Init+0xc4>)
 8001388:	f001 fd0b 	bl	8002da2 <HAL_GPIO_WritePin>
	HAL_Delay(5);
 800138c:	2005      	movs	r0, #5
 800138e:	f001 f9f1 	bl	8002774 <HAL_Delay>
	HAL_GPIO_WritePin(PS3_port, PS3_pin, GPIO_PIN_SET);
 8001392:	2201      	movs	r2, #1
 8001394:	f44f 4100 	mov.w	r1, #32768	; 0x8000
 8001398:	4817      	ldr	r0, [pc, #92]	; (80013f8 <PS_Init+0xc4>)
 800139a:	f001 fd02 	bl	8002da2 <HAL_GPIO_WritePin>
	HAL_Delay(5);
 800139e:	2005      	movs	r0, #5
 80013a0:	f001 f9e8 	bl	8002774 <HAL_Delay>
	HAL_GPIO_WritePin(PS4_port, PS4_pin, GPIO_PIN_RESET);
 80013a4:	2200      	movs	r2, #0
 80013a6:	f44f 4180 	mov.w	r1, #16384	; 0x4000
 80013aa:	4813      	ldr	r0, [pc, #76]	; (80013f8 <PS_Init+0xc4>)
 80013ac:	f001 fcf9 	bl	8002da2 <HAL_GPIO_WritePin>
	HAL_Delay(5);
 80013b0:	2005      	movs	r0, #5
 80013b2:	f001 f9df 	bl	8002774 <HAL_Delay>
	HAL_GPIO_WritePin(PS4_port, PS4_pin, GPIO_PIN_SET);
 80013b6:	2201      	movs	r2, #1
 80013b8:	f44f 4180 	mov.w	r1, #16384	; 0x4000
 80013bc:	480e      	ldr	r0, [pc, #56]	; (80013f8 <PS_Init+0xc4>)
 80013be:	f001 fcf0 	bl	8002da2 <HAL_GPIO_WritePin>
	HAL_Delay(5);
 80013c2:	2005      	movs	r0, #5
 80013c4:	f001 f9d6 	bl	8002774 <HAL_Delay>
	HAL_GPIO_WritePin(PS5_port, PS5_pin, GPIO_PIN_RESET);
 80013c8:	2200      	movs	r2, #0
 80013ca:	f44f 5100 	mov.w	r1, #8192	; 0x2000
 80013ce:	480a      	ldr	r0, [pc, #40]	; (80013f8 <PS_Init+0xc4>)
 80013d0:	f001 fce7 	bl	8002da2 <HAL_GPIO_WritePin>
	HAL_Delay(5);
 80013d4:	2005      	movs	r0, #5
 80013d6:	f001 f9cd 	bl	8002774 <HAL_Delay>
	HAL_GPIO_WritePin(PS5_port, PS5_pin, GPIO_PIN_SET);
 80013da:	2201      	movs	r2, #1
 80013dc:	f44f 5100 	mov.w	r1, #8192	; 0x2000
 80013e0:	4805      	ldr	r0, [pc, #20]	; (80013f8 <PS_Init+0xc4>)
 80013e2:	f001 fcde 	bl	8002da2 <HAL_GPIO_WritePin>
	HAL_Delay(5);
 80013e6:	2005      	movs	r0, #5
 80013e8:	f001 f9c4 	bl	8002774 <HAL_Delay>
}
 80013ec:	bf00      	nop
 80013ee:	bd80      	pop	{r7, pc}
 80013f0:	40010c00 	.word	0x40010c00
 80013f4:	40010800 	.word	0x40010800
 80013f8:	40011000 	.word	0x40011000

080013fc <PS_ChipSelect_Set>:

//Turn off the CS on a particular sensor
void PS_ChipSelect_Set(uint8_t sensor){
 80013fc:	b580      	push	{r7, lr}
 80013fe:	b082      	sub	sp, #8
 8001400:	af00      	add	r7, sp, #0
 8001402:	4603      	mov	r3, r0
 8001404:	71fb      	strb	r3, [r7, #7]
		if (sensor == 1) {HAL_GPIO_WritePin(PS1_port, PS1_pin, GPIO_PIN_SET);} 
 8001406:	79fb      	ldrb	r3, [r7, #7]
 8001408:	2b01      	cmp	r3, #1
 800140a:	d106      	bne.n	800141a <PS_ChipSelect_Set+0x1e>
 800140c:	2201      	movs	r2, #1
 800140e:	f44f 5180 	mov.w	r1, #4096	; 0x1000
 8001412:	4816      	ldr	r0, [pc, #88]	; (800146c <PS_ChipSelect_Set+0x70>)
 8001414:	f001 fcc5 	bl	8002da2 <HAL_GPIO_WritePin>
		else if (sensor == 2) {HAL_GPIO_WritePin(PS2_port, PS2_pin, GPIO_PIN_SET);}
		else if (sensor == 3) {HAL_GPIO_WritePin(PS3_port, PS3_pin, GPIO_PIN_SET);}
		else if (sensor == 4) {HAL_GPIO_WritePin(PS4_port, PS4_pin, GPIO_PIN_SET);}
		else {HAL_GPIO_WritePin(PS5_port, PS5_pin, GPIO_PIN_SET);}
}
 8001418:	e023      	b.n	8001462 <PS_ChipSelect_Set+0x66>
		else if (sensor == 2) {HAL_GPIO_WritePin(PS2_port, PS2_pin, GPIO_PIN_SET);}
 800141a:	79fb      	ldrb	r3, [r7, #7]
 800141c:	2b02      	cmp	r3, #2
 800141e:	d106      	bne.n	800142e <PS_ChipSelect_Set+0x32>
 8001420:	2201      	movs	r2, #1
 8001422:	f44f 7180 	mov.w	r1, #256	; 0x100
 8001426:	4812      	ldr	r0, [pc, #72]	; (8001470 <PS_ChipSelect_Set+0x74>)
 8001428:	f001 fcbb 	bl	8002da2 <HAL_GPIO_WritePin>
}
 800142c:	e019      	b.n	8001462 <PS_ChipSelect_Set+0x66>
		else if (sensor == 3) {HAL_GPIO_WritePin(PS3_port, PS3_pin, GPIO_PIN_SET);}
 800142e:	79fb      	ldrb	r3, [r7, #7]
 8001430:	2b03      	cmp	r3, #3
 8001432:	d106      	bne.n	8001442 <PS_ChipSelect_Set+0x46>
 8001434:	2201      	movs	r2, #1
 8001436:	f44f 4100 	mov.w	r1, #32768	; 0x8000
 800143a:	480e      	ldr	r0, [pc, #56]	; (8001474 <PS_ChipSelect_Set+0x78>)
 800143c:	f001 fcb1 	bl	8002da2 <HAL_GPIO_WritePin>
}
 8001440:	e00f      	b.n	8001462 <PS_ChipSelect_Set+0x66>
		else if (sensor == 4) {HAL_GPIO_WritePin(PS4_port, PS4_pin, GPIO_PIN_SET);}
 8001442:	79fb      	ldrb	r3, [r7, #7]
 8001444:	2b04      	cmp	r3, #4
 8001446:	d106      	bne.n	8001456 <PS_ChipSelect_Set+0x5a>
 8001448:	2201      	movs	r2, #1
 800144a:	f44f 4180 	mov.w	r1, #16384	; 0x4000
 800144e:	4809      	ldr	r0, [pc, #36]	; (8001474 <PS_ChipSelect_Set+0x78>)
 8001450:	f001 fca7 	bl	8002da2 <HAL_GPIO_WritePin>
}
 8001454:	e005      	b.n	8001462 <PS_ChipSelect_Set+0x66>
		else {HAL_GPIO_WritePin(PS5_port, PS5_pin, GPIO_PIN_SET);}
 8001456:	2201      	movs	r2, #1
 8001458:	f44f 5100 	mov.w	r1, #8192	; 0x2000
 800145c:	4805      	ldr	r0, [pc, #20]	; (8001474 <PS_ChipSelect_Set+0x78>)
 800145e:	f001 fca0 	bl	8002da2 <HAL_GPIO_WritePin>
}
 8001462:	bf00      	nop
 8001464:	3708      	adds	r7, #8
 8001466:	46bd      	mov	sp, r7
 8001468:	bd80      	pop	{r7, pc}
 800146a:	bf00      	nop
 800146c:	40010c00 	.word	0x40010c00
 8001470:	40010800 	.word	0x40010800
 8001474:	40011000 	.word	0x40011000

08001478 <PS_ChipSelect_Reset>:

//Turn on the CS on a particular sensor.
void PS_ChipSelect_Reset(uint8_t sensor){
 8001478:	b580      	push	{r7, lr}
 800147a:	b082      	sub	sp, #8
 800147c:	af00      	add	r7, sp, #0
 800147e:	4603      	mov	r3, r0
 8001480:	71fb      	strb	r3, [r7, #7]
		if (sensor == 1) {HAL_GPIO_WritePin(PS1_port, PS1_pin, GPIO_PIN_RESET);} 
 8001482:	79fb      	ldrb	r3, [r7, #7]
 8001484:	2b01      	cmp	r3, #1
 8001486:	d106      	bne.n	8001496 <PS_ChipSelect_Reset+0x1e>
 8001488:	2200      	movs	r2, #0
 800148a:	f44f 5180 	mov.w	r1, #4096	; 0x1000
 800148e:	4816      	ldr	r0, [pc, #88]	; (80014e8 <PS_ChipSelect_Reset+0x70>)
 8001490:	f001 fc87 	bl	8002da2 <HAL_GPIO_WritePin>
		else if (sensor == 2) {HAL_GPIO_WritePin(PS2_port, PS2_pin, GPIO_PIN_RESET);}
		else if (sensor == 3) {HAL_GPIO_WritePin(PS3_port, PS3_pin, GPIO_PIN_RESET);}
		else if (sensor == 4) {HAL_GPIO_WritePin(PS4_port, PS4_pin, GPIO_PIN_RESET);}
		else {HAL_GPIO_WritePin(PS5_port, PS5_pin, GPIO_PIN_RESET);}
}
 8001494:	e023      	b.n	80014de <PS_ChipSelect_Reset+0x66>
		else if (sensor == 2) {HAL_GPIO_WritePin(PS2_port, PS2_pin, GPIO_PIN_RESET);}
 8001496:	79fb      	ldrb	r3, [r7, #7]
 8001498:	2b02      	cmp	r3, #2
 800149a:	d106      	bne.n	80014aa <PS_ChipSelect_Reset+0x32>
 800149c:	2200      	movs	r2, #0
 800149e:	f44f 7180 	mov.w	r1, #256	; 0x100
 80014a2:	4812      	ldr	r0, [pc, #72]	; (80014ec <PS_ChipSelect_Reset+0x74>)
 80014a4:	f001 fc7d 	bl	8002da2 <HAL_GPIO_WritePin>
}
 80014a8:	e019      	b.n	80014de <PS_ChipSelect_Reset+0x66>
		else if (sensor == 3) {HAL_GPIO_WritePin(PS3_port, PS3_pin, GPIO_PIN_RESET);}
 80014aa:	79fb      	ldrb	r3, [r7, #7]
 80014ac:	2b03      	cmp	r3, #3
 80014ae:	d106      	bne.n	80014be <PS_ChipSelect_Reset+0x46>
 80014b0:	2200      	movs	r2, #0
 80014b2:	f44f 4100 	mov.w	r1, #32768	; 0x8000
 80014b6:	480e      	ldr	r0, [pc, #56]	; (80014f0 <PS_ChipSelect_Reset+0x78>)
 80014b8:	f001 fc73 	bl	8002da2 <HAL_GPIO_WritePin>
}
 80014bc:	e00f      	b.n	80014de <PS_ChipSelect_Reset+0x66>
		else if (sensor == 4) {HAL_GPIO_WritePin(PS4_port, PS4_pin, GPIO_PIN_RESET);}
 80014be:	79fb      	ldrb	r3, [r7, #7]
 80014c0:	2b04      	cmp	r3, #4
 80014c2:	d106      	bne.n	80014d2 <PS_ChipSelect_Reset+0x5a>
 80014c4:	2200      	movs	r2, #0
 80014c6:	f44f 4180 	mov.w	r1, #16384	; 0x4000
 80014ca:	4809      	ldr	r0, [pc, #36]	; (80014f0 <PS_ChipSelect_Reset+0x78>)
 80014cc:	f001 fc69 	bl	8002da2 <HAL_GPIO_WritePin>
}
 80014d0:	e005      	b.n	80014de <PS_ChipSelect_Reset+0x66>
		else {HAL_GPIO_WritePin(PS5_port, PS5_pin, GPIO_PIN_RESET);}
 80014d2:	2200      	movs	r2, #0
 80014d4:	f44f 5100 	mov.w	r1, #8192	; 0x2000
 80014d8:	4805      	ldr	r0, [pc, #20]	; (80014f0 <PS_ChipSelect_Reset+0x78>)
 80014da:	f001 fc62 	bl	8002da2 <HAL_GPIO_WritePin>
}
 80014de:	bf00      	nop
 80014e0:	3708      	adds	r7, #8
 80014e2:	46bd      	mov	sp, r7
 80014e4:	bd80      	pop	{r7, pc}
 80014e6:	bf00      	nop
 80014e8:	40010c00 	.word	0x40010c00
 80014ec:	40010800 	.word	0x40010800
 80014f0:	40011000 	.word	0x40011000

080014f4 <ReadPressure>:

//Read the requested sensor, covert raw value to PSI and return.
float ReadPressure(uint8_t sensor){
 80014f4:	b580      	push	{r7, lr}
 80014f6:	b088      	sub	sp, #32
 80014f8:	af02      	add	r7, sp, #8
 80014fa:	4603      	mov	r3, r0
 80014fc:	71fb      	strb	r3, [r7, #7]

	uint8_t TxData[4] = {0, 0, 0, 0};
 80014fe:	2300      	movs	r3, #0
 8001500:	613b      	str	r3, [r7, #16]
 	uint8_t RxData[4] = {0, 0, 0, 0};
 8001502:	2300      	movs	r3, #0
 8001504:	60fb      	str	r3, [r7, #12]
 	uint32_t Output = 0;
 8001506:	2300      	movs	r3, #0
 8001508:	617b      	str	r3, [r7, #20]
	
	//step 1
	TxData[0] = 0xAA;
 800150a:	23aa      	movs	r3, #170	; 0xaa
 800150c:	743b      	strb	r3, [r7, #16]
	PS_ChipSelect_Reset(sensor);
 800150e:	79fb      	ldrb	r3, [r7, #7]
 8001510:	4618      	mov	r0, r3
 8001512:	f7ff ffb1 	bl	8001478 <PS_ChipSelect_Reset>
	HAL_Delay(5);
 8001516:	2005      	movs	r0, #5
 8001518:	f001 f92c 	bl	8002774 <HAL_Delay>
	//HAL_GPIO_WritePin(GPIOB, GPIO_PIN_12, GPIO_PIN_RESET);
	HAL_SPI_TransmitReceive(&hspi2, &TxData, &RxData, 3, HAL_TIMEOUT);
 800151c:	f107 020c 	add.w	r2, r7, #12
 8001520:	f107 0110 	add.w	r1, r7, #16
 8001524:	2303      	movs	r3, #3
 8001526:	9300      	str	r3, [sp, #0]
 8001528:	2303      	movs	r3, #3
 800152a:	4820      	ldr	r0, [pc, #128]	; (80015ac <ReadPressure+0xb8>)
 800152c:	f003 f867 	bl	80045fe <HAL_SPI_TransmitReceive>
	PS_ChipSelect_Set(sensor);
 8001530:	79fb      	ldrb	r3, [r7, #7]
 8001532:	4618      	mov	r0, r3
 8001534:	f7ff ff62 	bl	80013fc <PS_ChipSelect_Set>
	//HAL_GPIO_WritePin(GPIOB, GPIO_PIN  _12, GPIO_PIN_SET);

	//step2
	HAL_Delay(5);
 8001538:	2005      	movs	r0, #5
 800153a:	f001 f91b 	bl	8002774 <HAL_Delay>


	//step 3
	TxData[0] = 0xF0;
 800153e:	23f0      	movs	r3, #240	; 0xf0
 8001540:	743b      	strb	r3, [r7, #16]
	PS_ChipSelect_Reset(sensor);
 8001542:	79fb      	ldrb	r3, [r7, #7]
 8001544:	4618      	mov	r0, r3
 8001546:	f7ff ff97 	bl	8001478 <PS_ChipSelect_Reset>
	HAL_Delay(5);
 800154a:	2005      	movs	r0, #5
 800154c:	f001 f912 	bl	8002774 <HAL_Delay>
	//HAL_GPIO_WritePin(GPIOB, GPIO_PIN_12, GPIO_PIN_RESET);
	HAL_SPI_TransmitReceive(&hspi2, &TxData, &RxData, 4, HAL_TIMEOUT);
 8001550:	f107 020c 	add.w	r2, r7, #12
 8001554:	f107 0110 	add.w	r1, r7, #16
 8001558:	2303      	movs	r3, #3
 800155a:	9300      	str	r3, [sp, #0]
 800155c:	2304      	movs	r3, #4
 800155e:	4813      	ldr	r0, [pc, #76]	; (80015ac <ReadPressure+0xb8>)
 8001560:	f003 f84d 	bl	80045fe <HAL_SPI_TransmitReceive>
	PS_ChipSelect_Set(sensor);
 8001564:	79fb      	ldrb	r3, [r7, #7]
 8001566:	4618      	mov	r0, r3
 8001568:	f7ff ff48 	bl	80013fc <PS_ChipSelect_Set>
	//HAL_GPIO_WritePin(GPIOB, GPIO_PIN_12, GPIO_PIN_SET);
	Output = RxData[1]<<16 | RxData[2]<<8 | RxData[3];
 800156c:	7b7b      	ldrb	r3, [r7, #13]
 800156e:	041a      	lsls	r2, r3, #16
 8001570:	7bbb      	ldrb	r3, [r7, #14]
 8001572:	021b      	lsls	r3, r3, #8
 8001574:	4313      	orrs	r3, r2
 8001576:	7bfa      	ldrb	r2, [r7, #15]
 8001578:	4313      	orrs	r3, r2
 800157a:	617b      	str	r3, [r7, #20]
	return (((float)Output - 1677722)*15 )/(15099494 - 1677722);
 800157c:	6978      	ldr	r0, [r7, #20]
 800157e:	f7ff fbb3 	bl	8000ce8 <__aeabi_ui2f>
 8001582:	4603      	mov	r3, r0
 8001584:	490a      	ldr	r1, [pc, #40]	; (80015b0 <ReadPressure+0xbc>)
 8001586:	4618      	mov	r0, r3
 8001588:	f7ff fafc 	bl	8000b84 <__aeabi_fsub>
 800158c:	4603      	mov	r3, r0
 800158e:	4909      	ldr	r1, [pc, #36]	; (80015b4 <ReadPressure+0xc0>)
 8001590:	4618      	mov	r0, r3
 8001592:	f7ff fc01 	bl	8000d98 <__aeabi_fmul>
 8001596:	4603      	mov	r3, r0
 8001598:	4907      	ldr	r1, [pc, #28]	; (80015b8 <ReadPressure+0xc4>)
 800159a:	4618      	mov	r0, r3
 800159c:	f7ff fcb0 	bl	8000f00 <__aeabi_fdiv>
 80015a0:	4603      	mov	r3, r0
}
 80015a2:	4618      	mov	r0, r3
 80015a4:	3718      	adds	r7, #24
 80015a6:	46bd      	mov	sp, r7
 80015a8:	bd80      	pop	{r7, pc}
 80015aa:	bf00      	nop
 80015ac:	200006b8 	.word	0x200006b8
 80015b0:	49ccccd0 	.word	0x49ccccd0
 80015b4:	41700000 	.word	0x41700000
 80015b8:	4b4ccccc 	.word	0x4b4ccccc

080015bc <main>:
/**
  * @brief  The application entry point.
  * @retval int
  */
int main(void)
{
 80015bc:	b580      	push	{r7, lr}
 80015be:	af00      	add	r7, sp, #0
  /* USER CODE END 1 */

  /* MCU Configuration--------------------------------------------------------*/

  /* Reset of all peripherals, Initializes the Flash interface and the Systick. */
  HAL_Init();
 80015c0:	f001 f876 	bl	80026b0 <HAL_Init>
  /* USER CODE BEGIN Init */

  /* USER CODE END Init */

  /* Configure the system clock */
  SystemClock_Config();
 80015c4:	f000 f964 	bl	8001890 <SystemClock_Config>
  /* USER CODE BEGIN SysInit */

  /* USER CODE END SysInit */

  /* Initialize all configured peripherals */
  MX_GPIO_Init();
 80015c8:	f000 fa78 	bl	8001abc <MX_GPIO_Init>
  MX_SPI2_Init();
 80015cc:	f000 f9bc 	bl	8001948 <MX_SPI2_Init>
  MX_TIM3_Init();
 80015d0:	f000 f9f0 	bl	80019b4 <MX_TIM3_Init>
  MX_USART1_UART_Init();
 80015d4:	f000 fa48 	bl	8001a68 <MX_USART1_UART_Init>
  MX_USB_DEVICE_Init();
 80015d8:	f006 ff3e 	bl	8008458 <MX_USB_DEVICE_Init>
  /* USER CODE BEGIN 2 */

  //Init BLDC with timer instance, channel, and pulse width corresponding
  //to minimum rpm and maximum rpm, respectively. ESC frequency at 50Hz.
  BLDCInit(&htim3,TIM_CHANNEL_4,1,2);
 80015dc:	f04f 4380 	mov.w	r3, #1073741824	; 0x40000000
 80015e0:	f04f 527e 	mov.w	r2, #1065353216	; 0x3f800000
 80015e4:	210c      	movs	r1, #12
 80015e6:	4890      	ldr	r0, [pc, #576]	; (8001828 <main+0x26c>)
 80015e8:	f7ff fde2 	bl	80011b0 <BLDCInit>

  //Init Stepper motor with 'step-size' and 'maximum-angle' allowed
  SMInit(1.8,180.0);
 80015ec:	498f      	ldr	r1, [pc, #572]	; (800182c <main+0x270>)
 80015ee:	4890      	ldr	r0, [pc, #576]	; (8001830 <main+0x274>)
 80015f0:	f000 fef0 	bl	80023d4 <SMInit>

  //Run the Startup sequence on all Pressure sensors.
  PS_Init();
 80015f4:	f7ff fe9e 	bl	8001334 <PS_Init>

  //Make the Bluetooth ready to receive in Interrupt mode.
  BL_Receive();
 80015f8:	f001 f80e 	bl	8002618 <BL_Receive>
  /* USER CODE BEGIN WHILE */

  while (1)
  {
	  //Read Pressure Sensor Values
	  PressureOut1 = ReadPressure(1);
 80015fc:	2001      	movs	r0, #1
 80015fe:	f7ff ff79 	bl	80014f4 <ReadPressure>
 8001602:	4602      	mov	r2, r0
 8001604:	4b8b      	ldr	r3, [pc, #556]	; (8001834 <main+0x278>)
 8001606:	601a      	str	r2, [r3, #0]
	  HAL_Delay(10);
 8001608:	200a      	movs	r0, #10
 800160a:	f001 f8b3 	bl	8002774 <HAL_Delay>
	  PressureOut2 = ReadPressure(2);
 800160e:	2002      	movs	r0, #2
 8001610:	f7ff ff70 	bl	80014f4 <ReadPressure>
 8001614:	4602      	mov	r2, r0
 8001616:	4b88      	ldr	r3, [pc, #544]	; (8001838 <main+0x27c>)
 8001618:	601a      	str	r2, [r3, #0]
	  HAL_Delay(10);
 800161a:	200a      	movs	r0, #10
 800161c:	f001 f8aa 	bl	8002774 <HAL_Delay>
	  PressureOut3 = ReadPressure(3);
 8001620:	2003      	movs	r0, #3
 8001622:	f7ff ff67 	bl	80014f4 <ReadPressure>
 8001626:	4602      	mov	r2, r0
 8001628:	4b84      	ldr	r3, [pc, #528]	; (800183c <main+0x280>)
 800162a:	601a      	str	r2, [r3, #0]
	  HAL_Delay(10);
 800162c:	200a      	movs	r0, #10
 800162e:	f001 f8a1 	bl	8002774 <HAL_Delay>
	  PressureOut4 = ReadPressure(4);
 8001632:	2004      	movs	r0, #4
 8001634:	f7ff ff5e 	bl	80014f4 <ReadPressure>
 8001638:	4602      	mov	r2, r0
 800163a:	4b81      	ldr	r3, [pc, #516]	; (8001840 <main+0x284>)
 800163c:	601a      	str	r2, [r3, #0]
	  HAL_Delay(10);
 800163e:	200a      	movs	r0, #10
 8001640:	f001 f898 	bl	8002774 <HAL_Delay>
	  PressureOut5 = ReadPressure(5);
 8001644:	2005      	movs	r0, #5
 8001646:	f7ff ff55 	bl	80014f4 <ReadPressure>
 800164a:	4602      	mov	r2, r0
 800164c:	4b7d      	ldr	r3, [pc, #500]	; (8001844 <main+0x288>)
 800164e:	601a      	str	r2, [r3, #0]
	  HAL_Delay(10);
 8001650:	200a      	movs	r0, #10
 8001652:	f001 f88f 	bl	8002774 <HAL_Delay>


	  /* BLDC Motor Test: Start at default RPM (min). Increment by 10% and hold 500ms on each.
	   * Hold for 4 seconds on Max RPM and then turn off. */
	  BLDCStart();
 8001656:	f7ff fde3 	bl	8001220 <BLDCStart>
//	  HAL_Delay(500);
//	  BLDCSet(80);
	  HAL_Delay(500);
 800165a:	f44f 70fa 	mov.w	r0, #500	; 0x1f4
 800165e:	f001 f889 	bl	8002774 <HAL_Delay>
	  BLDCSet(20);
 8001662:	4879      	ldr	r0, [pc, #484]	; (8001848 <main+0x28c>)
 8001664:	f7ff fdfc 	bl	8001260 <BLDCSet>
	  HAL_Delay(500);
 8001668:	f44f 70fa 	mov.w	r0, #500	; 0x1f4
 800166c:	f001 f882 	bl	8002774 <HAL_Delay>
	  BLDCSet(35);
 8001670:	4876      	ldr	r0, [pc, #472]	; (800184c <main+0x290>)
 8001672:	f7ff fdf5 	bl	8001260 <BLDCSet>
	  HAL_Delay(500);
 8001676:	f44f 70fa 	mov.w	r0, #500	; 0x1f4
 800167a:	f001 f87b 	bl	8002774 <HAL_Delay>
	  BLDCSet(40);
 800167e:	4874      	ldr	r0, [pc, #464]	; (8001850 <main+0x294>)
 8001680:	f7ff fdee 	bl	8001260 <BLDCSet>
	  HAL_Delay(500);
 8001684:	f44f 70fa 	mov.w	r0, #500	; 0x1f4
 8001688:	f001 f874 	bl	8002774 <HAL_Delay>
	  BLDCSet(50);
 800168c:	4871      	ldr	r0, [pc, #452]	; (8001854 <main+0x298>)
 800168e:	f7ff fde7 	bl	8001260 <BLDCSet>
	  HAL_Delay(500);
 8001692:	f44f 70fa 	mov.w	r0, #500	; 0x1f4
 8001696:	f001 f86d 	bl	8002774 <HAL_Delay>
	  BLDCSet(60);
 800169a:	486f      	ldr	r0, [pc, #444]	; (8001858 <main+0x29c>)
 800169c:	f7ff fde0 	bl	8001260 <BLDCSet>
	  HAL_Delay(500);
 80016a0:	f44f 70fa 	mov.w	r0, #500	; 0x1f4
 80016a4:	f001 f866 	bl	8002774 <HAL_Delay>
	  BLDCSet(70);
 80016a8:	486c      	ldr	r0, [pc, #432]	; (800185c <main+0x2a0>)
 80016aa:	f7ff fdd9 	bl	8001260 <BLDCSet>
	  HAL_Delay(500);
 80016ae:	f44f 70fa 	mov.w	r0, #500	; 0x1f4
 80016b2:	f001 f85f 	bl	8002774 <HAL_Delay>
	  BLDCSet(100);
 80016b6:	486a      	ldr	r0, [pc, #424]	; (8001860 <main+0x2a4>)
 80016b8:	f7ff fdd2 	bl	8001260 <BLDCSet>
	  HAL_Delay(4000);
 80016bc:	f44f 607a 	mov.w	r0, #4000	; 0xfa0
 80016c0:	f001 f858 	bl	8002774 <HAL_Delay>
//	  BLDCSet(0);
	  BLDCStop();
 80016c4:	f7ff fdbc 	bl	8001240 <BLDCStop>
	  HAL_Delay(1000);
 80016c8:	f44f 707a 	mov.w	r0, #1000	; 0x3e8
 80016cc:	f001 f852 	bl	8002774 <HAL_Delay>
//	  MoveSteps(5, CC);
//	  SetAngle(150.0);


	  // USB
	  USB_Transmit("PS1",PressureOut1,", ");
 80016d0:	4b58      	ldr	r3, [pc, #352]	; (8001834 <main+0x278>)
 80016d2:	681b      	ldr	r3, [r3, #0]
 80016d4:	4a63      	ldr	r2, [pc, #396]	; (8001864 <main+0x2a8>)
 80016d6:	4619      	mov	r1, r3
 80016d8:	4863      	ldr	r0, [pc, #396]	; (8001868 <main+0x2ac>)
 80016da:	f000 ffab 	bl	8002634 <USB_Transmit>
	  HAL_Delay(5);
 80016de:	2005      	movs	r0, #5
 80016e0:	f001 f848 	bl	8002774 <HAL_Delay>
	  USB_Transmit("PS2",PressureOut2,", ");
 80016e4:	4b54      	ldr	r3, [pc, #336]	; (8001838 <main+0x27c>)
 80016e6:	681b      	ldr	r3, [r3, #0]
 80016e8:	4a5e      	ldr	r2, [pc, #376]	; (8001864 <main+0x2a8>)
 80016ea:	4619      	mov	r1, r3
 80016ec:	485f      	ldr	r0, [pc, #380]	; (800186c <main+0x2b0>)
 80016ee:	f000 ffa1 	bl	8002634 <USB_Transmit>
	  HAL_Delay(5);
 80016f2:	2005      	movs	r0, #5
 80016f4:	f001 f83e 	bl	8002774 <HAL_Delay>
	  USB_Transmit("PS3",PressureOut3,", ");
 80016f8:	4b50      	ldr	r3, [pc, #320]	; (800183c <main+0x280>)
 80016fa:	681b      	ldr	r3, [r3, #0]
 80016fc:	4a59      	ldr	r2, [pc, #356]	; (8001864 <main+0x2a8>)
 80016fe:	4619      	mov	r1, r3
 8001700:	485b      	ldr	r0, [pc, #364]	; (8001870 <main+0x2b4>)
 8001702:	f000 ff97 	bl	8002634 <USB_Transmit>
	  HAL_Delay(5);
 8001706:	2005      	movs	r0, #5
 8001708:	f001 f834 	bl	8002774 <HAL_Delay>
	  USB_Transmit("PS4",PressureOut4,", ");
 800170c:	4b4c      	ldr	r3, [pc, #304]	; (8001840 <main+0x284>)
 800170e:	681b      	ldr	r3, [r3, #0]
 8001710:	4a54      	ldr	r2, [pc, #336]	; (8001864 <main+0x2a8>)
 8001712:	4619      	mov	r1, r3
 8001714:	4857      	ldr	r0, [pc, #348]	; (8001874 <main+0x2b8>)
 8001716:	f000 ff8d 	bl	8002634 <USB_Transmit>
	  HAL_Delay(5);
 800171a:	2005      	movs	r0, #5
 800171c:	f001 f82a 	bl	8002774 <HAL_Delay>
	  USB_Transmit("PS5",PressureOut5,"\n\r");
 8001720:	4b48      	ldr	r3, [pc, #288]	; (8001844 <main+0x288>)
 8001722:	681b      	ldr	r3, [r3, #0]
 8001724:	4a54      	ldr	r2, [pc, #336]	; (8001878 <main+0x2bc>)
 8001726:	4619      	mov	r1, r3
 8001728:	4854      	ldr	r0, [pc, #336]	; (800187c <main+0x2c0>)
 800172a:	f000 ff83 	bl	8002634 <USB_Transmit>

	switch (FSM_State)
 800172e:	4b54      	ldr	r3, [pc, #336]	; (8001880 <main+0x2c4>)
 8001730:	781b      	ldrb	r3, [r3, #0]
 8001732:	3b01      	subs	r3, #1
 8001734:	2b01      	cmp	r3, #1
 8001736:	d811      	bhi.n	800175c <main+0x1a0>
        //start inspiration and monitor lung pressure
        //start inspiration

        //read pressure
        //PressureOut1 = ReadPressureRaw(1);
        if (PressureOut1 > MaxPr){FSM_State=3;}
 8001738:	4b3e      	ldr	r3, [pc, #248]	; (8001834 <main+0x278>)
 800173a:	681a      	ldr	r2, [r3, #0]
 800173c:	4b51      	ldr	r3, [pc, #324]	; (8001884 <main+0x2c8>)
 800173e:	681b      	ldr	r3, [r3, #0]
 8001740:	4619      	mov	r1, r3
 8001742:	4610      	mov	r0, r2
 8001744:	f7ff fce4 	bl	8001110 <__aeabi_fcmpgt>
 8001748:	4603      	mov	r3, r0
 800174a:	2b00      	cmp	r3, #0
 800174c:	d003      	beq.n	8001756 <main+0x19a>
 800174e:	4b4c      	ldr	r3, [pc, #304]	; (8001880 <main+0x2c4>)
 8001750:	2203      	movs	r2, #3
 8001752:	701a      	strb	r2, [r3, #0]
 8001754:	e002      	b.n	800175c <main+0x1a0>
        else {FSM_State=4;}
 8001756:	4b4a      	ldr	r3, [pc, #296]	; (8001880 <main+0x2c4>)
 8001758:	2204      	movs	r2, #4
 800175a:	701a      	strb	r2, [r3, #0]
        //stop expiration and start inspiration again
      default:
      		;
    }

	switch (LedNumber)
 800175c:	4b4a      	ldr	r3, [pc, #296]	; (8001888 <main+0x2cc>)
 800175e:	781b      	ldrb	r3, [r3, #0]
 8001760:	3b01      	subs	r3, #1
 8001762:	2b03      	cmp	r3, #3
 8001764:	d85a      	bhi.n	800181c <main+0x260>
 8001766:	a201      	add	r2, pc, #4	; (adr r2, 800176c <main+0x1b0>)
 8001768:	f852 f023 	ldr.w	pc, [r2, r3, lsl #2]
 800176c:	0800177d 	.word	0x0800177d
 8001770:	080017a5 	.word	0x080017a5
 8001774:	080017cd 	.word	0x080017cd
 8001778:	080017f5 	.word	0x080017f5
	    {
	      case 1:
	    	  LED1_ON();
 800177c:	2200      	movs	r2, #0
 800177e:	2180      	movs	r1, #128	; 0x80
 8001780:	4842      	ldr	r0, [pc, #264]	; (800188c <main+0x2d0>)
 8001782:	f001 fb0e 	bl	8002da2 <HAL_GPIO_WritePin>
 8001786:	2200      	movs	r2, #0
 8001788:	2140      	movs	r1, #64	; 0x40
 800178a:	4840      	ldr	r0, [pc, #256]	; (800188c <main+0x2d0>)
 800178c:	f001 fb09 	bl	8002da2 <HAL_GPIO_WritePin>
 8001790:	2200      	movs	r2, #0
 8001792:	f44f 7180 	mov.w	r1, #256	; 0x100
 8001796:	483d      	ldr	r0, [pc, #244]	; (800188c <main+0x2d0>)
 8001798:	f001 fb03 	bl	8002da2 <HAL_GPIO_WritePin>
	        LedNumber=2;
 800179c:	4b3a      	ldr	r3, [pc, #232]	; (8001888 <main+0x2cc>)
 800179e:	2202      	movs	r2, #2
 80017a0:	701a      	strb	r2, [r3, #0]
	        break;
 80017a2:	e03b      	b.n	800181c <main+0x260>
	      case 2:
	    	  LED2_ON();
 80017a4:	2201      	movs	r2, #1
 80017a6:	2180      	movs	r1, #128	; 0x80
 80017a8:	4838      	ldr	r0, [pc, #224]	; (800188c <main+0x2d0>)
 80017aa:	f001 fafa 	bl	8002da2 <HAL_GPIO_WritePin>
 80017ae:	2200      	movs	r2, #0
 80017b0:	2140      	movs	r1, #64	; 0x40
 80017b2:	4836      	ldr	r0, [pc, #216]	; (800188c <main+0x2d0>)
 80017b4:	f001 faf5 	bl	8002da2 <HAL_GPIO_WritePin>
 80017b8:	2200      	movs	r2, #0
 80017ba:	f44f 7180 	mov.w	r1, #256	; 0x100
 80017be:	4833      	ldr	r0, [pc, #204]	; (800188c <main+0x2d0>)
 80017c0:	f001 faef 	bl	8002da2 <HAL_GPIO_WritePin>
	        LedNumber=3;
 80017c4:	4b30      	ldr	r3, [pc, #192]	; (8001888 <main+0x2cc>)
 80017c6:	2203      	movs	r2, #3
 80017c8:	701a      	strb	r2, [r3, #0]
	        break;
 80017ca:	e027      	b.n	800181c <main+0x260>
	      case 3:
	    	  LED3_ON();
 80017cc:	2200      	movs	r2, #0
 80017ce:	2180      	movs	r1, #128	; 0x80
 80017d0:	482e      	ldr	r0, [pc, #184]	; (800188c <main+0x2d0>)
 80017d2:	f001 fae6 	bl	8002da2 <HAL_GPIO_WritePin>
 80017d6:	2201      	movs	r2, #1
 80017d8:	2140      	movs	r1, #64	; 0x40
 80017da:	482c      	ldr	r0, [pc, #176]	; (800188c <main+0x2d0>)
 80017dc:	f001 fae1 	bl	8002da2 <HAL_GPIO_WritePin>
 80017e0:	2200      	movs	r2, #0
 80017e2:	f44f 7180 	mov.w	r1, #256	; 0x100
 80017e6:	4829      	ldr	r0, [pc, #164]	; (800188c <main+0x2d0>)
 80017e8:	f001 fadb 	bl	8002da2 <HAL_GPIO_WritePin>
	        LedNumber=4;
 80017ec:	4b26      	ldr	r3, [pc, #152]	; (8001888 <main+0x2cc>)
 80017ee:	2204      	movs	r2, #4
 80017f0:	701a      	strb	r2, [r3, #0]
	        break;
 80017f2:	e013      	b.n	800181c <main+0x260>
	      case 4:
	    	  LED4_ON();
 80017f4:	2201      	movs	r2, #1
 80017f6:	2180      	movs	r1, #128	; 0x80
 80017f8:	4824      	ldr	r0, [pc, #144]	; (800188c <main+0x2d0>)
 80017fa:	f001 fad2 	bl	8002da2 <HAL_GPIO_WritePin>
 80017fe:	2201      	movs	r2, #1
 8001800:	2140      	movs	r1, #64	; 0x40
 8001802:	4822      	ldr	r0, [pc, #136]	; (800188c <main+0x2d0>)
 8001804:	f001 facd 	bl	8002da2 <HAL_GPIO_WritePin>
 8001808:	2200      	movs	r2, #0
 800180a:	f44f 7180 	mov.w	r1, #256	; 0x100
 800180e:	481f      	ldr	r0, [pc, #124]	; (800188c <main+0x2d0>)
 8001810:	f001 fac7 	bl	8002da2 <HAL_GPIO_WritePin>
	        LedNumber=1;
 8001814:	4b1c      	ldr	r3, [pc, #112]	; (8001888 <main+0x2cc>)
 8001816:	2201      	movs	r2, #1
 8001818:	701a      	strb	r2, [r3, #0]
	        break;
 800181a:	bf00      	nop
	      default:
	      		;
	    }
	HAL_Delay(2000);
 800181c:	f44f 60fa 	mov.w	r0, #2000	; 0x7d0
 8001820:	f000 ffa8 	bl	8002774 <HAL_Delay>
	  PressureOut1 = ReadPressure(1);
 8001824:	e6ea      	b.n	80015fc <main+0x40>
 8001826:	bf00      	nop
 8001828:	20000718 	.word	0x20000718
 800182c:	43340000 	.word	0x43340000
 8001830:	3fe66666 	.word	0x3fe66666
 8001834:	2000038c 	.word	0x2000038c
 8001838:	20000390 	.word	0x20000390
 800183c:	20000394 	.word	0x20000394
 8001840:	20000398 	.word	0x20000398
 8001844:	2000039c 	.word	0x2000039c
 8001848:	41a00000 	.word	0x41a00000
 800184c:	420c0000 	.word	0x420c0000
 8001850:	42200000 	.word	0x42200000
 8001854:	42480000 	.word	0x42480000
 8001858:	42700000 	.word	0x42700000
 800185c:	428c0000 	.word	0x428c0000
 8001860:	42c80000 	.word	0x42c80000
 8001864:	0800c390 	.word	0x0800c390
 8001868:	0800c394 	.word	0x0800c394
 800186c:	0800c398 	.word	0x0800c398
 8001870:	0800c39c 	.word	0x0800c39c
 8001874:	0800c3a0 	.word	0x0800c3a0
 8001878:	0800c3a4 	.word	0x0800c3a4
 800187c:	0800c3a8 	.word	0x0800c3a8
 8001880:	20000388 	.word	0x20000388
 8001884:	2000000c 	.word	0x2000000c
 8001888:	20000000 	.word	0x20000000
 800188c:	40010c00 	.word	0x40010c00

08001890 <SystemClock_Config>:
/**
  * @brief System Clock Configuration
  * @retval None
  */
void SystemClock_Config(void)
{
 8001890:	b580      	push	{r7, lr}
 8001892:	b094      	sub	sp, #80	; 0x50
 8001894:	af00      	add	r7, sp, #0
  RCC_OscInitTypeDef RCC_OscInitStruct = {0};
 8001896:	f107 0328 	add.w	r3, r7, #40	; 0x28
 800189a:	2228      	movs	r2, #40	; 0x28
 800189c:	2100      	movs	r1, #0
 800189e:	4618      	mov	r0, r3
 80018a0:	f007 faa3 	bl	8008dea <memset>
  RCC_ClkInitTypeDef RCC_ClkInitStruct = {0};
 80018a4:	f107 0314 	add.w	r3, r7, #20
 80018a8:	2200      	movs	r2, #0
 80018aa:	601a      	str	r2, [r3, #0]
 80018ac:	605a      	str	r2, [r3, #4]
 80018ae:	609a      	str	r2, [r3, #8]
 80018b0:	60da      	str	r2, [r3, #12]
 80018b2:	611a      	str	r2, [r3, #16]
  RCC_PeriphCLKInitTypeDef PeriphClkInit = {0};
 80018b4:	1d3b      	adds	r3, r7, #4
 80018b6:	2200      	movs	r2, #0
 80018b8:	601a      	str	r2, [r3, #0]
 80018ba:	605a      	str	r2, [r3, #4]
 80018bc:	609a      	str	r2, [r3, #8]
 80018be:	60da      	str	r2, [r3, #12]

  /** Initializes the CPU, AHB and APB busses clocks 
  */
  RCC_OscInitStruct.OscillatorType = RCC_OSCILLATORTYPE_HSE;
 80018c0:	2301      	movs	r3, #1
 80018c2:	62bb      	str	r3, [r7, #40]	; 0x28
  RCC_OscInitStruct.HSEState = RCC_HSE_ON;
 80018c4:	f44f 3380 	mov.w	r3, #65536	; 0x10000
 80018c8:	62fb      	str	r3, [r7, #44]	; 0x2c
  RCC_OscInitStruct.HSEPredivValue = RCC_HSE_PREDIV_DIV2;
 80018ca:	f44f 3300 	mov.w	r3, #131072	; 0x20000
 80018ce:	633b      	str	r3, [r7, #48]	; 0x30
  RCC_OscInitStruct.HSIState = RCC_HSI_ON;
 80018d0:	2301      	movs	r3, #1
 80018d2:	63bb      	str	r3, [r7, #56]	; 0x38
  RCC_OscInitStruct.PLL.PLLState = RCC_PLL_ON;
 80018d4:	2302      	movs	r3, #2
 80018d6:	647b      	str	r3, [r7, #68]	; 0x44
  RCC_OscInitStruct.PLL.PLLSource = RCC_PLLSOURCE_HSE;
 80018d8:	f44f 3380 	mov.w	r3, #65536	; 0x10000
 80018dc:	64bb      	str	r3, [r7, #72]	; 0x48
  RCC_OscInitStruct.PLL.PLLMUL = RCC_PLL_MUL6;
 80018de:	f44f 1380 	mov.w	r3, #1048576	; 0x100000
 80018e2:	64fb      	str	r3, [r7, #76]	; 0x4c
  if (HAL_RCC_OscConfig(&RCC_OscInitStruct) != HAL_OK)
 80018e4:	f107 0328 	add.w	r3, r7, #40	; 0x28
 80018e8:	4618      	mov	r0, r3
 80018ea:	f002 f953 	bl	8003b94 <HAL_RCC_OscConfig>
 80018ee:	4603      	mov	r3, r0
 80018f0:	2b00      	cmp	r3, #0
 80018f2:	d001      	beq.n	80018f8 <SystemClock_Config+0x68>
  {
    Error_Handler();
 80018f4:	f000 f990 	bl	8001c18 <Error_Handler>
  }
  /** Initializes the CPU, AHB and APB busses clocks 
  */
  RCC_ClkInitStruct.ClockType = RCC_CLOCKTYPE_HCLK|RCC_CLOCKTYPE_SYSCLK
 80018f8:	230f      	movs	r3, #15
 80018fa:	617b      	str	r3, [r7, #20]
                              |RCC_CLOCKTYPE_PCLK1|RCC_CLOCKTYPE_PCLK2;
  RCC_ClkInitStruct.SYSCLKSource = RCC_SYSCLKSOURCE_PLLCLK;
 80018fc:	2302      	movs	r3, #2
 80018fe:	61bb      	str	r3, [r7, #24]
  RCC_ClkInitStruct.AHBCLKDivider = RCC_SYSCLK_DIV1;
 8001900:	2300      	movs	r3, #0
 8001902:	61fb      	str	r3, [r7, #28]
  RCC_ClkInitStruct.APB1CLKDivider = RCC_HCLK_DIV2;
 8001904:	f44f 6380 	mov.w	r3, #1024	; 0x400
 8001908:	623b      	str	r3, [r7, #32]
  RCC_ClkInitStruct.APB2CLKDivider = RCC_HCLK_DIV1;
 800190a:	2300      	movs	r3, #0
 800190c:	627b      	str	r3, [r7, #36]	; 0x24

  if (HAL_RCC_ClockConfig(&RCC_ClkInitStruct, FLASH_LATENCY_1) != HAL_OK)
 800190e:	f107 0314 	add.w	r3, r7, #20
 8001912:	2101      	movs	r1, #1
 8001914:	4618      	mov	r0, r3
 8001916:	f002 fbbd 	bl	8004094 <HAL_RCC_ClockConfig>
 800191a:	4603      	mov	r3, r0
 800191c:	2b00      	cmp	r3, #0
 800191e:	d001      	beq.n	8001924 <SystemClock_Config+0x94>
  {
    Error_Handler();
 8001920:	f000 f97a 	bl	8001c18 <Error_Handler>
  }
  PeriphClkInit.PeriphClockSelection = RCC_PERIPHCLK_USB;
 8001924:	2310      	movs	r3, #16
 8001926:	607b      	str	r3, [r7, #4]
  PeriphClkInit.UsbClockSelection = RCC_USBCLKSOURCE_PLL;
 8001928:	f44f 0380 	mov.w	r3, #4194304	; 0x400000
 800192c:	613b      	str	r3, [r7, #16]
  if (HAL_RCCEx_PeriphCLKConfig(&PeriphClkInit) != HAL_OK)
 800192e:	1d3b      	adds	r3, r7, #4
 8001930:	4618      	mov	r0, r3
 8001932:	f002 fd4d 	bl	80043d0 <HAL_RCCEx_PeriphCLKConfig>
 8001936:	4603      	mov	r3, r0
 8001938:	2b00      	cmp	r3, #0
 800193a:	d001      	beq.n	8001940 <SystemClock_Config+0xb0>
  {
    Error_Handler();
 800193c:	f000 f96c 	bl	8001c18 <Error_Handler>
  }
}
 8001940:	bf00      	nop
 8001942:	3750      	adds	r7, #80	; 0x50
 8001944:	46bd      	mov	sp, r7
 8001946:	bd80      	pop	{r7, pc}

08001948 <MX_SPI2_Init>:
  * @brief SPI2 Initialization Function
  * @param None
  * @retval None
  */
static void MX_SPI2_Init(void)
{
 8001948:	b580      	push	{r7, lr}
 800194a:	af00      	add	r7, sp, #0

  /* USER CODE BEGIN SPI2_Init 1 */

  /* USER CODE END SPI2_Init 1 */
  /* SPI2 parameter configuration*/
  hspi2.Instance = SPI2;
 800194c:	4b17      	ldr	r3, [pc, #92]	; (80019ac <MX_SPI2_Init+0x64>)
 800194e:	4a18      	ldr	r2, [pc, #96]	; (80019b0 <MX_SPI2_Init+0x68>)
 8001950:	601a      	str	r2, [r3, #0]
  hspi2.Init.Mode = SPI_MODE_MASTER;
 8001952:	4b16      	ldr	r3, [pc, #88]	; (80019ac <MX_SPI2_Init+0x64>)
 8001954:	f44f 7282 	mov.w	r2, #260	; 0x104
 8001958:	605a      	str	r2, [r3, #4]
  hspi2.Init.Direction = SPI_DIRECTION_2LINES;
 800195a:	4b14      	ldr	r3, [pc, #80]	; (80019ac <MX_SPI2_Init+0x64>)
 800195c:	2200      	movs	r2, #0
 800195e:	609a      	str	r2, [r3, #8]
  hspi2.Init.DataSize = SPI_DATASIZE_8BIT;
 8001960:	4b12      	ldr	r3, [pc, #72]	; (80019ac <MX_SPI2_Init+0x64>)
 8001962:	2200      	movs	r2, #0
 8001964:	60da      	str	r2, [r3, #12]
  hspi2.Init.CLKPolarity = SPI_POLARITY_LOW;
 8001966:	4b11      	ldr	r3, [pc, #68]	; (80019ac <MX_SPI2_Init+0x64>)
 8001968:	2200      	movs	r2, #0
 800196a:	611a      	str	r2, [r3, #16]
  hspi2.Init.CLKPhase = SPI_PHASE_1EDGE;
 800196c:	4b0f      	ldr	r3, [pc, #60]	; (80019ac <MX_SPI2_Init+0x64>)
 800196e:	2200      	movs	r2, #0
 8001970:	615a      	str	r2, [r3, #20]
  hspi2.Init.NSS = SPI_NSS_SOFT;
 8001972:	4b0e      	ldr	r3, [pc, #56]	; (80019ac <MX_SPI2_Init+0x64>)
 8001974:	f44f 7200 	mov.w	r2, #512	; 0x200
 8001978:	619a      	str	r2, [r3, #24]
  hspi2.Init.BaudRatePrescaler = SPI_BAUDRATEPRESCALER_64;
 800197a:	4b0c      	ldr	r3, [pc, #48]	; (80019ac <MX_SPI2_Init+0x64>)
 800197c:	2228      	movs	r2, #40	; 0x28
 800197e:	61da      	str	r2, [r3, #28]
  hspi2.Init.FirstBit = SPI_FIRSTBIT_MSB;
 8001980:	4b0a      	ldr	r3, [pc, #40]	; (80019ac <MX_SPI2_Init+0x64>)
 8001982:	2200      	movs	r2, #0
 8001984:	621a      	str	r2, [r3, #32]
  hspi2.Init.TIMode = SPI_TIMODE_DISABLE;
 8001986:	4b09      	ldr	r3, [pc, #36]	; (80019ac <MX_SPI2_Init+0x64>)
 8001988:	2200      	movs	r2, #0
 800198a:	625a      	str	r2, [r3, #36]	; 0x24
  hspi2.Init.CRCCalculation = SPI_CRCCALCULATION_DISABLE;
 800198c:	4b07      	ldr	r3, [pc, #28]	; (80019ac <MX_SPI2_Init+0x64>)
 800198e:	2200      	movs	r2, #0
 8001990:	629a      	str	r2, [r3, #40]	; 0x28
  hspi2.Init.CRCPolynomial = 10;
 8001992:	4b06      	ldr	r3, [pc, #24]	; (80019ac <MX_SPI2_Init+0x64>)
 8001994:	220a      	movs	r2, #10
 8001996:	62da      	str	r2, [r3, #44]	; 0x2c
  if (HAL_SPI_Init(&hspi2) != HAL_OK)
 8001998:	4804      	ldr	r0, [pc, #16]	; (80019ac <MX_SPI2_Init+0x64>)
 800199a:	f002 fdcf 	bl	800453c <HAL_SPI_Init>
 800199e:	4603      	mov	r3, r0
 80019a0:	2b00      	cmp	r3, #0
 80019a2:	d001      	beq.n	80019a8 <MX_SPI2_Init+0x60>
  {
    Error_Handler();
 80019a4:	f000 f938 	bl	8001c18 <Error_Handler>
  }
  /* USER CODE BEGIN SPI2_Init 2 */

  /* USER CODE END SPI2_Init 2 */

}
 80019a8:	bf00      	nop
 80019aa:	bd80      	pop	{r7, pc}
 80019ac:	200006b8 	.word	0x200006b8
 80019b0:	40003800 	.word	0x40003800

080019b4 <MX_TIM3_Init>:
  * @brief TIM3 Initialization Function
  * @param None
  * @retval None
  */
static void MX_TIM3_Init(void)
{
 80019b4:	b580      	push	{r7, lr}
 80019b6:	b08a      	sub	sp, #40	; 0x28
 80019b8:	af00      	add	r7, sp, #0

  /* USER CODE BEGIN TIM3_Init 0 */

  /* USER CODE END TIM3_Init 0 */

  TIM_MasterConfigTypeDef sMasterConfig = {0};
 80019ba:	f107 0320 	add.w	r3, r7, #32
 80019be:	2200      	movs	r2, #0
 80019c0:	601a      	str	r2, [r3, #0]
 80019c2:	605a      	str	r2, [r3, #4]
  TIM_OC_InitTypeDef sConfigOC = {0};
 80019c4:	1d3b      	adds	r3, r7, #4
 80019c6:	2200      	movs	r2, #0
 80019c8:	601a      	str	r2, [r3, #0]
 80019ca:	605a      	str	r2, [r3, #4]
 80019cc:	609a      	str	r2, [r3, #8]
 80019ce:	60da      	str	r2, [r3, #12]
 80019d0:	611a      	str	r2, [r3, #16]
 80019d2:	615a      	str	r2, [r3, #20]
 80019d4:	619a      	str	r2, [r3, #24]

  /* USER CODE BEGIN TIM3_Init 1 */

  /* USER CODE END TIM3_Init 1 */
  htim3.Instance = TIM3;
 80019d6:	4b22      	ldr	r3, [pc, #136]	; (8001a60 <MX_TIM3_Init+0xac>)
 80019d8:	4a22      	ldr	r2, [pc, #136]	; (8001a64 <MX_TIM3_Init+0xb0>)
 80019da:	601a      	str	r2, [r3, #0]
  htim3.Init.Prescaler = 96;
 80019dc:	4b20      	ldr	r3, [pc, #128]	; (8001a60 <MX_TIM3_Init+0xac>)
 80019de:	2260      	movs	r2, #96	; 0x60
 80019e0:	605a      	str	r2, [r3, #4]
  htim3.Init.CounterMode = TIM_COUNTERMODE_UP;
 80019e2:	4b1f      	ldr	r3, [pc, #124]	; (8001a60 <MX_TIM3_Init+0xac>)
 80019e4:	2200      	movs	r2, #0
 80019e6:	609a      	str	r2, [r3, #8]
  htim3.Init.Period = 10000;
 80019e8:	4b1d      	ldr	r3, [pc, #116]	; (8001a60 <MX_TIM3_Init+0xac>)
 80019ea:	f242 7210 	movw	r2, #10000	; 0x2710
 80019ee:	60da      	str	r2, [r3, #12]
  htim3.Init.ClockDivision = TIM_CLOCKDIVISION_DIV1;
 80019f0:	4b1b      	ldr	r3, [pc, #108]	; (8001a60 <MX_TIM3_Init+0xac>)
 80019f2:	2200      	movs	r2, #0
 80019f4:	611a      	str	r2, [r3, #16]
  htim3.Init.AutoReloadPreload = TIM_AUTORELOAD_PRELOAD_DISABLE;
 80019f6:	4b1a      	ldr	r3, [pc, #104]	; (8001a60 <MX_TIM3_Init+0xac>)
 80019f8:	2200      	movs	r2, #0
 80019fa:	619a      	str	r2, [r3, #24]
  if (HAL_TIM_PWM_Init(&htim3) != HAL_OK)
 80019fc:	4818      	ldr	r0, [pc, #96]	; (8001a60 <MX_TIM3_Init+0xac>)
 80019fe:	f003 f828 	bl	8004a52 <HAL_TIM_PWM_Init>
 8001a02:	4603      	mov	r3, r0
 8001a04:	2b00      	cmp	r3, #0
 8001a06:	d001      	beq.n	8001a0c <MX_TIM3_Init+0x58>
  {
    Error_Handler();
 8001a08:	f000 f906 	bl	8001c18 <Error_Handler>
  }
  sMasterConfig.MasterOutputTrigger = TIM_TRGO_RESET;
 8001a0c:	2300      	movs	r3, #0
 8001a0e:	623b      	str	r3, [r7, #32]
  sMasterConfig.MasterSlaveMode = TIM_MASTERSLAVEMODE_DISABLE;
 8001a10:	2300      	movs	r3, #0
 8001a12:	627b      	str	r3, [r7, #36]	; 0x24
  if (HAL_TIMEx_MasterConfigSynchronization(&htim3, &sMasterConfig) != HAL_OK)
 8001a14:	f107 0320 	add.w	r3, r7, #32
 8001a18:	4619      	mov	r1, r3
 8001a1a:	4811      	ldr	r0, [pc, #68]	; (8001a60 <MX_TIM3_Init+0xac>)
 8001a1c:	f003 fb96 	bl	800514c <HAL_TIMEx_MasterConfigSynchronization>
 8001a20:	4603      	mov	r3, r0
 8001a22:	2b00      	cmp	r3, #0
 8001a24:	d001      	beq.n	8001a2a <MX_TIM3_Init+0x76>
  {
    Error_Handler();
 8001a26:	f000 f8f7 	bl	8001c18 <Error_Handler>
  }
  sConfigOC.OCMode = TIM_OCMODE_PWM1;
 8001a2a:	2360      	movs	r3, #96	; 0x60
 8001a2c:	607b      	str	r3, [r7, #4]
  sConfigOC.Pulse = 0;
 8001a2e:	2300      	movs	r3, #0
 8001a30:	60bb      	str	r3, [r7, #8]
  sConfigOC.OCPolarity = TIM_OCPOLARITY_HIGH;
 8001a32:	2300      	movs	r3, #0
 8001a34:	60fb      	str	r3, [r7, #12]
  sConfigOC.OCFastMode = TIM_OCFAST_DISABLE;
 8001a36:	2300      	movs	r3, #0
 8001a38:	617b      	str	r3, [r7, #20]
  if (HAL_TIM_PWM_ConfigChannel(&htim3, &sConfigOC, TIM_CHANNEL_4) != HAL_OK)
 8001a3a:	1d3b      	adds	r3, r7, #4
 8001a3c:	220c      	movs	r2, #12
 8001a3e:	4619      	mov	r1, r3
 8001a40:	4807      	ldr	r0, [pc, #28]	; (8001a60 <MX_TIM3_Init+0xac>)
 8001a42:	f003 f8af 	bl	8004ba4 <HAL_TIM_PWM_ConfigChannel>
 8001a46:	4603      	mov	r3, r0
 8001a48:	2b00      	cmp	r3, #0
 8001a4a:	d001      	beq.n	8001a50 <MX_TIM3_Init+0x9c>
  {
    Error_Handler();
 8001a4c:	f000 f8e4 	bl	8001c18 <Error_Handler>
  }
  /* USER CODE BEGIN TIM3_Init 2 */

  /* USER CODE END TIM3_Init 2 */
  HAL_TIM_MspPostInit(&htim3);
 8001a50:	4803      	ldr	r0, [pc, #12]	; (8001a60 <MX_TIM3_Init+0xac>)
 8001a52:	f000 f983 	bl	8001d5c <HAL_TIM_MspPostInit>

}
 8001a56:	bf00      	nop
 8001a58:	3728      	adds	r7, #40	; 0x28
 8001a5a:	46bd      	mov	sp, r7
 8001a5c:	bd80      	pop	{r7, pc}
 8001a5e:	bf00      	nop
 8001a60:	20000718 	.word	0x20000718
 8001a64:	40000400 	.word	0x40000400

08001a68 <MX_USART1_UART_Init>:
  * @brief USART1 Initialization Function
  * @param None
  * @retval None
  */
static void MX_USART1_UART_Init(void)
{
 8001a68:	b580      	push	{r7, lr}
 8001a6a:	af00      	add	r7, sp, #0
  /* USER CODE END USART1_Init 0 */

  /* USER CODE BEGIN USART1_Init 1 */

  /* USER CODE END USART1_Init 1 */
  huart1.Instance = USART1;
 8001a6c:	4b11      	ldr	r3, [pc, #68]	; (8001ab4 <MX_USART1_UART_Init+0x4c>)
 8001a6e:	4a12      	ldr	r2, [pc, #72]	; (8001ab8 <MX_USART1_UART_Init+0x50>)
 8001a70:	601a      	str	r2, [r3, #0]
  huart1.Init.BaudRate = 9600;
 8001a72:	4b10      	ldr	r3, [pc, #64]	; (8001ab4 <MX_USART1_UART_Init+0x4c>)
 8001a74:	f44f 5216 	mov.w	r2, #9600	; 0x2580
 8001a78:	605a      	str	r2, [r3, #4]
  huart1.Init.WordLength = UART_WORDLENGTH_8B;
 8001a7a:	4b0e      	ldr	r3, [pc, #56]	; (8001ab4 <MX_USART1_UART_Init+0x4c>)
 8001a7c:	2200      	movs	r2, #0
 8001a7e:	609a      	str	r2, [r3, #8]
  huart1.Init.StopBits = UART_STOPBITS_1;
 8001a80:	4b0c      	ldr	r3, [pc, #48]	; (8001ab4 <MX_USART1_UART_Init+0x4c>)
 8001a82:	2200      	movs	r2, #0
 8001a84:	60da      	str	r2, [r3, #12]
  huart1.Init.Parity = UART_PARITY_NONE;
 8001a86:	4b0b      	ldr	r3, [pc, #44]	; (8001ab4 <MX_USART1_UART_Init+0x4c>)
 8001a88:	2200      	movs	r2, #0
 8001a8a:	611a      	str	r2, [r3, #16]
  huart1.Init.Mode = UART_MODE_TX_RX;
 8001a8c:	4b09      	ldr	r3, [pc, #36]	; (8001ab4 <MX_USART1_UART_Init+0x4c>)
 8001a8e:	220c      	movs	r2, #12
 8001a90:	615a      	str	r2, [r3, #20]
  huart1.Init.HwFlowCtl = UART_HWCONTROL_NONE;
 8001a92:	4b08      	ldr	r3, [pc, #32]	; (8001ab4 <MX_USART1_UART_Init+0x4c>)
 8001a94:	2200      	movs	r2, #0
 8001a96:	619a      	str	r2, [r3, #24]
  huart1.Init.OverSampling = UART_OVERSAMPLING_16;
 8001a98:	4b06      	ldr	r3, [pc, #24]	; (8001ab4 <MX_USART1_UART_Init+0x4c>)
 8001a9a:	2200      	movs	r2, #0
 8001a9c:	61da      	str	r2, [r3, #28]
  if (HAL_UART_Init(&huart1) != HAL_OK)
 8001a9e:	4805      	ldr	r0, [pc, #20]	; (8001ab4 <MX_USART1_UART_Init+0x4c>)
 8001aa0:	f003 fb98 	bl	80051d4 <HAL_UART_Init>
 8001aa4:	4603      	mov	r3, r0
 8001aa6:	2b00      	cmp	r3, #0
 8001aa8:	d001      	beq.n	8001aae <MX_USART1_UART_Init+0x46>
  {
    Error_Handler();
 8001aaa:	f000 f8b5 	bl	8001c18 <Error_Handler>
  }
  /* USER CODE BEGIN USART1_Init 2 */

  /* USER CODE END USART1_Init 2 */

}
 8001aae:	bf00      	nop
 8001ab0:	bd80      	pop	{r7, pc}
 8001ab2:	bf00      	nop
 8001ab4:	20000758 	.word	0x20000758
 8001ab8:	40013800 	.word	0x40013800

08001abc <MX_GPIO_Init>:
  * @brief GPIO Initialization Function
  * @param None
  * @retval None
  */
static void MX_GPIO_Init(void)
{
 8001abc:	b580      	push	{r7, lr}
 8001abe:	b088      	sub	sp, #32
 8001ac0:	af00      	add	r7, sp, #0
  GPIO_InitTypeDef GPIO_InitStruct = {0};
 8001ac2:	f107 0310 	add.w	r3, r7, #16
 8001ac6:	2200      	movs	r2, #0
 8001ac8:	601a      	str	r2, [r3, #0]
 8001aca:	605a      	str	r2, [r3, #4]
 8001acc:	609a      	str	r2, [r3, #8]
 8001ace:	60da      	str	r2, [r3, #12]

  /* GPIO Ports Clock Enable */
  __HAL_RCC_GPIOC_CLK_ENABLE();
 8001ad0:	4b44      	ldr	r3, [pc, #272]	; (8001be4 <MX_GPIO_Init+0x128>)
 8001ad2:	699b      	ldr	r3, [r3, #24]
 8001ad4:	4a43      	ldr	r2, [pc, #268]	; (8001be4 <MX_GPIO_Init+0x128>)
 8001ad6:	f043 0310 	orr.w	r3, r3, #16
 8001ada:	6193      	str	r3, [r2, #24]
 8001adc:	4b41      	ldr	r3, [pc, #260]	; (8001be4 <MX_GPIO_Init+0x128>)
 8001ade:	699b      	ldr	r3, [r3, #24]
 8001ae0:	f003 0310 	and.w	r3, r3, #16
 8001ae4:	60fb      	str	r3, [r7, #12]
 8001ae6:	68fb      	ldr	r3, [r7, #12]
  __HAL_RCC_GPIOD_CLK_ENABLE();
 8001ae8:	4b3e      	ldr	r3, [pc, #248]	; (8001be4 <MX_GPIO_Init+0x128>)
 8001aea:	699b      	ldr	r3, [r3, #24]
 8001aec:	4a3d      	ldr	r2, [pc, #244]	; (8001be4 <MX_GPIO_Init+0x128>)
 8001aee:	f043 0320 	orr.w	r3, r3, #32
 8001af2:	6193      	str	r3, [r2, #24]
 8001af4:	4b3b      	ldr	r3, [pc, #236]	; (8001be4 <MX_GPIO_Init+0x128>)
 8001af6:	699b      	ldr	r3, [r3, #24]
 8001af8:	f003 0320 	and.w	r3, r3, #32
 8001afc:	60bb      	str	r3, [r7, #8]
 8001afe:	68bb      	ldr	r3, [r7, #8]
  __HAL_RCC_GPIOA_CLK_ENABLE();
 8001b00:	4b38      	ldr	r3, [pc, #224]	; (8001be4 <MX_GPIO_Init+0x128>)
 8001b02:	699b      	ldr	r3, [r3, #24]
 8001b04:	4a37      	ldr	r2, [pc, #220]	; (8001be4 <MX_GPIO_Init+0x128>)
 8001b06:	f043 0304 	orr.w	r3, r3, #4
 8001b0a:	6193      	str	r3, [r2, #24]
 8001b0c:	4b35      	ldr	r3, [pc, #212]	; (8001be4 <MX_GPIO_Init+0x128>)
 8001b0e:	699b      	ldr	r3, [r3, #24]
 8001b10:	f003 0304 	and.w	r3, r3, #4
 8001b14:	607b      	str	r3, [r7, #4]
 8001b16:	687b      	ldr	r3, [r7, #4]
  __HAL_RCC_GPIOB_CLK_ENABLE();
 8001b18:	4b32      	ldr	r3, [pc, #200]	; (8001be4 <MX_GPIO_Init+0x128>)
 8001b1a:	699b      	ldr	r3, [r3, #24]
 8001b1c:	4a31      	ldr	r2, [pc, #196]	; (8001be4 <MX_GPIO_Init+0x128>)
 8001b1e:	f043 0308 	orr.w	r3, r3, #8
 8001b22:	6193      	str	r3, [r2, #24]
 8001b24:	4b2f      	ldr	r3, [pc, #188]	; (8001be4 <MX_GPIO_Init+0x128>)
 8001b26:	699b      	ldr	r3, [r3, #24]
 8001b28:	f003 0308 	and.w	r3, r3, #8
 8001b2c:	603b      	str	r3, [r7, #0]
 8001b2e:	683b      	ldr	r3, [r7, #0]

  /*Configure GPIO pin Output Level */
  HAL_GPIO_WritePin(GPIOC, GPIO_PIN_13|GPIO_PIN_14|GPIO_PIN_15, GPIO_PIN_SET);
 8001b30:	2201      	movs	r2, #1
 8001b32:	f44f 4160 	mov.w	r1, #57344	; 0xe000
 8001b36:	482c      	ldr	r0, [pc, #176]	; (8001be8 <MX_GPIO_Init+0x12c>)
 8001b38:	f001 f933 	bl	8002da2 <HAL_GPIO_WritePin>

  /*Configure GPIO pin Output Level */
  HAL_GPIO_WritePin(GPIOA, GPIO_PIN_1|GPIO_PIN_2, GPIO_PIN_RESET);
 8001b3c:	2200      	movs	r2, #0
 8001b3e:	2106      	movs	r1, #6
 8001b40:	482a      	ldr	r0, [pc, #168]	; (8001bec <MX_GPIO_Init+0x130>)
 8001b42:	f001 f92e 	bl	8002da2 <HAL_GPIO_WritePin>

  /*Configure GPIO pin Output Level */
  HAL_GPIO_WritePin(GPIOB, GPIO_PIN_12, GPIO_PIN_SET);
 8001b46:	2201      	movs	r2, #1
 8001b48:	f44f 5180 	mov.w	r1, #4096	; 0x1000
 8001b4c:	4828      	ldr	r0, [pc, #160]	; (8001bf0 <MX_GPIO_Init+0x134>)
 8001b4e:	f001 f928 	bl	8002da2 <HAL_GPIO_WritePin>

  /*Configure GPIO pin Output Level */
  HAL_GPIO_WritePin(GPIOA, GPIO_PIN_8|GPIO_PIN_15, GPIO_PIN_SET);
 8001b52:	2201      	movs	r2, #1
 8001b54:	f44f 4101 	mov.w	r1, #33024	; 0x8100
 8001b58:	4824      	ldr	r0, [pc, #144]	; (8001bec <MX_GPIO_Init+0x130>)
 8001b5a:	f001 f922 	bl	8002da2 <HAL_GPIO_WritePin>

  /*Configure GPIO pin Output Level */
  HAL_GPIO_WritePin(GPIOB, GPIO_PIN_6|GPIO_PIN_7|GPIO_PIN_8, GPIO_PIN_RESET);
 8001b5e:	2200      	movs	r2, #0
 8001b60:	f44f 71e0 	mov.w	r1, #448	; 0x1c0
 8001b64:	4822      	ldr	r0, [pc, #136]	; (8001bf0 <MX_GPIO_Init+0x134>)
 8001b66:	f001 f91c 	bl	8002da2 <HAL_GPIO_WritePin>

  /*Configure GPIO pins : PC13 PC14 PC15 */
  GPIO_InitStruct.Pin = GPIO_PIN_13|GPIO_PIN_14|GPIO_PIN_15;
 8001b6a:	f44f 4360 	mov.w	r3, #57344	; 0xe000
 8001b6e:	613b      	str	r3, [r7, #16]
  GPIO_InitStruct.Mode = GPIO_MODE_OUTPUT_PP;
 8001b70:	2301      	movs	r3, #1
 8001b72:	617b      	str	r3, [r7, #20]
  GPIO_InitStruct.Pull = GPIO_NOPULL;
 8001b74:	2300      	movs	r3, #0
 8001b76:	61bb      	str	r3, [r7, #24]
  GPIO_InitStruct.Speed = GPIO_SPEED_FREQ_LOW;
 8001b78:	2302      	movs	r3, #2
 8001b7a:	61fb      	str	r3, [r7, #28]
  HAL_GPIO_Init(GPIOC, &GPIO_InitStruct);
 8001b7c:	f107 0310 	add.w	r3, r7, #16
 8001b80:	4619      	mov	r1, r3
 8001b82:	4819      	ldr	r0, [pc, #100]	; (8001be8 <MX_GPIO_Init+0x12c>)
 8001b84:	f000 ff9c 	bl	8002ac0 <HAL_GPIO_Init>

  /*Configure GPIO pins : PA1 PA2 PA8 PA15 */
  GPIO_InitStruct.Pin = GPIO_PIN_1|GPIO_PIN_2|GPIO_PIN_8|GPIO_PIN_15;
 8001b88:	f248 1306 	movw	r3, #33030	; 0x8106
 8001b8c:	613b      	str	r3, [r7, #16]
  GPIO_InitStruct.Mode = GPIO_MODE_OUTPUT_PP;
 8001b8e:	2301      	movs	r3, #1
 8001b90:	617b      	str	r3, [r7, #20]
  GPIO_InitStruct.Pull = GPIO_NOPULL;
 8001b92:	2300      	movs	r3, #0
 8001b94:	61bb      	str	r3, [r7, #24]
  GPIO_InitStruct.Speed = GPIO_SPEED_FREQ_LOW;
 8001b96:	2302      	movs	r3, #2
 8001b98:	61fb      	str	r3, [r7, #28]
  HAL_GPIO_Init(GPIOA, &GPIO_InitStruct);
 8001b9a:	f107 0310 	add.w	r3, r7, #16
 8001b9e:	4619      	mov	r1, r3
 8001ba0:	4812      	ldr	r0, [pc, #72]	; (8001bec <MX_GPIO_Init+0x130>)
 8001ba2:	f000 ff8d 	bl	8002ac0 <HAL_GPIO_Init>

  /*Configure GPIO pin : PA5 */
  GPIO_InitStruct.Pin = GPIO_PIN_5;
 8001ba6:	2320      	movs	r3, #32
 8001ba8:	613b      	str	r3, [r7, #16]
  GPIO_InitStruct.Mode = GPIO_MODE_INPUT;
 8001baa:	2300      	movs	r3, #0
 8001bac:	617b      	str	r3, [r7, #20]
  GPIO_InitStruct.Pull = GPIO_PULLDOWN;
 8001bae:	2302      	movs	r3, #2
 8001bb0:	61bb      	str	r3, [r7, #24]
  HAL_GPIO_Init(GPIOA, &GPIO_InitStruct);
 8001bb2:	f107 0310 	add.w	r3, r7, #16
 8001bb6:	4619      	mov	r1, r3
 8001bb8:	480c      	ldr	r0, [pc, #48]	; (8001bec <MX_GPIO_Init+0x130>)
 8001bba:	f000 ff81 	bl	8002ac0 <HAL_GPIO_Init>

  /*Configure GPIO pins : PB12 PB6 PB7 PB8 */
  GPIO_InitStruct.Pin = GPIO_PIN_12|GPIO_PIN_6|GPIO_PIN_7|GPIO_PIN_8;
 8001bbe:	f44f 538e 	mov.w	r3, #4544	; 0x11c0
 8001bc2:	613b      	str	r3, [r7, #16]
  GPIO_InitStruct.Mode = GPIO_MODE_OUTPUT_PP;
 8001bc4:	2301      	movs	r3, #1
 8001bc6:	617b      	str	r3, [r7, #20]
  GPIO_InitStruct.Pull = GPIO_NOPULL;
 8001bc8:	2300      	movs	r3, #0
 8001bca:	61bb      	str	r3, [r7, #24]
  GPIO_InitStruct.Speed = GPIO_SPEED_FREQ_LOW;
 8001bcc:	2302      	movs	r3, #2
 8001bce:	61fb      	str	r3, [r7, #28]
  HAL_GPIO_Init(GPIOB, &GPIO_InitStruct);
 8001bd0:	f107 0310 	add.w	r3, r7, #16
 8001bd4:	4619      	mov	r1, r3
 8001bd6:	4806      	ldr	r0, [pc, #24]	; (8001bf0 <MX_GPIO_Init+0x134>)
 8001bd8:	f000 ff72 	bl	8002ac0 <HAL_GPIO_Init>

}
 8001bdc:	bf00      	nop
 8001bde:	3720      	adds	r7, #32
 8001be0:	46bd      	mov	sp, r7
 8001be2:	bd80      	pop	{r7, pc}
 8001be4:	40021000 	.word	0x40021000
 8001be8:	40011000 	.word	0x40011000
 8001bec:	40010800 	.word	0x40010800
 8001bf0:	40010c00 	.word	0x40010c00

08001bf4 <HAL_UART_RxCpltCallback>:

/* USER CODE BEGIN 4 */
void HAL_UART_RxCpltCallback(UART_HandleTypeDef *huart){
 8001bf4:	b580      	push	{r7, lr}
 8001bf6:	b082      	sub	sp, #8
 8001bf8:	af00      	add	r7, sp, #0
 8001bfa:	6078      	str	r0, [r7, #4]
	//Parse the received command
	Parse_BL_Input(BleReceiveBuff);
 8001bfc:	4805      	ldr	r0, [pc, #20]	; (8001c14 <HAL_UART_RxCpltCallback+0x20>)
 8001bfe:	f000 fab3 	bl	8002168 <Parse_BL_Input>

	//Flush the Register to prevent Buffer overrun, in case
	//command longer than 7 characters is sent.
	__HAL_UART_FLUSH_DRREGISTER(huart);
 8001c02:	687b      	ldr	r3, [r7, #4]
 8001c04:	681b      	ldr	r3, [r3, #0]
 8001c06:	685b      	ldr	r3, [r3, #4]

	//Start receiving again.
	BL_Receive();
 8001c08:	f000 fd06 	bl	8002618 <BL_Receive>
}
 8001c0c:	bf00      	nop
 8001c0e:	3708      	adds	r7, #8
 8001c10:	46bd      	mov	sp, r7
 8001c12:	bd80      	pop	{r7, pc}
 8001c14:	200003d4 	.word	0x200003d4

08001c18 <Error_Handler>:
/**
  * @brief  This function is executed in case of error occurrence.
  * @retval None
  */
void Error_Handler(void)
{
 8001c18:	b480      	push	{r7}
 8001c1a:	af00      	add	r7, sp, #0
  /* USER CODE BEGIN Error_Handler_Debug */
  /* User can add his own implementation to report the HAL error return state */

  /* USER CODE END Error_Handler_Debug */
}
 8001c1c:	bf00      	nop
 8001c1e:	46bd      	mov	sp, r7
 8001c20:	bc80      	pop	{r7}
 8001c22:	4770      	bx	lr

08001c24 <HAL_MspInit>:
void HAL_TIM_MspPostInit(TIM_HandleTypeDef *htim);
                    /**
  * Initializes the Global MSP.
  */
void HAL_MspInit(void)
{
 8001c24:	b480      	push	{r7}
 8001c26:	b085      	sub	sp, #20
 8001c28:	af00      	add	r7, sp, #0
  /* USER CODE BEGIN MspInit 0 */

  /* USER CODE END MspInit 0 */

  __HAL_RCC_AFIO_CLK_ENABLE();
 8001c2a:	4b15      	ldr	r3, [pc, #84]	; (8001c80 <HAL_MspInit+0x5c>)
 8001c2c:	699b      	ldr	r3, [r3, #24]
 8001c2e:	4a14      	ldr	r2, [pc, #80]	; (8001c80 <HAL_MspInit+0x5c>)
 8001c30:	f043 0301 	orr.w	r3, r3, #1
 8001c34:	6193      	str	r3, [r2, #24]
 8001c36:	4b12      	ldr	r3, [pc, #72]	; (8001c80 <HAL_MspInit+0x5c>)
 8001c38:	699b      	ldr	r3, [r3, #24]
 8001c3a:	f003 0301 	and.w	r3, r3, #1
 8001c3e:	60bb      	str	r3, [r7, #8]
 8001c40:	68bb      	ldr	r3, [r7, #8]
  __HAL_RCC_PWR_CLK_ENABLE();
 8001c42:	4b0f      	ldr	r3, [pc, #60]	; (8001c80 <HAL_MspInit+0x5c>)
 8001c44:	69db      	ldr	r3, [r3, #28]
 8001c46:	4a0e      	ldr	r2, [pc, #56]	; (8001c80 <HAL_MspInit+0x5c>)
 8001c48:	f043 5380 	orr.w	r3, r3, #268435456	; 0x10000000
 8001c4c:	61d3      	str	r3, [r2, #28]
 8001c4e:	4b0c      	ldr	r3, [pc, #48]	; (8001c80 <HAL_MspInit+0x5c>)
 8001c50:	69db      	ldr	r3, [r3, #28]
 8001c52:	f003 5380 	and.w	r3, r3, #268435456	; 0x10000000
 8001c56:	607b      	str	r3, [r7, #4]
 8001c58:	687b      	ldr	r3, [r7, #4]

  /* System interrupt init*/

  /** NOJTAG: JTAG-DP Disabled and SW-DP Enabled 
  */
  __HAL_AFIO_REMAP_SWJ_NOJTAG();
 8001c5a:	4b0a      	ldr	r3, [pc, #40]	; (8001c84 <HAL_MspInit+0x60>)
 8001c5c:	685b      	ldr	r3, [r3, #4]
 8001c5e:	60fb      	str	r3, [r7, #12]
 8001c60:	68fb      	ldr	r3, [r7, #12]
 8001c62:	f023 63e0 	bic.w	r3, r3, #117440512	; 0x7000000
 8001c66:	60fb      	str	r3, [r7, #12]
 8001c68:	68fb      	ldr	r3, [r7, #12]
 8001c6a:	f043 7300 	orr.w	r3, r3, #33554432	; 0x2000000
 8001c6e:	60fb      	str	r3, [r7, #12]
 8001c70:	4a04      	ldr	r2, [pc, #16]	; (8001c84 <HAL_MspInit+0x60>)
 8001c72:	68fb      	ldr	r3, [r7, #12]
 8001c74:	6053      	str	r3, [r2, #4]

  /* USER CODE BEGIN MspInit 1 */

  /* USER CODE END MspInit 1 */
}
 8001c76:	bf00      	nop
 8001c78:	3714      	adds	r7, #20
 8001c7a:	46bd      	mov	sp, r7
 8001c7c:	bc80      	pop	{r7}
 8001c7e:	4770      	bx	lr
 8001c80:	40021000 	.word	0x40021000
 8001c84:	40010000 	.word	0x40010000

08001c88 <HAL_SPI_MspInit>:
* This function configures the hardware resources used in this example
* @param hspi: SPI handle pointer
* @retval None
*/
void HAL_SPI_MspInit(SPI_HandleTypeDef* hspi)
{
 8001c88:	b580      	push	{r7, lr}
 8001c8a:	b088      	sub	sp, #32
 8001c8c:	af00      	add	r7, sp, #0
 8001c8e:	6078      	str	r0, [r7, #4]
  GPIO_InitTypeDef GPIO_InitStruct = {0};
 8001c90:	f107 0310 	add.w	r3, r7, #16
 8001c94:	2200      	movs	r2, #0
 8001c96:	601a      	str	r2, [r3, #0]
 8001c98:	605a      	str	r2, [r3, #4]
 8001c9a:	609a      	str	r2, [r3, #8]
 8001c9c:	60da      	str	r2, [r3, #12]
  if(hspi->Instance==SPI2)
 8001c9e:	687b      	ldr	r3, [r7, #4]
 8001ca0:	681b      	ldr	r3, [r3, #0]
 8001ca2:	4a1c      	ldr	r2, [pc, #112]	; (8001d14 <HAL_SPI_MspInit+0x8c>)
 8001ca4:	4293      	cmp	r3, r2
 8001ca6:	d131      	bne.n	8001d0c <HAL_SPI_MspInit+0x84>
  {
  /* USER CODE BEGIN SPI2_MspInit 0 */

  /* USER CODE END SPI2_MspInit 0 */
    /* Peripheral clock enable */
    __HAL_RCC_SPI2_CLK_ENABLE();
 8001ca8:	4b1b      	ldr	r3, [pc, #108]	; (8001d18 <HAL_SPI_MspInit+0x90>)
 8001caa:	69db      	ldr	r3, [r3, #28]
 8001cac:	4a1a      	ldr	r2, [pc, #104]	; (8001d18 <HAL_SPI_MspInit+0x90>)
 8001cae:	f443 4380 	orr.w	r3, r3, #16384	; 0x4000
 8001cb2:	61d3      	str	r3, [r2, #28]
 8001cb4:	4b18      	ldr	r3, [pc, #96]	; (8001d18 <HAL_SPI_MspInit+0x90>)
 8001cb6:	69db      	ldr	r3, [r3, #28]
 8001cb8:	f403 4380 	and.w	r3, r3, #16384	; 0x4000
 8001cbc:	60fb      	str	r3, [r7, #12]
 8001cbe:	68fb      	ldr	r3, [r7, #12]
  
    __HAL_RCC_GPIOB_CLK_ENABLE();
 8001cc0:	4b15      	ldr	r3, [pc, #84]	; (8001d18 <HAL_SPI_MspInit+0x90>)
 8001cc2:	699b      	ldr	r3, [r3, #24]
 8001cc4:	4a14      	ldr	r2, [pc, #80]	; (8001d18 <HAL_SPI_MspInit+0x90>)
 8001cc6:	f043 0308 	orr.w	r3, r3, #8
 8001cca:	6193      	str	r3, [r2, #24]
 8001ccc:	4b12      	ldr	r3, [pc, #72]	; (8001d18 <HAL_SPI_MspInit+0x90>)
 8001cce:	699b      	ldr	r3, [r3, #24]
 8001cd0:	f003 0308 	and.w	r3, r3, #8
 8001cd4:	60bb      	str	r3, [r7, #8]
 8001cd6:	68bb      	ldr	r3, [r7, #8]
    /**SPI2 GPIO Configuration    
    PB13     ------> SPI2_SCK
    PB14     ------> SPI2_MISO
    PB15     ------> SPI2_MOSI 
    */
    GPIO_InitStruct.Pin = GPIO_PIN_13|GPIO_PIN_15;
 8001cd8:	f44f 4320 	mov.w	r3, #40960	; 0xa000
 8001cdc:	613b      	str	r3, [r7, #16]
    GPIO_InitStruct.Mode = GPIO_MODE_AF_PP;
 8001cde:	2302      	movs	r3, #2
 8001ce0:	617b      	str	r3, [r7, #20]
    GPIO_InitStruct.Speed = GPIO_SPEED_FREQ_HIGH;
 8001ce2:	2303      	movs	r3, #3
 8001ce4:	61fb      	str	r3, [r7, #28]
    HAL_GPIO_Init(GPIOB, &GPIO_InitStruct);
 8001ce6:	f107 0310 	add.w	r3, r7, #16
 8001cea:	4619      	mov	r1, r3
 8001cec:	480b      	ldr	r0, [pc, #44]	; (8001d1c <HAL_SPI_MspInit+0x94>)
 8001cee:	f000 fee7 	bl	8002ac0 <HAL_GPIO_Init>

    GPIO_InitStruct.Pin = GPIO_PIN_14;
 8001cf2:	f44f 4380 	mov.w	r3, #16384	; 0x4000
 8001cf6:	613b      	str	r3, [r7, #16]
    GPIO_InitStruct.Mode = GPIO_MODE_INPUT;
 8001cf8:	2300      	movs	r3, #0
 8001cfa:	617b      	str	r3, [r7, #20]
    GPIO_InitStruct.Pull = GPIO_NOPULL;
 8001cfc:	2300      	movs	r3, #0
 8001cfe:	61bb      	str	r3, [r7, #24]
    HAL_GPIO_Init(GPIOB, &GPIO_InitStruct);
 8001d00:	f107 0310 	add.w	r3, r7, #16
 8001d04:	4619      	mov	r1, r3
 8001d06:	4805      	ldr	r0, [pc, #20]	; (8001d1c <HAL_SPI_MspInit+0x94>)
 8001d08:	f000 feda 	bl	8002ac0 <HAL_GPIO_Init>
  /* USER CODE BEGIN SPI2_MspInit 1 */

  /* USER CODE END SPI2_MspInit 1 */
  }

}
 8001d0c:	bf00      	nop
 8001d0e:	3720      	adds	r7, #32
 8001d10:	46bd      	mov	sp, r7
 8001d12:	bd80      	pop	{r7, pc}
 8001d14:	40003800 	.word	0x40003800
 8001d18:	40021000 	.word	0x40021000
 8001d1c:	40010c00 	.word	0x40010c00

08001d20 <HAL_TIM_PWM_MspInit>:
* This function configures the hardware resources used in this example
* @param htim_pwm: TIM_PWM handle pointer
* @retval None
*/
void HAL_TIM_PWM_MspInit(TIM_HandleTypeDef* htim_pwm)
{
 8001d20:	b480      	push	{r7}
 8001d22:	b085      	sub	sp, #20
 8001d24:	af00      	add	r7, sp, #0
 8001d26:	6078      	str	r0, [r7, #4]
  if(htim_pwm->Instance==TIM3)
 8001d28:	687b      	ldr	r3, [r7, #4]
 8001d2a:	681b      	ldr	r3, [r3, #0]
 8001d2c:	4a09      	ldr	r2, [pc, #36]	; (8001d54 <HAL_TIM_PWM_MspInit+0x34>)
 8001d2e:	4293      	cmp	r3, r2
 8001d30:	d10b      	bne.n	8001d4a <HAL_TIM_PWM_MspInit+0x2a>
  {
  /* USER CODE BEGIN TIM3_MspInit 0 */

  /* USER CODE END TIM3_MspInit 0 */
    /* Peripheral clock enable */
    __HAL_RCC_TIM3_CLK_ENABLE();
 8001d32:	4b09      	ldr	r3, [pc, #36]	; (8001d58 <HAL_TIM_PWM_MspInit+0x38>)
 8001d34:	69db      	ldr	r3, [r3, #28]
 8001d36:	4a08      	ldr	r2, [pc, #32]	; (8001d58 <HAL_TIM_PWM_MspInit+0x38>)
 8001d38:	f043 0302 	orr.w	r3, r3, #2
 8001d3c:	61d3      	str	r3, [r2, #28]
 8001d3e:	4b06      	ldr	r3, [pc, #24]	; (8001d58 <HAL_TIM_PWM_MspInit+0x38>)
 8001d40:	69db      	ldr	r3, [r3, #28]
 8001d42:	f003 0302 	and.w	r3, r3, #2
 8001d46:	60fb      	str	r3, [r7, #12]
 8001d48:	68fb      	ldr	r3, [r7, #12]
  /* USER CODE BEGIN TIM3_MspInit 1 */

  /* USER CODE END TIM3_MspInit 1 */
  }

}
 8001d4a:	bf00      	nop
 8001d4c:	3714      	adds	r7, #20
 8001d4e:	46bd      	mov	sp, r7
 8001d50:	bc80      	pop	{r7}
 8001d52:	4770      	bx	lr
 8001d54:	40000400 	.word	0x40000400
 8001d58:	40021000 	.word	0x40021000

08001d5c <HAL_TIM_MspPostInit>:

void HAL_TIM_MspPostInit(TIM_HandleTypeDef* htim)
{
 8001d5c:	b580      	push	{r7, lr}
 8001d5e:	b088      	sub	sp, #32
 8001d60:	af00      	add	r7, sp, #0
 8001d62:	6078      	str	r0, [r7, #4]
  GPIO_InitTypeDef GPIO_InitStruct = {0};
 8001d64:	f107 0310 	add.w	r3, r7, #16
 8001d68:	2200      	movs	r2, #0
 8001d6a:	601a      	str	r2, [r3, #0]
 8001d6c:	605a      	str	r2, [r3, #4]
 8001d6e:	609a      	str	r2, [r3, #8]
 8001d70:	60da      	str	r2, [r3, #12]
  if(htim->Instance==TIM3)
 8001d72:	687b      	ldr	r3, [r7, #4]
 8001d74:	681b      	ldr	r3, [r3, #0]
 8001d76:	4a0f      	ldr	r2, [pc, #60]	; (8001db4 <HAL_TIM_MspPostInit+0x58>)
 8001d78:	4293      	cmp	r3, r2
 8001d7a:	d117      	bne.n	8001dac <HAL_TIM_MspPostInit+0x50>
  {
  /* USER CODE BEGIN TIM3_MspPostInit 0 */

  /* USER CODE END TIM3_MspPostInit 0 */
  
    __HAL_RCC_GPIOB_CLK_ENABLE();
 8001d7c:	4b0e      	ldr	r3, [pc, #56]	; (8001db8 <HAL_TIM_MspPostInit+0x5c>)
 8001d7e:	699b      	ldr	r3, [r3, #24]
 8001d80:	4a0d      	ldr	r2, [pc, #52]	; (8001db8 <HAL_TIM_MspPostInit+0x5c>)
 8001d82:	f043 0308 	orr.w	r3, r3, #8
 8001d86:	6193      	str	r3, [r2, #24]
 8001d88:	4b0b      	ldr	r3, [pc, #44]	; (8001db8 <HAL_TIM_MspPostInit+0x5c>)
 8001d8a:	699b      	ldr	r3, [r3, #24]
 8001d8c:	f003 0308 	and.w	r3, r3, #8
 8001d90:	60fb      	str	r3, [r7, #12]
 8001d92:	68fb      	ldr	r3, [r7, #12]
    /**TIM3 GPIO Configuration    
    PB1     ------> TIM3_CH4 
    */
    GPIO_InitStruct.Pin = GPIO_PIN_1;
 8001d94:	2302      	movs	r3, #2
 8001d96:	613b      	str	r3, [r7, #16]
    GPIO_InitStruct.Mode = GPIO_MODE_AF_PP;
 8001d98:	2302      	movs	r3, #2
 8001d9a:	617b      	str	r3, [r7, #20]
    GPIO_InitStruct.Speed = GPIO_SPEED_FREQ_LOW;
 8001d9c:	2302      	movs	r3, #2
 8001d9e:	61fb      	str	r3, [r7, #28]
    HAL_GPIO_Init(GPIOB, &GPIO_InitStruct);
 8001da0:	f107 0310 	add.w	r3, r7, #16
 8001da4:	4619      	mov	r1, r3
 8001da6:	4805      	ldr	r0, [pc, #20]	; (8001dbc <HAL_TIM_MspPostInit+0x60>)
 8001da8:	f000 fe8a 	bl	8002ac0 <HAL_GPIO_Init>
  /* USER CODE BEGIN TIM3_MspPostInit 1 */

  /* USER CODE END TIM3_MspPostInit 1 */
  }

}
 8001dac:	bf00      	nop
 8001dae:	3720      	adds	r7, #32
 8001db0:	46bd      	mov	sp, r7
 8001db2:	bd80      	pop	{r7, pc}
 8001db4:	40000400 	.word	0x40000400
 8001db8:	40021000 	.word	0x40021000
 8001dbc:	40010c00 	.word	0x40010c00

08001dc0 <HAL_UART_MspInit>:
* This function configures the hardware resources used in this example
* @param huart: UART handle pointer
* @retval None
*/
void HAL_UART_MspInit(UART_HandleTypeDef* huart)
{
 8001dc0:	b580      	push	{r7, lr}
 8001dc2:	b088      	sub	sp, #32
 8001dc4:	af00      	add	r7, sp, #0
 8001dc6:	6078      	str	r0, [r7, #4]
  GPIO_InitTypeDef GPIO_InitStruct = {0};
 8001dc8:	f107 0310 	add.w	r3, r7, #16
 8001dcc:	2200      	movs	r2, #0
 8001dce:	601a      	str	r2, [r3, #0]
 8001dd0:	605a      	str	r2, [r3, #4]
 8001dd2:	609a      	str	r2, [r3, #8]
 8001dd4:	60da      	str	r2, [r3, #12]
  if(huart->Instance==USART1)
 8001dd6:	687b      	ldr	r3, [r7, #4]
 8001dd8:	681b      	ldr	r3, [r3, #0]
 8001dda:	4a20      	ldr	r2, [pc, #128]	; (8001e5c <HAL_UART_MspInit+0x9c>)
 8001ddc:	4293      	cmp	r3, r2
 8001dde:	d139      	bne.n	8001e54 <HAL_UART_MspInit+0x94>
  {
  /* USER CODE BEGIN USART1_MspInit 0 */

  /* USER CODE END USART1_MspInit 0 */
    /* Peripheral clock enable */
    __HAL_RCC_USART1_CLK_ENABLE();
 8001de0:	4b1f      	ldr	r3, [pc, #124]	; (8001e60 <HAL_UART_MspInit+0xa0>)
 8001de2:	699b      	ldr	r3, [r3, #24]
 8001de4:	4a1e      	ldr	r2, [pc, #120]	; (8001e60 <HAL_UART_MspInit+0xa0>)
 8001de6:	f443 4380 	orr.w	r3, r3, #16384	; 0x4000
 8001dea:	6193      	str	r3, [r2, #24]
 8001dec:	4b1c      	ldr	r3, [pc, #112]	; (8001e60 <HAL_UART_MspInit+0xa0>)
 8001dee:	699b      	ldr	r3, [r3, #24]
 8001df0:	f403 4380 	and.w	r3, r3, #16384	; 0x4000
 8001df4:	60fb      	str	r3, [r7, #12]
 8001df6:	68fb      	ldr	r3, [r7, #12]
  
    __HAL_RCC_GPIOA_CLK_ENABLE();
 8001df8:	4b19      	ldr	r3, [pc, #100]	; (8001e60 <HAL_UART_MspInit+0xa0>)
 8001dfa:	699b      	ldr	r3, [r3, #24]
 8001dfc:	4a18      	ldr	r2, [pc, #96]	; (8001e60 <HAL_UART_MspInit+0xa0>)
 8001dfe:	f043 0304 	orr.w	r3, r3, #4
 8001e02:	6193      	str	r3, [r2, #24]
 8001e04:	4b16      	ldr	r3, [pc, #88]	; (8001e60 <HAL_UART_MspInit+0xa0>)
 8001e06:	699b      	ldr	r3, [r3, #24]
 8001e08:	f003 0304 	and.w	r3, r3, #4
 8001e0c:	60bb      	str	r3, [r7, #8]
 8001e0e:	68bb      	ldr	r3, [r7, #8]
    /**USART1 GPIO Configuration    
    PA9     ------> USART1_TX
    PA10     ------> USART1_RX 
    */
    GPIO_InitStruct.Pin = GPIO_PIN_9;
 8001e10:	f44f 7300 	mov.w	r3, #512	; 0x200
 8001e14:	613b      	str	r3, [r7, #16]
    GPIO_InitStruct.Mode = GPIO_MODE_AF_PP;
 8001e16:	2302      	movs	r3, #2
 8001e18:	617b      	str	r3, [r7, #20]
    GPIO_InitStruct.Speed = GPIO_SPEED_FREQ_HIGH;
 8001e1a:	2303      	movs	r3, #3
 8001e1c:	61fb      	str	r3, [r7, #28]
    HAL_GPIO_Init(GPIOA, &GPIO_InitStruct);
 8001e1e:	f107 0310 	add.w	r3, r7, #16
 8001e22:	4619      	mov	r1, r3
 8001e24:	480f      	ldr	r0, [pc, #60]	; (8001e64 <HAL_UART_MspInit+0xa4>)
 8001e26:	f000 fe4b 	bl	8002ac0 <HAL_GPIO_Init>

    GPIO_InitStruct.Pin = GPIO_PIN_10;
 8001e2a:	f44f 6380 	mov.w	r3, #1024	; 0x400
 8001e2e:	613b      	str	r3, [r7, #16]
    GPIO_InitStruct.Mode = GPIO_MODE_INPUT;
 8001e30:	2300      	movs	r3, #0
 8001e32:	617b      	str	r3, [r7, #20]
    GPIO_InitStruct.Pull = GPIO_NOPULL;
 8001e34:	2300      	movs	r3, #0
 8001e36:	61bb      	str	r3, [r7, #24]
    HAL_GPIO_Init(GPIOA, &GPIO_InitStruct);
 8001e38:	f107 0310 	add.w	r3, r7, #16
 8001e3c:	4619      	mov	r1, r3
 8001e3e:	4809      	ldr	r0, [pc, #36]	; (8001e64 <HAL_UART_MspInit+0xa4>)
 8001e40:	f000 fe3e 	bl	8002ac0 <HAL_GPIO_Init>

    /* USART1 interrupt Init */
    HAL_NVIC_SetPriority(USART1_IRQn, 0, 0);
 8001e44:	2200      	movs	r2, #0
 8001e46:	2100      	movs	r1, #0
 8001e48:	2025      	movs	r0, #37	; 0x25
 8001e4a:	f000 fd8c 	bl	8002966 <HAL_NVIC_SetPriority>
    HAL_NVIC_EnableIRQ(USART1_IRQn);
 8001e4e:	2025      	movs	r0, #37	; 0x25
 8001e50:	f000 fda5 	bl	800299e <HAL_NVIC_EnableIRQ>
  /* USER CODE BEGIN USART1_MspInit 1 */

  /* USER CODE END USART1_MspInit 1 */
  }

}
 8001e54:	bf00      	nop
 8001e56:	3720      	adds	r7, #32
 8001e58:	46bd      	mov	sp, r7
 8001e5a:	bd80      	pop	{r7, pc}
 8001e5c:	40013800 	.word	0x40013800
 8001e60:	40021000 	.word	0x40021000
 8001e64:	40010800 	.word	0x40010800

08001e68 <NMI_Handler>:
/******************************************************************************/
/**
  * @brief This function handles Non maskable interrupt.
  */
void NMI_Handler(void)
{
 8001e68:	b480      	push	{r7}
 8001e6a:	af00      	add	r7, sp, #0

  /* USER CODE END NonMaskableInt_IRQn 0 */
  /* USER CODE BEGIN NonMaskableInt_IRQn 1 */

  /* USER CODE END NonMaskableInt_IRQn 1 */
}
 8001e6c:	bf00      	nop
 8001e6e:	46bd      	mov	sp, r7
 8001e70:	bc80      	pop	{r7}
 8001e72:	4770      	bx	lr

08001e74 <HardFault_Handler>:

/**
  * @brief This function handles Hard fault interrupt.
  */
void HardFault_Handler(void)
{
 8001e74:	b480      	push	{r7}
 8001e76:	af00      	add	r7, sp, #0
  /* USER CODE BEGIN HardFault_IRQn 0 */

  /* USER CODE END HardFault_IRQn 0 */
  while (1)
 8001e78:	e7fe      	b.n	8001e78 <HardFault_Handler+0x4>

08001e7a <MemManage_Handler>:

/**
  * @brief This function handles Memory management fault.
  */
void MemManage_Handler(void)
{
 8001e7a:	b480      	push	{r7}
 8001e7c:	af00      	add	r7, sp, #0
  /* USER CODE BEGIN MemoryManagement_IRQn 0 */

  /* USER CODE END MemoryManagement_IRQn 0 */
  while (1)
 8001e7e:	e7fe      	b.n	8001e7e <MemManage_Handler+0x4>

08001e80 <BusFault_Handler>:

/**
  * @brief This function handles Prefetch fault, memory access fault.
  */
void BusFault_Handler(void)
{
 8001e80:	b480      	push	{r7}
 8001e82:	af00      	add	r7, sp, #0
  /* USER CODE BEGIN BusFault_IRQn 0 */

  /* USER CODE END BusFault_IRQn 0 */
  while (1)
 8001e84:	e7fe      	b.n	8001e84 <BusFault_Handler+0x4>

08001e86 <UsageFault_Handler>:

/**
  * @brief This function handles Undefined instruction or illegal state.
  */
void UsageFault_Handler(void)
{
 8001e86:	b480      	push	{r7}
 8001e88:	af00      	add	r7, sp, #0
  /* USER CODE BEGIN UsageFault_IRQn 0 */

  /* USER CODE END UsageFault_IRQn 0 */
  while (1)
 8001e8a:	e7fe      	b.n	8001e8a <UsageFault_Handler+0x4>

08001e8c <SVC_Handler>:

/**
  * @brief This function handles System service call via SWI instruction.
  */
void SVC_Handler(void)
{
 8001e8c:	b480      	push	{r7}
 8001e8e:	af00      	add	r7, sp, #0

  /* USER CODE END SVCall_IRQn 0 */
  /* USER CODE BEGIN SVCall_IRQn 1 */

  /* USER CODE END SVCall_IRQn 1 */
}
 8001e90:	bf00      	nop
 8001e92:	46bd      	mov	sp, r7
 8001e94:	bc80      	pop	{r7}
 8001e96:	4770      	bx	lr

08001e98 <DebugMon_Handler>:

/**
  * @brief This function handles Debug monitor.
  */
void DebugMon_Handler(void)
{
 8001e98:	b480      	push	{r7}
 8001e9a:	af00      	add	r7, sp, #0

  /* USER CODE END DebugMonitor_IRQn 0 */
  /* USER CODE BEGIN DebugMonitor_IRQn 1 */

  /* USER CODE END DebugMonitor_IRQn 1 */
}
 8001e9c:	bf00      	nop
 8001e9e:	46bd      	mov	sp, r7
 8001ea0:	bc80      	pop	{r7}
 8001ea2:	4770      	bx	lr

08001ea4 <PendSV_Handler>:

/**
  * @brief This function handles Pendable request for system service.
  */
void PendSV_Handler(void)
{
 8001ea4:	b480      	push	{r7}
 8001ea6:	af00      	add	r7, sp, #0

  /* USER CODE END PendSV_IRQn 0 */
  /* USER CODE BEGIN PendSV_IRQn 1 */

  /* USER CODE END PendSV_IRQn 1 */
}
 8001ea8:	bf00      	nop
 8001eaa:	46bd      	mov	sp, r7
 8001eac:	bc80      	pop	{r7}
 8001eae:	4770      	bx	lr

08001eb0 <SysTick_Handler>:

/**
  * @brief This function handles System tick timer.
  */
void SysTick_Handler(void)
{
 8001eb0:	b580      	push	{r7, lr}
 8001eb2:	af00      	add	r7, sp, #0
  /* USER CODE BEGIN SysTick_IRQn 0 */

  /* USER CODE END SysTick_IRQn 0 */
  HAL_IncTick();
 8001eb4:	f000 fc42 	bl	800273c <HAL_IncTick>
  /* USER CODE BEGIN SysTick_IRQn 1 */

  /* USER CODE END SysTick_IRQn 1 */
}
 8001eb8:	bf00      	nop
 8001eba:	bd80      	pop	{r7, pc}

08001ebc <USB_LP_CAN1_RX0_IRQHandler>:

/**
  * @brief This function handles USB low priority or CAN RX0 interrupts.
  */
void USB_LP_CAN1_RX0_IRQHandler(void)
{
 8001ebc:	b580      	push	{r7, lr}
 8001ebe:	af00      	add	r7, sp, #0
  /* USER CODE BEGIN USB_LP_CAN1_RX0_IRQn 0 */

  /* USER CODE END USB_LP_CAN1_RX0_IRQn 0 */
  HAL_PCD_IRQHandler(&hpcd_USB_FS);
 8001ec0:	4802      	ldr	r0, [pc, #8]	; (8001ecc <USB_LP_CAN1_RX0_IRQHandler+0x10>)
 8001ec2:	f001 f88d 	bl	8002fe0 <HAL_PCD_IRQHandler>
  /* USER CODE BEGIN USB_LP_CAN1_RX0_IRQn 1 */

  /* USER CODE END USB_LP_CAN1_RX0_IRQn 1 */
}
 8001ec6:	bf00      	nop
 8001ec8:	bd80      	pop	{r7, pc}
 8001eca:	bf00      	nop
 8001ecc:	20001434 	.word	0x20001434

08001ed0 <USART1_IRQHandler>:

/**
  * @brief This function handles USART1 global interrupt.
  */
void USART1_IRQHandler(void)
{
 8001ed0:	b580      	push	{r7, lr}
 8001ed2:	af00      	add	r7, sp, #0
  /* USER CODE BEGIN USART1_IRQn 0 */

  /* USER CODE END USART1_IRQn 0 */
  HAL_UART_IRQHandler(&huart1);
 8001ed4:	4802      	ldr	r0, [pc, #8]	; (8001ee0 <USART1_IRQHandler+0x10>)
 8001ed6:	f003 fab7 	bl	8005448 <HAL_UART_IRQHandler>
  /* USER CODE BEGIN USART1_IRQn 1 */

  /* USER CODE END USART1_IRQn 1 */
}
 8001eda:	bf00      	nop
 8001edc:	bd80      	pop	{r7, pc}
 8001ede:	bf00      	nop
 8001ee0:	20000758 	.word	0x20000758

08001ee4 <_sbrk>:
/**
 _sbrk
 Increase program data space. Malloc and related functions depend on this
**/
caddr_t _sbrk(int incr)
{
 8001ee4:	b580      	push	{r7, lr}
 8001ee6:	b084      	sub	sp, #16
 8001ee8:	af00      	add	r7, sp, #0
 8001eea:	6078      	str	r0, [r7, #4]
	extern char end asm("end");
	static char *heap_end;
	char *prev_heap_end;

	if (heap_end == 0)
 8001eec:	4b11      	ldr	r3, [pc, #68]	; (8001f34 <_sbrk+0x50>)
 8001eee:	681b      	ldr	r3, [r3, #0]
 8001ef0:	2b00      	cmp	r3, #0
 8001ef2:	d102      	bne.n	8001efa <_sbrk+0x16>
		heap_end = &end;
 8001ef4:	4b0f      	ldr	r3, [pc, #60]	; (8001f34 <_sbrk+0x50>)
 8001ef6:	4a10      	ldr	r2, [pc, #64]	; (8001f38 <_sbrk+0x54>)
 8001ef8:	601a      	str	r2, [r3, #0]

	prev_heap_end = heap_end;
 8001efa:	4b0e      	ldr	r3, [pc, #56]	; (8001f34 <_sbrk+0x50>)
 8001efc:	681b      	ldr	r3, [r3, #0]
 8001efe:	60fb      	str	r3, [r7, #12]
	if (heap_end + incr > stack_ptr)
 8001f00:	4b0c      	ldr	r3, [pc, #48]	; (8001f34 <_sbrk+0x50>)
 8001f02:	681a      	ldr	r2, [r3, #0]
 8001f04:	687b      	ldr	r3, [r7, #4]
 8001f06:	4413      	add	r3, r2
 8001f08:	466a      	mov	r2, sp
 8001f0a:	4293      	cmp	r3, r2
 8001f0c:	d907      	bls.n	8001f1e <_sbrk+0x3a>
	{
		errno = ENOMEM;
 8001f0e:	f006 ff37 	bl	8008d80 <__errno>
 8001f12:	4602      	mov	r2, r0
 8001f14:	230c      	movs	r3, #12
 8001f16:	6013      	str	r3, [r2, #0]
		return (caddr_t) -1;
 8001f18:	f04f 33ff 	mov.w	r3, #4294967295
 8001f1c:	e006      	b.n	8001f2c <_sbrk+0x48>
	}

	heap_end += incr;
 8001f1e:	4b05      	ldr	r3, [pc, #20]	; (8001f34 <_sbrk+0x50>)
 8001f20:	681a      	ldr	r2, [r3, #0]
 8001f22:	687b      	ldr	r3, [r7, #4]
 8001f24:	4413      	add	r3, r2
 8001f26:	4a03      	ldr	r2, [pc, #12]	; (8001f34 <_sbrk+0x50>)
 8001f28:	6013      	str	r3, [r2, #0]

	return (caddr_t) prev_heap_end;
 8001f2a:	68fb      	ldr	r3, [r7, #12]
}
 8001f2c:	4618      	mov	r0, r3
 8001f2e:	3710      	adds	r7, #16
 8001f30:	46bd      	mov	sp, r7
 8001f32:	bd80      	pop	{r7, pc}
 8001f34:	2000043c 	.word	0x2000043c
 8001f38:	200016a8 	.word	0x200016a8

08001f3c <SystemInit>:
  * @note   This function should be used only after reset.
  * @param  None
  * @retval None
  */
void SystemInit (void)
{
 8001f3c:	b480      	push	{r7}
 8001f3e:	af00      	add	r7, sp, #0
  /* Reset the RCC clock configuration to the default reset state(for debug purpose) */
  /* Set HSION bit */
  RCC->CR |= 0x00000001U;
 8001f40:	4b15      	ldr	r3, [pc, #84]	; (8001f98 <SystemInit+0x5c>)
 8001f42:	681b      	ldr	r3, [r3, #0]
 8001f44:	4a14      	ldr	r2, [pc, #80]	; (8001f98 <SystemInit+0x5c>)
 8001f46:	f043 0301 	orr.w	r3, r3, #1
 8001f4a:	6013      	str	r3, [r2, #0]

  /* Reset SW, HPRE, PPRE1, PPRE2, ADCPRE and MCO bits */
#if !defined(STM32F105xC) && !defined(STM32F107xC)
  RCC->CFGR &= 0xF8FF0000U;
 8001f4c:	4b12      	ldr	r3, [pc, #72]	; (8001f98 <SystemInit+0x5c>)
 8001f4e:	685a      	ldr	r2, [r3, #4]
 8001f50:	4911      	ldr	r1, [pc, #68]	; (8001f98 <SystemInit+0x5c>)
 8001f52:	4b12      	ldr	r3, [pc, #72]	; (8001f9c <SystemInit+0x60>)
 8001f54:	4013      	ands	r3, r2
 8001f56:	604b      	str	r3, [r1, #4]
#else
  RCC->CFGR &= 0xF0FF0000U;
#endif /* STM32F105xC */   
  
  /* Reset HSEON, CSSON and PLLON bits */
  RCC->CR &= 0xFEF6FFFFU;
 8001f58:	4b0f      	ldr	r3, [pc, #60]	; (8001f98 <SystemInit+0x5c>)
 8001f5a:	681b      	ldr	r3, [r3, #0]
 8001f5c:	4a0e      	ldr	r2, [pc, #56]	; (8001f98 <SystemInit+0x5c>)
 8001f5e:	f023 7384 	bic.w	r3, r3, #17301504	; 0x1080000
 8001f62:	f423 3380 	bic.w	r3, r3, #65536	; 0x10000
 8001f66:	6013      	str	r3, [r2, #0]

  /* Reset HSEBYP bit */
  RCC->CR &= 0xFFFBFFFFU;
 8001f68:	4b0b      	ldr	r3, [pc, #44]	; (8001f98 <SystemInit+0x5c>)
 8001f6a:	681b      	ldr	r3, [r3, #0]
 8001f6c:	4a0a      	ldr	r2, [pc, #40]	; (8001f98 <SystemInit+0x5c>)
 8001f6e:	f423 2380 	bic.w	r3, r3, #262144	; 0x40000
 8001f72:	6013      	str	r3, [r2, #0]

  /* Reset PLLSRC, PLLXTPRE, PLLMUL and USBPRE/OTGFSPRE bits */
  RCC->CFGR &= 0xFF80FFFFU;
 8001f74:	4b08      	ldr	r3, [pc, #32]	; (8001f98 <SystemInit+0x5c>)
 8001f76:	685b      	ldr	r3, [r3, #4]
 8001f78:	4a07      	ldr	r2, [pc, #28]	; (8001f98 <SystemInit+0x5c>)
 8001f7a:	f423 03fe 	bic.w	r3, r3, #8323072	; 0x7f0000
 8001f7e:	6053      	str	r3, [r2, #4]

  /* Reset CFGR2 register */
  RCC->CFGR2 = 0x00000000U;      
#else
  /* Disable all interrupts and clear pending bits  */
  RCC->CIR = 0x009F0000U;
 8001f80:	4b05      	ldr	r3, [pc, #20]	; (8001f98 <SystemInit+0x5c>)
 8001f82:	f44f 021f 	mov.w	r2, #10420224	; 0x9f0000
 8001f86:	609a      	str	r2, [r3, #8]
#endif 

#ifdef VECT_TAB_SRAM
  SCB->VTOR = SRAM_BASE | VECT_TAB_OFFSET; /* Vector Table Relocation in Internal SRAM. */
#else
  SCB->VTOR = FLASH_BASE | VECT_TAB_OFFSET; /* Vector Table Relocation in Internal FLASH. */
 8001f88:	4b05      	ldr	r3, [pc, #20]	; (8001fa0 <SystemInit+0x64>)
 8001f8a:	f04f 6200 	mov.w	r2, #134217728	; 0x8000000
 8001f8e:	609a      	str	r2, [r3, #8]
#endif 
}
 8001f90:	bf00      	nop
 8001f92:	46bd      	mov	sp, r7
 8001f94:	bc80      	pop	{r7}
 8001f96:	4770      	bx	lr
 8001f98:	40021000 	.word	0x40021000
 8001f9c:	f8ff0000 	.word	0xf8ff0000
 8001fa0:	e000ed00 	.word	0xe000ed00

08001fa4 <Set_CircuitPr>:

/*
 * Commands for updating ventilator parameters
*/
/*=============START===============*/
void Set_CircuitPr(float newValue){
 8001fa4:	b480      	push	{r7}
 8001fa6:	b083      	sub	sp, #12
 8001fa8:	af00      	add	r7, sp, #0
 8001faa:	6078      	str	r0, [r7, #4]
	CircuitPr=newValue;
 8001fac:	4a03      	ldr	r2, [pc, #12]	; (8001fbc <Set_CircuitPr+0x18>)
 8001fae:	687b      	ldr	r3, [r7, #4]
 8001fb0:	6013      	str	r3, [r2, #0]
}
 8001fb2:	bf00      	nop
 8001fb4:	370c      	adds	r7, #12
 8001fb6:	46bd      	mov	sp, r7
 8001fb8:	bc80      	pop	{r7}
 8001fba:	4770      	bx	lr
 8001fbc:	20000004 	.word	0x20000004

08001fc0 <Set_LungPr>:

void Set_LungPr(float newValue){
 8001fc0:	b480      	push	{r7}
 8001fc2:	b083      	sub	sp, #12
 8001fc4:	af00      	add	r7, sp, #0
 8001fc6:	6078      	str	r0, [r7, #4]
	LungPr=newValue;
 8001fc8:	4a03      	ldr	r2, [pc, #12]	; (8001fd8 <Set_LungPr+0x18>)
 8001fca:	687b      	ldr	r3, [r7, #4]
 8001fcc:	6013      	str	r3, [r2, #0]
}
 8001fce:	bf00      	nop
 8001fd0:	370c      	adds	r7, #12
 8001fd2:	46bd      	mov	sp, r7
 8001fd4:	bc80      	pop	{r7}
 8001fd6:	4770      	bx	lr
 8001fd8:	20000008 	.word	0x20000008

08001fdc <Set_MaxPr>:

void Set_MaxPr(float newValue){
 8001fdc:	b480      	push	{r7}
 8001fde:	b083      	sub	sp, #12
 8001fe0:	af00      	add	r7, sp, #0
 8001fe2:	6078      	str	r0, [r7, #4]
	MaxPr=newValue;
 8001fe4:	4a03      	ldr	r2, [pc, #12]	; (8001ff4 <Set_MaxPr+0x18>)
 8001fe6:	687b      	ldr	r3, [r7, #4]
 8001fe8:	6013      	str	r3, [r2, #0]
}
 8001fea:	bf00      	nop
 8001fec:	370c      	adds	r7, #12
 8001fee:	46bd      	mov	sp, r7
 8001ff0:	bc80      	pop	{r7}
 8001ff2:	4770      	bx	lr
 8001ff4:	2000000c 	.word	0x2000000c

08001ff8 <Set_PEEP>:

void Set_PEEP(float newValue){
 8001ff8:	b480      	push	{r7}
 8001ffa:	b083      	sub	sp, #12
 8001ffc:	af00      	add	r7, sp, #0
 8001ffe:	6078      	str	r0, [r7, #4]
	Peep=newValue;
 8002000:	4a03      	ldr	r2, [pc, #12]	; (8002010 <Set_PEEP+0x18>)
 8002002:	687b      	ldr	r3, [r7, #4]
 8002004:	6013      	str	r3, [r2, #0]
}
 8002006:	bf00      	nop
 8002008:	370c      	adds	r7, #12
 800200a:	46bd      	mov	sp, r7
 800200c:	bc80      	pop	{r7}
 800200e:	4770      	bx	lr
 8002010:	20000010 	.word	0x20000010

08002014 <Set_BreathRate>:

void Set_BreathRate(float newValue){
 8002014:	b480      	push	{r7}
 8002016:	b083      	sub	sp, #12
 8002018:	af00      	add	r7, sp, #0
 800201a:	6078      	str	r0, [r7, #4]
	BreathRate=newValue;
 800201c:	4a03      	ldr	r2, [pc, #12]	; (800202c <Set_BreathRate+0x18>)
 800201e:	687b      	ldr	r3, [r7, #4]
 8002020:	6013      	str	r3, [r2, #0]
}
 8002022:	bf00      	nop
 8002024:	370c      	adds	r7, #12
 8002026:	46bd      	mov	sp, r7
 8002028:	bc80      	pop	{r7}
 800202a:	4770      	bx	lr
 800202c:	20000014 	.word	0x20000014

08002030 <Set_InspirationTime>:

void Set_InspirationTime(float newValue){
 8002030:	b480      	push	{r7}
 8002032:	b083      	sub	sp, #12
 8002034:	af00      	add	r7, sp, #0
 8002036:	6078      	str	r0, [r7, #4]
	InspirationTime=newValue;
 8002038:	4a03      	ldr	r2, [pc, #12]	; (8002048 <Set_InspirationTime+0x18>)
 800203a:	687b      	ldr	r3, [r7, #4]
 800203c:	6013      	str	r3, [r2, #0]
}
 800203e:	bf00      	nop
 8002040:	370c      	adds	r7, #12
 8002042:	46bd      	mov	sp, r7
 8002044:	bc80      	pop	{r7}
 8002046:	4770      	bx	lr
 8002048:	20000018 	.word	0x20000018

0800204c <Set_TidalVolume>:

void Set_TidalVolume(float newValue){
 800204c:	b480      	push	{r7}
 800204e:	b083      	sub	sp, #12
 8002050:	af00      	add	r7, sp, #0
 8002052:	6078      	str	r0, [r7, #4]
	TidalVolume=newValue;
 8002054:	4a03      	ldr	r2, [pc, #12]	; (8002064 <Set_TidalVolume+0x18>)
 8002056:	687b      	ldr	r3, [r7, #4]
 8002058:	6013      	str	r3, [r2, #0]
}
 800205a:	bf00      	nop
 800205c:	370c      	adds	r7, #12
 800205e:	46bd      	mov	sp, r7
 8002060:	bc80      	pop	{r7}
 8002062:	4770      	bx	lr
 8002064:	2000001c 	.word	0x2000001c

08002068 <Show_Parameters>:
/*=============END===============*/

/*
 * Transmit the current values of all Parameters.
*/
void Show_Parameters(void){
 8002068:	b580      	push	{r7, lr}
 800206a:	af00      	add	r7, sp, #0
	BL_transmit("Circuit Pressure",CircuitPr);
 800206c:	4b15      	ldr	r3, [pc, #84]	; (80020c4 <Show_Parameters+0x5c>)
 800206e:	681b      	ldr	r3, [r3, #0]
 8002070:	4619      	mov	r1, r3
 8002072:	4815      	ldr	r0, [pc, #84]	; (80020c8 <Show_Parameters+0x60>)
 8002074:	f000 fa98 	bl	80025a8 <BL_transmit>
	BL_transmit("Lung Pressure",LungPr);
 8002078:	4b14      	ldr	r3, [pc, #80]	; (80020cc <Show_Parameters+0x64>)
 800207a:	681b      	ldr	r3, [r3, #0]
 800207c:	4619      	mov	r1, r3
 800207e:	4814      	ldr	r0, [pc, #80]	; (80020d0 <Show_Parameters+0x68>)
 8002080:	f000 fa92 	bl	80025a8 <BL_transmit>
	BL_transmit("Max Pressure",MaxPr);
 8002084:	4b13      	ldr	r3, [pc, #76]	; (80020d4 <Show_Parameters+0x6c>)
 8002086:	681b      	ldr	r3, [r3, #0]
 8002088:	4619      	mov	r1, r3
 800208a:	4813      	ldr	r0, [pc, #76]	; (80020d8 <Show_Parameters+0x70>)
 800208c:	f000 fa8c 	bl	80025a8 <BL_transmit>
	BL_transmit("Peep",Peep);
 8002090:	4b12      	ldr	r3, [pc, #72]	; (80020dc <Show_Parameters+0x74>)
 8002092:	681b      	ldr	r3, [r3, #0]
 8002094:	4619      	mov	r1, r3
 8002096:	4812      	ldr	r0, [pc, #72]	; (80020e0 <Show_Parameters+0x78>)
 8002098:	f000 fa86 	bl	80025a8 <BL_transmit>
	BL_transmit("Breathe Rate",BreathRate);
 800209c:	4b11      	ldr	r3, [pc, #68]	; (80020e4 <Show_Parameters+0x7c>)
 800209e:	681b      	ldr	r3, [r3, #0]
 80020a0:	4619      	mov	r1, r3
 80020a2:	4811      	ldr	r0, [pc, #68]	; (80020e8 <Show_Parameters+0x80>)
 80020a4:	f000 fa80 	bl	80025a8 <BL_transmit>
	BL_transmit("Inspiration Time",InspirationTime);
 80020a8:	4b10      	ldr	r3, [pc, #64]	; (80020ec <Show_Parameters+0x84>)
 80020aa:	681b      	ldr	r3, [r3, #0]
 80020ac:	4619      	mov	r1, r3
 80020ae:	4810      	ldr	r0, [pc, #64]	; (80020f0 <Show_Parameters+0x88>)
 80020b0:	f000 fa7a 	bl	80025a8 <BL_transmit>
	BL_transmit("Tidal Volume",TidalVolume);
 80020b4:	4b0f      	ldr	r3, [pc, #60]	; (80020f4 <Show_Parameters+0x8c>)
 80020b6:	681b      	ldr	r3, [r3, #0]
 80020b8:	4619      	mov	r1, r3
 80020ba:	480f      	ldr	r0, [pc, #60]	; (80020f8 <Show_Parameters+0x90>)
 80020bc:	f000 fa74 	bl	80025a8 <BL_transmit>
}
 80020c0:	bf00      	nop
 80020c2:	bd80      	pop	{r7, pc}
 80020c4:	20000004 	.word	0x20000004
 80020c8:	0800c3ac 	.word	0x0800c3ac
 80020cc:	20000008 	.word	0x20000008
 80020d0:	0800c3c0 	.word	0x0800c3c0
 80020d4:	2000000c 	.word	0x2000000c
 80020d8:	0800c3d0 	.word	0x0800c3d0
 80020dc:	20000010 	.word	0x20000010
 80020e0:	0800c3e0 	.word	0x0800c3e0
 80020e4:	20000014 	.word	0x20000014
 80020e8:	0800c3e8 	.word	0x0800c3e8
 80020ec:	20000018 	.word	0x20000018
 80020f0:	0800c3f8 	.word	0x0800c3f8
 80020f4:	2000001c 	.word	0x2000001c
 80020f8:	0800c40c 	.word	0x0800c40c

080020fc <Pressure_Sensor_Values>:

/*
 * Transmit the values of all Pressure vaiables
*/
void Pressure_Sensor_Values(void){
 80020fc:	b580      	push	{r7, lr}
 80020fe:	af00      	add	r7, sp, #0
	BL_transmit("PS1",PressureOut1);
 8002100:	4b0f      	ldr	r3, [pc, #60]	; (8002140 <Pressure_Sensor_Values+0x44>)
 8002102:	681b      	ldr	r3, [r3, #0]
 8002104:	4619      	mov	r1, r3
 8002106:	480f      	ldr	r0, [pc, #60]	; (8002144 <Pressure_Sensor_Values+0x48>)
 8002108:	f000 fa4e 	bl	80025a8 <BL_transmit>
	BL_transmit("PS2",PressureOut2);
 800210c:	4b0e      	ldr	r3, [pc, #56]	; (8002148 <Pressure_Sensor_Values+0x4c>)
 800210e:	681b      	ldr	r3, [r3, #0]
 8002110:	4619      	mov	r1, r3
 8002112:	480e      	ldr	r0, [pc, #56]	; (800214c <Pressure_Sensor_Values+0x50>)
 8002114:	f000 fa48 	bl	80025a8 <BL_transmit>
	BL_transmit("PS3",PressureOut3);
 8002118:	4b0d      	ldr	r3, [pc, #52]	; (8002150 <Pressure_Sensor_Values+0x54>)
 800211a:	681b      	ldr	r3, [r3, #0]
 800211c:	4619      	mov	r1, r3
 800211e:	480d      	ldr	r0, [pc, #52]	; (8002154 <Pressure_Sensor_Values+0x58>)
 8002120:	f000 fa42 	bl	80025a8 <BL_transmit>
	BL_transmit("PS4",PressureOut4);
 8002124:	4b0c      	ldr	r3, [pc, #48]	; (8002158 <Pressure_Sensor_Values+0x5c>)
 8002126:	681b      	ldr	r3, [r3, #0]
 8002128:	4619      	mov	r1, r3
 800212a:	480c      	ldr	r0, [pc, #48]	; (800215c <Pressure_Sensor_Values+0x60>)
 800212c:	f000 fa3c 	bl	80025a8 <BL_transmit>
	BL_transmit("PS5",PressureOut5);
 8002130:	4b0b      	ldr	r3, [pc, #44]	; (8002160 <Pressure_Sensor_Values+0x64>)
 8002132:	681b      	ldr	r3, [r3, #0]
 8002134:	4619      	mov	r1, r3
 8002136:	480b      	ldr	r0, [pc, #44]	; (8002164 <Pressure_Sensor_Values+0x68>)
 8002138:	f000 fa36 	bl	80025a8 <BL_transmit>
}
 800213c:	bf00      	nop
 800213e:	bd80      	pop	{r7, pc}
 8002140:	2000038c 	.word	0x2000038c
 8002144:	0800c41c 	.word	0x0800c41c
 8002148:	20000390 	.word	0x20000390
 800214c:	0800c420 	.word	0x0800c420
 8002150:	20000394 	.word	0x20000394
 8002154:	0800c424 	.word	0x0800c424
 8002158:	20000398 	.word	0x20000398
 800215c:	0800c428 	.word	0x0800c428
 8002160:	2000039c 	.word	0x2000039c
 8002164:	0800c42c 	.word	0x0800c42c

08002168 <Parse_BL_Input>:
 *
 * Command structure- 7 characters in total with following structure:
 * CP014.5 (last 5 characters corresponding to the new value)
 * SHxxxxx (only the command code matters.)
*/
void Parse_BL_Input(unsigned char *buffer){
 8002168:	b590      	push	{r4, r7, lr}
 800216a:	b087      	sub	sp, #28
 800216c:	af00      	add	r7, sp, #0
 800216e:	6078      	str	r0, [r7, #4]
	char command[2]={0};
 8002170:	2300      	movs	r3, #0
 8002172:	82bb      	strh	r3, [r7, #20]
	char params[8]={0};
 8002174:	f107 030c 	add.w	r3, r7, #12
 8002178:	2200      	movs	r2, #0
 800217a:	601a      	str	r2, [r3, #0]
 800217c:	605a      	str	r2, [r3, #4]
	memcpy(command,buffer,2);
 800217e:	687b      	ldr	r3, [r7, #4]
 8002180:	881b      	ldrh	r3, [r3, #0]
 8002182:	b29b      	uxth	r3, r3
 8002184:	82bb      	strh	r3, [r7, #20]
	memcpy(params,&buffer[2],5);
 8002186:	687b      	ldr	r3, [r7, #4]
 8002188:	1c99      	adds	r1, r3, #2
 800218a:	f107 030c 	add.w	r3, r7, #12
 800218e:	2205      	movs	r2, #5
 8002190:	4618      	mov	r0, r3
 8002192:	f006 fe1f 	bl	8008dd4 <memcpy>

	if (strcmp(command,"CP")==0){
 8002196:	f107 0314 	add.w	r3, r7, #20
 800219a:	4967      	ldr	r1, [pc, #412]	; (8002338 <Parse_BL_Input+0x1d0>)
 800219c:	4618      	mov	r0, r3
 800219e:	f7fd ffd7 	bl	8000150 <strcmp>
 80021a2:	4603      	mov	r3, r0
 80021a4:	2b00      	cmp	r3, #0
 80021a6:	d10f      	bne.n	80021c8 <Parse_BL_Input+0x60>
		Set_CircuitPr(atof(params));
 80021a8:	f107 030c 	add.w	r3, r7, #12
 80021ac:	4618      	mov	r0, r3
 80021ae:	f006 fde3 	bl	8008d78 <atof>
 80021b2:	4603      	mov	r3, r0
 80021b4:	460c      	mov	r4, r1
 80021b6:	4618      	mov	r0, r3
 80021b8:	4621      	mov	r1, r4
 80021ba:	f7fe fc8f 	bl	8000adc <__aeabi_d2f>
 80021be:	4603      	mov	r3, r0
 80021c0:	4618      	mov	r0, r3
 80021c2:	f7ff feef 	bl	8001fa4 <Set_CircuitPr>
		Pressure_Sensor_Values();
	}
	else{
		BL_transmit("Illegal command",0);
	}
}
 80021c6:	e0b2      	b.n	800232e <Parse_BL_Input+0x1c6>
	else if (strcmp(command,"LP")==0){
 80021c8:	f107 0314 	add.w	r3, r7, #20
 80021cc:	495b      	ldr	r1, [pc, #364]	; (800233c <Parse_BL_Input+0x1d4>)
 80021ce:	4618      	mov	r0, r3
 80021d0:	f7fd ffbe 	bl	8000150 <strcmp>
 80021d4:	4603      	mov	r3, r0
 80021d6:	2b00      	cmp	r3, #0
 80021d8:	d10f      	bne.n	80021fa <Parse_BL_Input+0x92>
		Set_LungPr(atof(params));
 80021da:	f107 030c 	add.w	r3, r7, #12
 80021de:	4618      	mov	r0, r3
 80021e0:	f006 fdca 	bl	8008d78 <atof>
 80021e4:	4603      	mov	r3, r0
 80021e6:	460c      	mov	r4, r1
 80021e8:	4618      	mov	r0, r3
 80021ea:	4621      	mov	r1, r4
 80021ec:	f7fe fc76 	bl	8000adc <__aeabi_d2f>
 80021f0:	4603      	mov	r3, r0
 80021f2:	4618      	mov	r0, r3
 80021f4:	f7ff fee4 	bl	8001fc0 <Set_LungPr>
}
 80021f8:	e099      	b.n	800232e <Parse_BL_Input+0x1c6>
	else if (strcmp(command,"MP")==0){
 80021fa:	f107 0314 	add.w	r3, r7, #20
 80021fe:	4950      	ldr	r1, [pc, #320]	; (8002340 <Parse_BL_Input+0x1d8>)
 8002200:	4618      	mov	r0, r3
 8002202:	f7fd ffa5 	bl	8000150 <strcmp>
 8002206:	4603      	mov	r3, r0
 8002208:	2b00      	cmp	r3, #0
 800220a:	d10f      	bne.n	800222c <Parse_BL_Input+0xc4>
		Set_MaxPr(atof(params));
 800220c:	f107 030c 	add.w	r3, r7, #12
 8002210:	4618      	mov	r0, r3
 8002212:	f006 fdb1 	bl	8008d78 <atof>
 8002216:	4603      	mov	r3, r0
 8002218:	460c      	mov	r4, r1
 800221a:	4618      	mov	r0, r3
 800221c:	4621      	mov	r1, r4
 800221e:	f7fe fc5d 	bl	8000adc <__aeabi_d2f>
 8002222:	4603      	mov	r3, r0
 8002224:	4618      	mov	r0, r3
 8002226:	f7ff fed9 	bl	8001fdc <Set_MaxPr>
}
 800222a:	e080      	b.n	800232e <Parse_BL_Input+0x1c6>
	else if (strcmp(command,"PE")==0){
 800222c:	f107 0314 	add.w	r3, r7, #20
 8002230:	4944      	ldr	r1, [pc, #272]	; (8002344 <Parse_BL_Input+0x1dc>)
 8002232:	4618      	mov	r0, r3
 8002234:	f7fd ff8c 	bl	8000150 <strcmp>
 8002238:	4603      	mov	r3, r0
 800223a:	2b00      	cmp	r3, #0
 800223c:	d10f      	bne.n	800225e <Parse_BL_Input+0xf6>
		Set_PEEP(atof(params));
 800223e:	f107 030c 	add.w	r3, r7, #12
 8002242:	4618      	mov	r0, r3
 8002244:	f006 fd98 	bl	8008d78 <atof>
 8002248:	4603      	mov	r3, r0
 800224a:	460c      	mov	r4, r1
 800224c:	4618      	mov	r0, r3
 800224e:	4621      	mov	r1, r4
 8002250:	f7fe fc44 	bl	8000adc <__aeabi_d2f>
 8002254:	4603      	mov	r3, r0
 8002256:	4618      	mov	r0, r3
 8002258:	f7ff fece 	bl	8001ff8 <Set_PEEP>
}
 800225c:	e067      	b.n	800232e <Parse_BL_Input+0x1c6>
	else if (strcmp(command,"BR")==0){
 800225e:	f107 0314 	add.w	r3, r7, #20
 8002262:	4939      	ldr	r1, [pc, #228]	; (8002348 <Parse_BL_Input+0x1e0>)
 8002264:	4618      	mov	r0, r3
 8002266:	f7fd ff73 	bl	8000150 <strcmp>
 800226a:	4603      	mov	r3, r0
 800226c:	2b00      	cmp	r3, #0
 800226e:	d10f      	bne.n	8002290 <Parse_BL_Input+0x128>
		Set_BreathRate(atof(params));
 8002270:	f107 030c 	add.w	r3, r7, #12
 8002274:	4618      	mov	r0, r3
 8002276:	f006 fd7f 	bl	8008d78 <atof>
 800227a:	4603      	mov	r3, r0
 800227c:	460c      	mov	r4, r1
 800227e:	4618      	mov	r0, r3
 8002280:	4621      	mov	r1, r4
 8002282:	f7fe fc2b 	bl	8000adc <__aeabi_d2f>
 8002286:	4603      	mov	r3, r0
 8002288:	4618      	mov	r0, r3
 800228a:	f7ff fec3 	bl	8002014 <Set_BreathRate>
}
 800228e:	e04e      	b.n	800232e <Parse_BL_Input+0x1c6>
	else if (strcmp(command,"IT")==0){
 8002290:	f107 0314 	add.w	r3, r7, #20
 8002294:	492d      	ldr	r1, [pc, #180]	; (800234c <Parse_BL_Input+0x1e4>)
 8002296:	4618      	mov	r0, r3
 8002298:	f7fd ff5a 	bl	8000150 <strcmp>
 800229c:	4603      	mov	r3, r0
 800229e:	2b00      	cmp	r3, #0
 80022a0:	d10f      	bne.n	80022c2 <Parse_BL_Input+0x15a>
		Set_InspirationTime(atof(params));
 80022a2:	f107 030c 	add.w	r3, r7, #12
 80022a6:	4618      	mov	r0, r3
 80022a8:	f006 fd66 	bl	8008d78 <atof>
 80022ac:	4603      	mov	r3, r0
 80022ae:	460c      	mov	r4, r1
 80022b0:	4618      	mov	r0, r3
 80022b2:	4621      	mov	r1, r4
 80022b4:	f7fe fc12 	bl	8000adc <__aeabi_d2f>
 80022b8:	4603      	mov	r3, r0
 80022ba:	4618      	mov	r0, r3
 80022bc:	f7ff feb8 	bl	8002030 <Set_InspirationTime>
}
 80022c0:	e035      	b.n	800232e <Parse_BL_Input+0x1c6>
	else if (strcmp(command,"TV")==0){
 80022c2:	f107 0314 	add.w	r3, r7, #20
 80022c6:	4922      	ldr	r1, [pc, #136]	; (8002350 <Parse_BL_Input+0x1e8>)
 80022c8:	4618      	mov	r0, r3
 80022ca:	f7fd ff41 	bl	8000150 <strcmp>
 80022ce:	4603      	mov	r3, r0
 80022d0:	2b00      	cmp	r3, #0
 80022d2:	d10f      	bne.n	80022f4 <Parse_BL_Input+0x18c>
		Set_TidalVolume(atof(params));
 80022d4:	f107 030c 	add.w	r3, r7, #12
 80022d8:	4618      	mov	r0, r3
 80022da:	f006 fd4d 	bl	8008d78 <atof>
 80022de:	4603      	mov	r3, r0
 80022e0:	460c      	mov	r4, r1
 80022e2:	4618      	mov	r0, r3
 80022e4:	4621      	mov	r1, r4
 80022e6:	f7fe fbf9 	bl	8000adc <__aeabi_d2f>
 80022ea:	4603      	mov	r3, r0
 80022ec:	4618      	mov	r0, r3
 80022ee:	f7ff fead 	bl	800204c <Set_TidalVolume>
}
 80022f2:	e01c      	b.n	800232e <Parse_BL_Input+0x1c6>
	else if (strcmp(command,"SH")==0){
 80022f4:	f107 0314 	add.w	r3, r7, #20
 80022f8:	4916      	ldr	r1, [pc, #88]	; (8002354 <Parse_BL_Input+0x1ec>)
 80022fa:	4618      	mov	r0, r3
 80022fc:	f7fd ff28 	bl	8000150 <strcmp>
 8002300:	4603      	mov	r3, r0
 8002302:	2b00      	cmp	r3, #0
 8002304:	d102      	bne.n	800230c <Parse_BL_Input+0x1a4>
		Show_Parameters();
 8002306:	f7ff feaf 	bl	8002068 <Show_Parameters>
}
 800230a:	e010      	b.n	800232e <Parse_BL_Input+0x1c6>
	else if (strcmp(command,"PS")==0){
 800230c:	f107 0314 	add.w	r3, r7, #20
 8002310:	4911      	ldr	r1, [pc, #68]	; (8002358 <Parse_BL_Input+0x1f0>)
 8002312:	4618      	mov	r0, r3
 8002314:	f7fd ff1c 	bl	8000150 <strcmp>
 8002318:	4603      	mov	r3, r0
 800231a:	2b00      	cmp	r3, #0
 800231c:	d102      	bne.n	8002324 <Parse_BL_Input+0x1bc>
		Pressure_Sensor_Values();
 800231e:	f7ff feed 	bl	80020fc <Pressure_Sensor_Values>
}
 8002322:	e004      	b.n	800232e <Parse_BL_Input+0x1c6>
		BL_transmit("Illegal command",0);
 8002324:	f04f 0100 	mov.w	r1, #0
 8002328:	480c      	ldr	r0, [pc, #48]	; (800235c <Parse_BL_Input+0x1f4>)
 800232a:	f000 f93d 	bl	80025a8 <BL_transmit>
}
 800232e:	bf00      	nop
 8002330:	371c      	adds	r7, #28
 8002332:	46bd      	mov	sp, r7
 8002334:	bd90      	pop	{r4, r7, pc}
 8002336:	bf00      	nop
 8002338:	0800c430 	.word	0x0800c430
 800233c:	0800c434 	.word	0x0800c434
 8002340:	0800c438 	.word	0x0800c438
 8002344:	0800c43c 	.word	0x0800c43c
 8002348:	0800c440 	.word	0x0800c440
 800234c:	0800c444 	.word	0x0800c444
 8002350:	0800c448 	.word	0x0800c448
 8002354:	0800c44c 	.word	0x0800c44c
 8002358:	0800c450 	.word	0x0800c450
 800235c:	0800c454 	.word	0x0800c454

08002360 <Reset_Handler>:
  .weak Reset_Handler
  .type Reset_Handler, %function
Reset_Handler:

/* Copy the data segment initializers from flash to SRAM */
  movs r1, #0
 8002360:	2100      	movs	r1, #0
  b LoopCopyDataInit
 8002362:	e003      	b.n	800236c <LoopCopyDataInit>

08002364 <CopyDataInit>:

CopyDataInit:
  ldr r3, =_sidata
 8002364:	4b0b      	ldr	r3, [pc, #44]	; (8002394 <LoopFillZerobss+0x14>)
  ldr r3, [r3, r1]
 8002366:	585b      	ldr	r3, [r3, r1]
  str r3, [r0, r1]
 8002368:	5043      	str	r3, [r0, r1]
  adds r1, r1, #4
 800236a:	3104      	adds	r1, #4

0800236c <LoopCopyDataInit>:

LoopCopyDataInit:
  ldr r0, =_sdata
 800236c:	480a      	ldr	r0, [pc, #40]	; (8002398 <LoopFillZerobss+0x18>)
  ldr r3, =_edata
 800236e:	4b0b      	ldr	r3, [pc, #44]	; (800239c <LoopFillZerobss+0x1c>)
  adds r2, r0, r1
 8002370:	1842      	adds	r2, r0, r1
  cmp r2, r3
 8002372:	429a      	cmp	r2, r3
  bcc CopyDataInit
 8002374:	d3f6      	bcc.n	8002364 <CopyDataInit>
  ldr r2, =_sbss
 8002376:	4a0a      	ldr	r2, [pc, #40]	; (80023a0 <LoopFillZerobss+0x20>)
  b LoopFillZerobss
 8002378:	e002      	b.n	8002380 <LoopFillZerobss>

0800237a <FillZerobss>:
/* Zero fill the bss segment. */
FillZerobss:
  movs r3, #0
 800237a:	2300      	movs	r3, #0
  str r3, [r2], #4
 800237c:	f842 3b04 	str.w	r3, [r2], #4

08002380 <LoopFillZerobss>:

LoopFillZerobss:
  ldr r3, = _ebss
 8002380:	4b08      	ldr	r3, [pc, #32]	; (80023a4 <LoopFillZerobss+0x24>)
  cmp r2, r3
 8002382:	429a      	cmp	r2, r3
  bcc FillZerobss
 8002384:	d3f9      	bcc.n	800237a <FillZerobss>

/* Call the clock system intitialization function.*/
    bl  SystemInit
 8002386:	f7ff fdd9 	bl	8001f3c <SystemInit>
/* Call static constructors */
    bl __libc_init_array
 800238a:	f006 fcff 	bl	8008d8c <__libc_init_array>
/* Call the application's entry point.*/
  bl main
 800238e:	f7ff f915 	bl	80015bc <main>
  bx lr
 8002392:	4770      	bx	lr
  ldr r3, =_sidata
 8002394:	0800c7a0 	.word	0x0800c7a0
  ldr r0, =_sdata
 8002398:	20000000 	.word	0x20000000
  ldr r3, =_edata
 800239c:	2000036c 	.word	0x2000036c
  ldr r2, =_sbss
 80023a0:	2000036c 	.word	0x2000036c
  ldr r3, = _ebss
 80023a4:	200016a4 	.word	0x200016a4

080023a8 <ADC1_2_IRQHandler>:
 * @retval : None
*/
    .section .text.Default_Handler,"ax",%progbits
Default_Handler:
Infinite_Loop:
  b Infinite_Loop
 80023a8:	e7fe      	b.n	80023a8 <ADC1_2_IRQHandler>
	...

080023ac <CheckZero>:
#include <stdlib.h>

static bool CheckZero(void);

//Returns true if the Stepper Motor is at Zero position.
static bool CheckZero(void){
 80023ac:	b580      	push	{r7, lr}
 80023ae:	b082      	sub	sp, #8
 80023b0:	af00      	add	r7, sp, #0
	bool retval = (HAL_GPIO_ReadPin(SM_port,HallSense) == GPIO_PIN_SET);
 80023b2:	2120      	movs	r1, #32
 80023b4:	4806      	ldr	r0, [pc, #24]	; (80023d0 <CheckZero+0x24>)
 80023b6:	f000 fcdd 	bl	8002d74 <HAL_GPIO_ReadPin>
 80023ba:	4603      	mov	r3, r0
 80023bc:	2b01      	cmp	r3, #1
 80023be:	bf0c      	ite	eq
 80023c0:	2301      	moveq	r3, #1
 80023c2:	2300      	movne	r3, #0
 80023c4:	71fb      	strb	r3, [r7, #7]
	return retval;
 80023c6:	79fb      	ldrb	r3, [r7, #7]
}
 80023c8:	4618      	mov	r0, r3
 80023ca:	3708      	adds	r7, #8
 80023cc:	46bd      	mov	sp, r7
 80023ce:	bd80      	pop	{r7, pc}
 80023d0:	40010800 	.word	0x40010800

080023d4 <SMInit>:

/*
 * Configure the step-size and the maximum angle allowed.
 * Return the motor to its zero position.
*/
void SMInit(float step_size,float max_angle){
 80023d4:	b580      	push	{r7, lr}
 80023d6:	b082      	sub	sp, #8
 80023d8:	af00      	add	r7, sp, #0
 80023da:	6078      	str	r0, [r7, #4]
 80023dc:	6039      	str	r1, [r7, #0]
	StepSize=step_size;
 80023de:	4a06      	ldr	r2, [pc, #24]	; (80023f8 <SMInit+0x24>)
 80023e0:	687b      	ldr	r3, [r7, #4]
 80023e2:	6013      	str	r3, [r2, #0]
	MaxAngle=max_angle;
 80023e4:	4a05      	ldr	r2, [pc, #20]	; (80023fc <SMInit+0x28>)
 80023e6:	683b      	ldr	r3, [r7, #0]
 80023e8:	6013      	str	r3, [r2, #0]
	 * We need to make sure that we are at the 0 position when we start.
	 *
	 * Warning: This is not recommended to be used on the final product as it risks
	 * momentarily closing the valves in case the system reboots for some reason.
	*/
	SMHome();
 80023ea:	f000 f809 	bl	8002400 <SMHome>
}
 80023ee:	bf00      	nop
 80023f0:	3708      	adds	r7, #8
 80023f2:	46bd      	mov	sp, r7
 80023f4:	bd80      	pop	{r7, pc}
 80023f6:	bf00      	nop
 80023f8:	20000710 	.word	0x20000710
 80023fc:	20000714 	.word	0x20000714

08002400 <SMHome>:

/*
 * Return to position zero.
*/
void SMHome(void){
 8002400:	b580      	push	{r7, lr}
 8002402:	b082      	sub	sp, #8
 8002404:	af00      	add	r7, sp, #0
	/*This implementation assumes that Global variable might be out of sync and not reliable*/
	int maxAttempts = (int)(MaxAngle/StepSize);
 8002406:	4b17      	ldr	r3, [pc, #92]	; (8002464 <SMHome+0x64>)
 8002408:	681a      	ldr	r2, [r3, #0]
 800240a:	4b17      	ldr	r3, [pc, #92]	; (8002468 <SMHome+0x68>)
 800240c:	681b      	ldr	r3, [r3, #0]
 800240e:	4619      	mov	r1, r3
 8002410:	4610      	mov	r0, r2
 8002412:	f7fe fd75 	bl	8000f00 <__aeabi_fdiv>
 8002416:	4603      	mov	r3, r0
 8002418:	4618      	mov	r0, r3
 800241a:	f7fe fe83 	bl	8001124 <__aeabi_f2iz>
 800241e:	4603      	mov	r3, r0
 8002420:	603b      	str	r3, [r7, #0]
	for(int i=0;i<maxAttempts;i++){
 8002422:	2300      	movs	r3, #0
 8002424:	607b      	str	r3, [r7, #4]
 8002426:	e00e      	b.n	8002446 <SMHome+0x46>
		MoveSteps(1,CCW);
 8002428:	2100      	movs	r1, #0
 800242a:	2001      	movs	r0, #1
 800242c:	f000 f834 	bl	8002498 <MoveSteps>
		HAL_Delay(1);
 8002430:	2001      	movs	r0, #1
 8002432:	f000 f99f 	bl	8002774 <HAL_Delay>
		if (CheckZero()){
 8002436:	f7ff ffb9 	bl	80023ac <CheckZero>
 800243a:	4603      	mov	r3, r0
 800243c:	2b00      	cmp	r3, #0
 800243e:	d107      	bne.n	8002450 <SMHome+0x50>
	for(int i=0;i<maxAttempts;i++){
 8002440:	687b      	ldr	r3, [r7, #4]
 8002442:	3301      	adds	r3, #1
 8002444:	607b      	str	r3, [r7, #4]
 8002446:	687a      	ldr	r2, [r7, #4]
 8002448:	683b      	ldr	r3, [r7, #0]
 800244a:	429a      	cmp	r2, r3
 800244c:	dbec      	blt.n	8002428 <SMHome+0x28>
 800244e:	e000      	b.n	8002452 <SMHome+0x52>
			break;
 8002450:	bf00      	nop
		}
	}
	CurrentAngle=0;
 8002452:	4b06      	ldr	r3, [pc, #24]	; (800246c <SMHome+0x6c>)
 8002454:	f04f 0200 	mov.w	r2, #0
 8002458:	601a      	str	r2, [r3, #0]
}
 800245a:	bf00      	nop
 800245c:	3708      	adds	r7, #8
 800245e:	46bd      	mov	sp, r7
 8002460:	bd80      	pop	{r7, pc}
 8002462:	bf00      	nop
 8002464:	20000714 	.word	0x20000714
 8002468:	20000710 	.word	0x20000710
 800246c:	20000798 	.word	0x20000798

08002470 <OneStep>:

/*
 * Move one step. Gives one pulse to the Step pin of the motor driver.
*/
void OneStep(void){
 8002470:	b580      	push	{r7, lr}
 8002472:	af00      	add	r7, sp, #0
	HAL_GPIO_WritePin(SM_port,Step_pin,GPIO_PIN_SET);
 8002474:	2201      	movs	r2, #1
 8002476:	2102      	movs	r1, #2
 8002478:	4806      	ldr	r0, [pc, #24]	; (8002494 <OneStep+0x24>)
 800247a:	f000 fc92 	bl	8002da2 <HAL_GPIO_WritePin>
	HAL_Delay(1);
 800247e:	2001      	movs	r0, #1
 8002480:	f000 f978 	bl	8002774 <HAL_Delay>
	HAL_GPIO_WritePin(SM_port,Step_pin,GPIO_PIN_RESET);
 8002484:	2200      	movs	r2, #0
 8002486:	2102      	movs	r1, #2
 8002488:	4802      	ldr	r0, [pc, #8]	; (8002494 <OneStep+0x24>)
 800248a:	f000 fc8a 	bl	8002da2 <HAL_GPIO_WritePin>
}
 800248e:	bf00      	nop
 8002490:	bd80      	pop	{r7, pc}
 8002492:	bf00      	nop
 8002494:	40010800 	.word	0x40010800

08002498 <MoveSteps>:
 * Move a given number of steps in the requested direction.
 * Updates the CurrentAngle variable to keep it in sync with
 * the real orientation. Also makes sure that the maximum and
 * minimum angle bounds are never broken.
*/
void MoveSteps(uint8_t steps, uint8_t direction){
 8002498:	b580      	push	{r7, lr}
 800249a:	b084      	sub	sp, #16
 800249c:	af00      	add	r7, sp, #0
 800249e:	4603      	mov	r3, r0
 80024a0:	460a      	mov	r2, r1
 80024a2:	71fb      	strb	r3, [r7, #7]
 80024a4:	4613      	mov	r3, r2
 80024a6:	71bb      	strb	r3, [r7, #6]
	int8_t multiplier=0;
 80024a8:	2300      	movs	r3, #0
 80024aa:	73fb      	strb	r3, [r7, #15]
	if (direction == CC) {
 80024ac:	79bb      	ldrb	r3, [r7, #6]
 80024ae:	2b01      	cmp	r3, #1
 80024b0:	d107      	bne.n	80024c2 <MoveSteps+0x2a>
		/* write direction pin to set direction to clockwise*/
		HAL_GPIO_WritePin(SM_port,Dir_pin,GPIO_PIN_SET);
 80024b2:	2201      	movs	r2, #1
 80024b4:	2104      	movs	r1, #4
 80024b6:	4838      	ldr	r0, [pc, #224]	; (8002598 <MoveSteps+0x100>)
 80024b8:	f000 fc73 	bl	8002da2 <HAL_GPIO_WritePin>
		multiplier=1;
 80024bc:	2301      	movs	r3, #1
 80024be:	73fb      	strb	r3, [r7, #15]
 80024c0:	e006      	b.n	80024d0 <MoveSteps+0x38>
	}
	else {
		/* clear direction pin to set direction to counter clockwise */
		HAL_GPIO_WritePin(SM_port,Dir_pin,GPIO_PIN_RESET);
 80024c2:	2200      	movs	r2, #0
 80024c4:	2104      	movs	r1, #4
 80024c6:	4834      	ldr	r0, [pc, #208]	; (8002598 <MoveSteps+0x100>)
 80024c8:	f000 fc6b 	bl	8002da2 <HAL_GPIO_WritePin>
		multiplier=-1;
 80024cc:	23ff      	movs	r3, #255	; 0xff
 80024ce:	73fb      	strb	r3, [r7, #15]
	}

	for (uint8_t i=1; i<=steps; i++){
 80024d0:	2301      	movs	r3, #1
 80024d2:	73bb      	strb	r3, [r7, #14]
 80024d4:	e058      	b.n	8002588 <MoveSteps+0xf0>
		if ((CurrentAngle+ (multiplier*StepSize)) > 0 || (CurrentAngle+ (multiplier*StepSize)) < MaxAngle){
 80024d6:	f997 300f 	ldrsb.w	r3, [r7, #15]
 80024da:	4618      	mov	r0, r3
 80024dc:	f7fe fc08 	bl	8000cf0 <__aeabi_i2f>
 80024e0:	4602      	mov	r2, r0
 80024e2:	4b2e      	ldr	r3, [pc, #184]	; (800259c <MoveSteps+0x104>)
 80024e4:	681b      	ldr	r3, [r3, #0]
 80024e6:	4619      	mov	r1, r3
 80024e8:	4610      	mov	r0, r2
 80024ea:	f7fe fc55 	bl	8000d98 <__aeabi_fmul>
 80024ee:	4603      	mov	r3, r0
 80024f0:	461a      	mov	r2, r3
 80024f2:	4b2b      	ldr	r3, [pc, #172]	; (80025a0 <MoveSteps+0x108>)
 80024f4:	681b      	ldr	r3, [r3, #0]
 80024f6:	4619      	mov	r1, r3
 80024f8:	4610      	mov	r0, r2
 80024fa:	f7fe fb45 	bl	8000b88 <__addsf3>
 80024fe:	4603      	mov	r3, r0
 8002500:	f04f 0100 	mov.w	r1, #0
 8002504:	4618      	mov	r0, r3
 8002506:	f7fe fe03 	bl	8001110 <__aeabi_fcmpgt>
 800250a:	4603      	mov	r3, r0
 800250c:	2b00      	cmp	r3, #0
 800250e:	d11e      	bne.n	800254e <MoveSteps+0xb6>
 8002510:	f997 300f 	ldrsb.w	r3, [r7, #15]
 8002514:	4618      	mov	r0, r3
 8002516:	f7fe fbeb 	bl	8000cf0 <__aeabi_i2f>
 800251a:	4602      	mov	r2, r0
 800251c:	4b1f      	ldr	r3, [pc, #124]	; (800259c <MoveSteps+0x104>)
 800251e:	681b      	ldr	r3, [r3, #0]
 8002520:	4619      	mov	r1, r3
 8002522:	4610      	mov	r0, r2
 8002524:	f7fe fc38 	bl	8000d98 <__aeabi_fmul>
 8002528:	4603      	mov	r3, r0
 800252a:	461a      	mov	r2, r3
 800252c:	4b1c      	ldr	r3, [pc, #112]	; (80025a0 <MoveSteps+0x108>)
 800252e:	681b      	ldr	r3, [r3, #0]
 8002530:	4619      	mov	r1, r3
 8002532:	4610      	mov	r0, r2
 8002534:	f7fe fb28 	bl	8000b88 <__addsf3>
 8002538:	4603      	mov	r3, r0
 800253a:	461a      	mov	r2, r3
 800253c:	4b19      	ldr	r3, [pc, #100]	; (80025a4 <MoveSteps+0x10c>)
 800253e:	681b      	ldr	r3, [r3, #0]
 8002540:	4619      	mov	r1, r3
 8002542:	4610      	mov	r0, r2
 8002544:	f7fe fdc6 	bl	80010d4 <__aeabi_fcmplt>
 8002548:	4603      	mov	r3, r0
 800254a:	2b00      	cmp	r3, #0
 800254c:	d019      	beq.n	8002582 <MoveSteps+0xea>
			OneStep();
 800254e:	f7ff ff8f 	bl	8002470 <OneStep>
			CurrentAngle += multiplier*StepSize;
 8002552:	f997 300f 	ldrsb.w	r3, [r7, #15]
 8002556:	4618      	mov	r0, r3
 8002558:	f7fe fbca 	bl	8000cf0 <__aeabi_i2f>
 800255c:	4602      	mov	r2, r0
 800255e:	4b0f      	ldr	r3, [pc, #60]	; (800259c <MoveSteps+0x104>)
 8002560:	681b      	ldr	r3, [r3, #0]
 8002562:	4619      	mov	r1, r3
 8002564:	4610      	mov	r0, r2
 8002566:	f7fe fc17 	bl	8000d98 <__aeabi_fmul>
 800256a:	4603      	mov	r3, r0
 800256c:	461a      	mov	r2, r3
 800256e:	4b0c      	ldr	r3, [pc, #48]	; (80025a0 <MoveSteps+0x108>)
 8002570:	681b      	ldr	r3, [r3, #0]
 8002572:	4619      	mov	r1, r3
 8002574:	4610      	mov	r0, r2
 8002576:	f7fe fb07 	bl	8000b88 <__addsf3>
 800257a:	4603      	mov	r3, r0
 800257c:	461a      	mov	r2, r3
 800257e:	4b08      	ldr	r3, [pc, #32]	; (80025a0 <MoveSteps+0x108>)
 8002580:	601a      	str	r2, [r3, #0]
	for (uint8_t i=1; i<=steps; i++){
 8002582:	7bbb      	ldrb	r3, [r7, #14]
 8002584:	3301      	adds	r3, #1
 8002586:	73bb      	strb	r3, [r7, #14]
 8002588:	7bba      	ldrb	r2, [r7, #14]
 800258a:	79fb      	ldrb	r3, [r7, #7]
 800258c:	429a      	cmp	r2, r3
 800258e:	d9a2      	bls.n	80024d6 <MoveSteps+0x3e>
		}
	}
}
 8002590:	bf00      	nop
 8002592:	3710      	adds	r7, #16
 8002594:	46bd      	mov	sp, r7
 8002596:	bd80      	pop	{r7, pc}
 8002598:	40010800 	.word	0x40010800
 800259c:	20000710 	.word	0x20000710
 80025a0:	20000798 	.word	0x20000798
 80025a4:	20000714 	.word	0x20000714

080025a8 <BL_transmit>:
/*
 *	Transmits a key-value pair after converting
 *	it to the following format-
 *	"{key}:{value}\n"
*/
void BL_transmit(char key[], float value){
 80025a8:	b580      	push	{r7, lr}
 80025aa:	b084      	sub	sp, #16
 80025ac:	af00      	add	r7, sp, #0
 80025ae:	6078      	str	r0, [r7, #4]
 80025b0:	6039      	str	r1, [r7, #0]
	sprintf(BleBuff, key); HAL_UART_Transmit(&huart1, BleBuff, strlen(key), HAL_TIMEOUT);
 80025b2:	6879      	ldr	r1, [r7, #4]
 80025b4:	4814      	ldr	r0, [pc, #80]	; (8002608 <BL_transmit+0x60>)
 80025b6:	f007 f86f 	bl	8009698 <siprintf>
 80025ba:	6878      	ldr	r0, [r7, #4]
 80025bc:	f7fd fdd2 	bl	8000164 <strlen>
 80025c0:	4603      	mov	r3, r0
 80025c2:	b29a      	uxth	r2, r3
 80025c4:	2303      	movs	r3, #3
 80025c6:	4910      	ldr	r1, [pc, #64]	; (8002608 <BL_transmit+0x60>)
 80025c8:	4810      	ldr	r0, [pc, #64]	; (800260c <BL_transmit+0x64>)
 80025ca:	f002 fe50 	bl	800526e <HAL_UART_Transmit>
	int final = (int)(value*100);
 80025ce:	4910      	ldr	r1, [pc, #64]	; (8002610 <BL_transmit+0x68>)
 80025d0:	6838      	ldr	r0, [r7, #0]
 80025d2:	f7fe fbe1 	bl	8000d98 <__aeabi_fmul>
 80025d6:	4603      	mov	r3, r0
 80025d8:	4618      	mov	r0, r3
 80025da:	f7fe fda3 	bl	8001124 <__aeabi_f2iz>
 80025de:	4603      	mov	r3, r0
 80025e0:	60fb      	str	r3, [r7, #12]
	sprintf(BleBuff, ": %i \n",final);
 80025e2:	68fa      	ldr	r2, [r7, #12]
 80025e4:	490b      	ldr	r1, [pc, #44]	; (8002614 <BL_transmit+0x6c>)
 80025e6:	4808      	ldr	r0, [pc, #32]	; (8002608 <BL_transmit+0x60>)
 80025e8:	f007 f856 	bl	8009698 <siprintf>
	HAL_UART_Transmit(&huart1, BleBuff, strlen(BleBuff), HAL_TIMEOUT);
 80025ec:	4806      	ldr	r0, [pc, #24]	; (8002608 <BL_transmit+0x60>)
 80025ee:	f7fd fdb9 	bl	8000164 <strlen>
 80025f2:	4603      	mov	r3, r0
 80025f4:	b29a      	uxth	r2, r3
 80025f6:	2303      	movs	r3, #3
 80025f8:	4903      	ldr	r1, [pc, #12]	; (8002608 <BL_transmit+0x60>)
 80025fa:	4804      	ldr	r0, [pc, #16]	; (800260c <BL_transmit+0x64>)
 80025fc:	f002 fe37 	bl	800526e <HAL_UART_Transmit>
}
 8002600:	bf00      	nop
 8002602:	3710      	adds	r7, #16
 8002604:	46bd      	mov	sp, r7
 8002606:	bd80      	pop	{r7, pc}
 8002608:	200003a0 	.word	0x200003a0
 800260c:	20000758 	.word	0x20000758
 8002610:	42c80000 	.word	0x42c80000
 8002614:	0800c464 	.word	0x0800c464

08002618 <BL_Receive>:
/*
 * Starts listening for a Bluetooth command under
 * interrupt mode. Receiving is complete when exactly
 * 7 bytes have been received.
*/
void BL_Receive(void){
 8002618:	b580      	push	{r7, lr}
 800261a:	af00      	add	r7, sp, #0
	HAL_UART_Receive_IT(&huart1,BleReceiveBuff,7);
 800261c:	2207      	movs	r2, #7
 800261e:	4903      	ldr	r1, [pc, #12]	; (800262c <BL_Receive+0x14>)
 8002620:	4803      	ldr	r0, [pc, #12]	; (8002630 <BL_Receive+0x18>)
 8002622:	f002 febd 	bl	80053a0 <HAL_UART_Receive_IT>
}
 8002626:	bf00      	nop
 8002628:	bd80      	pop	{r7, pc}
 800262a:	bf00      	nop
 800262c:	200003d4 	.word	0x200003d4
 8002630:	20000758 	.word	0x20000758

08002634 <USB_Transmit>:
/*
 *	Transmits a key-value pair after converting
 *	it to the following format-
 *	"{key}:{value}\n"
*/
void USB_Transmit(char key[], float value, char lineEnding[]){
 8002634:	b580      	push	{r7, lr}
 8002636:	b086      	sub	sp, #24
 8002638:	af00      	add	r7, sp, #0
 800263a:	60f8      	str	r0, [r7, #12]
 800263c:	60b9      	str	r1, [r7, #8]
 800263e:	607a      	str	r2, [r7, #4]
	CDC_Transmit_FS((uint8_t*)key, strlen(key));
 8002640:	68f8      	ldr	r0, [r7, #12]
 8002642:	f7fd fd8f 	bl	8000164 <strlen>
 8002646:	4603      	mov	r3, r0
 8002648:	4619      	mov	r1, r3
 800264a:	68f8      	ldr	r0, [r7, #12]
 800264c:	f005 ffc2 	bl	80085d4 <CDC_Transmit_FS>
	HAL_Delay(5);
 8002650:	2005      	movs	r0, #5
 8002652:	f000 f88f 	bl	8002774 <HAL_Delay>
	int final = (int)(value*100);
 8002656:	4913      	ldr	r1, [pc, #76]	; (80026a4 <USB_Transmit+0x70>)
 8002658:	68b8      	ldr	r0, [r7, #8]
 800265a:	f7fe fb9d 	bl	8000d98 <__aeabi_fmul>
 800265e:	4603      	mov	r3, r0
 8002660:	4618      	mov	r0, r3
 8002662:	f7fe fd5f 	bl	8001124 <__aeabi_f2iz>
 8002666:	4603      	mov	r3, r0
 8002668:	617b      	str	r3, [r7, #20]
	sprintf(USBBuff, ": %i",final);
 800266a:	697a      	ldr	r2, [r7, #20]
 800266c:	490e      	ldr	r1, [pc, #56]	; (80026a8 <USB_Transmit+0x74>)
 800266e:	480f      	ldr	r0, [pc, #60]	; (80026ac <USB_Transmit+0x78>)
 8002670:	f007 f812 	bl	8009698 <siprintf>
	CDC_Transmit_FS((uint8_t*)USBBuff, strlen(USBBuff));
 8002674:	480d      	ldr	r0, [pc, #52]	; (80026ac <USB_Transmit+0x78>)
 8002676:	f7fd fd75 	bl	8000164 <strlen>
 800267a:	4603      	mov	r3, r0
 800267c:	4619      	mov	r1, r3
 800267e:	480b      	ldr	r0, [pc, #44]	; (80026ac <USB_Transmit+0x78>)
 8002680:	f005 ffa8 	bl	80085d4 <CDC_Transmit_FS>
	HAL_Delay(5);
 8002684:	2005      	movs	r0, #5
 8002686:	f000 f875 	bl	8002774 <HAL_Delay>
	CDC_Transmit_FS((uint8_t*)lineEnding, strlen(lineEnding));
 800268a:	6878      	ldr	r0, [r7, #4]
 800268c:	f7fd fd6a 	bl	8000164 <strlen>
 8002690:	4603      	mov	r3, r0
 8002692:	4619      	mov	r1, r3
 8002694:	6878      	ldr	r0, [r7, #4]
 8002696:	f005 ff9d 	bl	80085d4 <CDC_Transmit_FS>
}
 800269a:	bf00      	nop
 800269c:	3718      	adds	r7, #24
 800269e:	46bd      	mov	sp, r7
 80026a0:	bd80      	pop	{r7, pc}
 80026a2:	bf00      	nop
 80026a4:	42c80000 	.word	0x42c80000
 80026a8:	0800c46c 	.word	0x0800c46c
 80026ac:	20000408 	.word	0x20000408

080026b0 <HAL_Init>:
  *         need to ensure that the SysTick time base is always set to 1 millisecond
  *         to have correct HAL operation.
  * @retval HAL status
  */
HAL_StatusTypeDef HAL_Init(void)
{
 80026b0:	b580      	push	{r7, lr}
 80026b2:	af00      	add	r7, sp, #0
    defined(STM32F102x6) || defined(STM32F102xB) || \
    defined(STM32F103x6) || defined(STM32F103xB) || defined(STM32F103xE) || defined(STM32F103xG) || \
    defined(STM32F105xC) || defined(STM32F107xC)

  /* Prefetch buffer is not available on value line devices */
  __HAL_FLASH_PREFETCH_BUFFER_ENABLE();
 80026b4:	4b08      	ldr	r3, [pc, #32]	; (80026d8 <HAL_Init+0x28>)
 80026b6:	681b      	ldr	r3, [r3, #0]
 80026b8:	4a07      	ldr	r2, [pc, #28]	; (80026d8 <HAL_Init+0x28>)
 80026ba:	f043 0310 	orr.w	r3, r3, #16
 80026be:	6013      	str	r3, [r2, #0]
#endif
#endif /* PREFETCH_ENABLE */

  /* Set Interrupt Group Priority */
  HAL_NVIC_SetPriorityGrouping(NVIC_PRIORITYGROUP_4);
 80026c0:	2003      	movs	r0, #3
 80026c2:	f000 f945 	bl	8002950 <HAL_NVIC_SetPriorityGrouping>

  /* Use systick as time base source and configure 1ms tick (default clock after Reset is HSI) */
  HAL_InitTick(TICK_INT_PRIORITY);
 80026c6:	2000      	movs	r0, #0
 80026c8:	f000 f808 	bl	80026dc <HAL_InitTick>

  /* Init the low level hardware */
  HAL_MspInit();
 80026cc:	f7ff faaa 	bl	8001c24 <HAL_MspInit>

  /* Return function status */
  return HAL_OK;
 80026d0:	2300      	movs	r3, #0
}
 80026d2:	4618      	mov	r0, r3
 80026d4:	bd80      	pop	{r7, pc}
 80026d6:	bf00      	nop
 80026d8:	40022000 	.word	0x40022000

080026dc <HAL_InitTick>:
  *       implementation  in user file.
  * @param TickPriority Tick interrupt priority.
  * @retval HAL status
  */
__weak HAL_StatusTypeDef HAL_InitTick(uint32_t TickPriority)
{
 80026dc:	b580      	push	{r7, lr}
 80026de:	b082      	sub	sp, #8
 80026e0:	af00      	add	r7, sp, #0
 80026e2:	6078      	str	r0, [r7, #4]
  /* Configure the SysTick to have interrupt in 1ms time basis*/
  if (HAL_SYSTICK_Config(SystemCoreClock / (1000U / uwTickFreq)) > 0U)
 80026e4:	4b12      	ldr	r3, [pc, #72]	; (8002730 <HAL_InitTick+0x54>)
 80026e6:	681a      	ldr	r2, [r3, #0]
 80026e8:	4b12      	ldr	r3, [pc, #72]	; (8002734 <HAL_InitTick+0x58>)
 80026ea:	781b      	ldrb	r3, [r3, #0]
 80026ec:	4619      	mov	r1, r3
 80026ee:	f44f 737a 	mov.w	r3, #1000	; 0x3e8
 80026f2:	fbb3 f3f1 	udiv	r3, r3, r1
 80026f6:	fbb2 f3f3 	udiv	r3, r2, r3
 80026fa:	4618      	mov	r0, r3
 80026fc:	f000 f95d 	bl	80029ba <HAL_SYSTICK_Config>
 8002700:	4603      	mov	r3, r0
 8002702:	2b00      	cmp	r3, #0
 8002704:	d001      	beq.n	800270a <HAL_InitTick+0x2e>
  {
    return HAL_ERROR;
 8002706:	2301      	movs	r3, #1
 8002708:	e00e      	b.n	8002728 <HAL_InitTick+0x4c>
  }

  /* Configure the SysTick IRQ priority */
  if (TickPriority < (1UL << __NVIC_PRIO_BITS))
 800270a:	687b      	ldr	r3, [r7, #4]
 800270c:	2b0f      	cmp	r3, #15
 800270e:	d80a      	bhi.n	8002726 <HAL_InitTick+0x4a>
  {
    HAL_NVIC_SetPriority(SysTick_IRQn, TickPriority, 0U);
 8002710:	2200      	movs	r2, #0
 8002712:	6879      	ldr	r1, [r7, #4]
 8002714:	f04f 30ff 	mov.w	r0, #4294967295
 8002718:	f000 f925 	bl	8002966 <HAL_NVIC_SetPriority>
    uwTickPrio = TickPriority;
 800271c:	4a06      	ldr	r2, [pc, #24]	; (8002738 <HAL_InitTick+0x5c>)
 800271e:	687b      	ldr	r3, [r7, #4]
 8002720:	6013      	str	r3, [r2, #0]
  {
    return HAL_ERROR;
  }

  /* Return function status */
  return HAL_OK;
 8002722:	2300      	movs	r3, #0
 8002724:	e000      	b.n	8002728 <HAL_InitTick+0x4c>
    return HAL_ERROR;
 8002726:	2301      	movs	r3, #1
}
 8002728:	4618      	mov	r0, r3
 800272a:	3708      	adds	r7, #8
 800272c:	46bd      	mov	sp, r7
 800272e:	bd80      	pop	{r7, pc}
 8002730:	20000020 	.word	0x20000020
 8002734:	20000028 	.word	0x20000028
 8002738:	20000024 	.word	0x20000024

0800273c <HAL_IncTick>:
  * @note This function is declared as __weak to be overwritten in case of other
  *      implementations in user file.
  * @retval None
  */
__weak void HAL_IncTick(void)
{
 800273c:	b480      	push	{r7}
 800273e:	af00      	add	r7, sp, #0
  uwTick += uwTickFreq;
 8002740:	4b05      	ldr	r3, [pc, #20]	; (8002758 <HAL_IncTick+0x1c>)
 8002742:	781b      	ldrb	r3, [r3, #0]
 8002744:	461a      	mov	r2, r3
 8002746:	4b05      	ldr	r3, [pc, #20]	; (800275c <HAL_IncTick+0x20>)
 8002748:	681b      	ldr	r3, [r3, #0]
 800274a:	4413      	add	r3, r2
 800274c:	4a03      	ldr	r2, [pc, #12]	; (800275c <HAL_IncTick+0x20>)
 800274e:	6013      	str	r3, [r2, #0]
}
 8002750:	bf00      	nop
 8002752:	46bd      	mov	sp, r7
 8002754:	bc80      	pop	{r7}
 8002756:	4770      	bx	lr
 8002758:	20000028 	.word	0x20000028
 800275c:	2000079c 	.word	0x2000079c

08002760 <HAL_GetTick>:
  * @note  This function is declared as __weak to be overwritten in case of other
  *       implementations in user file.
  * @retval tick value
  */
__weak uint32_t HAL_GetTick(void)
{
 8002760:	b480      	push	{r7}
 8002762:	af00      	add	r7, sp, #0
  return uwTick;
 8002764:	4b02      	ldr	r3, [pc, #8]	; (8002770 <HAL_GetTick+0x10>)
 8002766:	681b      	ldr	r3, [r3, #0]
}
 8002768:	4618      	mov	r0, r3
 800276a:	46bd      	mov	sp, r7
 800276c:	bc80      	pop	{r7}
 800276e:	4770      	bx	lr
 8002770:	2000079c 	.word	0x2000079c

08002774 <HAL_Delay>:
  *       implementations in user file.
  * @param Delay specifies the delay time length, in milliseconds.
  * @retval None
  */
__weak void HAL_Delay(uint32_t Delay)
{
 8002774:	b580      	push	{r7, lr}
 8002776:	b084      	sub	sp, #16
 8002778:	af00      	add	r7, sp, #0
 800277a:	6078      	str	r0, [r7, #4]
  uint32_t tickstart = HAL_GetTick();
 800277c:	f7ff fff0 	bl	8002760 <HAL_GetTick>
 8002780:	60b8      	str	r0, [r7, #8]
  uint32_t wait = Delay;
 8002782:	687b      	ldr	r3, [r7, #4]
 8002784:	60fb      	str	r3, [r7, #12]

  /* Add a freq to guarantee minimum wait */
  if (wait < HAL_MAX_DELAY)
 8002786:	68fb      	ldr	r3, [r7, #12]
 8002788:	f1b3 3fff 	cmp.w	r3, #4294967295
 800278c:	d005      	beq.n	800279a <HAL_Delay+0x26>
  {
    wait += (uint32_t)(uwTickFreq);
 800278e:	4b09      	ldr	r3, [pc, #36]	; (80027b4 <HAL_Delay+0x40>)
 8002790:	781b      	ldrb	r3, [r3, #0]
 8002792:	461a      	mov	r2, r3
 8002794:	68fb      	ldr	r3, [r7, #12]
 8002796:	4413      	add	r3, r2
 8002798:	60fb      	str	r3, [r7, #12]
  }

  while ((HAL_GetTick() - tickstart) < wait)
 800279a:	bf00      	nop
 800279c:	f7ff ffe0 	bl	8002760 <HAL_GetTick>
 80027a0:	4602      	mov	r2, r0
 80027a2:	68bb      	ldr	r3, [r7, #8]
 80027a4:	1ad3      	subs	r3, r2, r3
 80027a6:	68fa      	ldr	r2, [r7, #12]
 80027a8:	429a      	cmp	r2, r3
 80027aa:	d8f7      	bhi.n	800279c <HAL_Delay+0x28>
  {
  }
}
 80027ac:	bf00      	nop
 80027ae:	3710      	adds	r7, #16
 80027b0:	46bd      	mov	sp, r7
 80027b2:	bd80      	pop	{r7, pc}
 80027b4:	20000028 	.word	0x20000028

080027b8 <__NVIC_SetPriorityGrouping>:
           In case of a conflict between priority grouping and available
           priority bits (__NVIC_PRIO_BITS), the smallest possible priority group is set.
  \param [in]      PriorityGroup  Priority grouping field.
 */
__STATIC_INLINE void __NVIC_SetPriorityGrouping(uint32_t PriorityGroup)
{
 80027b8:	b480      	push	{r7}
 80027ba:	b085      	sub	sp, #20
 80027bc:	af00      	add	r7, sp, #0
 80027be:	6078      	str	r0, [r7, #4]
  uint32_t reg_value;
  uint32_t PriorityGroupTmp = (PriorityGroup & (uint32_t)0x07UL);             /* only values 0..7 are used          */
 80027c0:	687b      	ldr	r3, [r7, #4]
 80027c2:	f003 0307 	and.w	r3, r3, #7
 80027c6:	60fb      	str	r3, [r7, #12]

  reg_value  =  SCB->AIRCR;                                                   /* read old register configuration    */
 80027c8:	4b0c      	ldr	r3, [pc, #48]	; (80027fc <__NVIC_SetPriorityGrouping+0x44>)
 80027ca:	68db      	ldr	r3, [r3, #12]
 80027cc:	60bb      	str	r3, [r7, #8]
  reg_value &= ~((uint32_t)(SCB_AIRCR_VECTKEY_Msk | SCB_AIRCR_PRIGROUP_Msk)); /* clear bits to change               */
 80027ce:	68ba      	ldr	r2, [r7, #8]
 80027d0:	f64f 03ff 	movw	r3, #63743	; 0xf8ff
 80027d4:	4013      	ands	r3, r2
 80027d6:	60bb      	str	r3, [r7, #8]
  reg_value  =  (reg_value                                   |
                ((uint32_t)0x5FAUL << SCB_AIRCR_VECTKEY_Pos) |
                (PriorityGroupTmp << SCB_AIRCR_PRIGROUP_Pos) );               /* Insert write key and priority group */
 80027d8:	68fb      	ldr	r3, [r7, #12]
 80027da:	021a      	lsls	r2, r3, #8
                ((uint32_t)0x5FAUL << SCB_AIRCR_VECTKEY_Pos) |
 80027dc:	68bb      	ldr	r3, [r7, #8]
 80027de:	4313      	orrs	r3, r2
  reg_value  =  (reg_value                                   |
 80027e0:	f043 63bf 	orr.w	r3, r3, #100139008	; 0x5f80000
 80027e4:	f443 3300 	orr.w	r3, r3, #131072	; 0x20000
 80027e8:	60bb      	str	r3, [r7, #8]
  SCB->AIRCR =  reg_value;
 80027ea:	4a04      	ldr	r2, [pc, #16]	; (80027fc <__NVIC_SetPriorityGrouping+0x44>)
 80027ec:	68bb      	ldr	r3, [r7, #8]
 80027ee:	60d3      	str	r3, [r2, #12]
}
 80027f0:	bf00      	nop
 80027f2:	3714      	adds	r7, #20
 80027f4:	46bd      	mov	sp, r7
 80027f6:	bc80      	pop	{r7}
 80027f8:	4770      	bx	lr
 80027fa:	bf00      	nop
 80027fc:	e000ed00 	.word	0xe000ed00

08002800 <__NVIC_GetPriorityGrouping>:
  \brief   Get Priority Grouping
  \details Reads the priority grouping field from the NVIC Interrupt Controller.
  \return                Priority grouping field (SCB->AIRCR [10:8] PRIGROUP field).
 */
__STATIC_INLINE uint32_t __NVIC_GetPriorityGrouping(void)
{
 8002800:	b480      	push	{r7}
 8002802:	af00      	add	r7, sp, #0
  return ((uint32_t)((SCB->AIRCR & SCB_AIRCR_PRIGROUP_Msk) >> SCB_AIRCR_PRIGROUP_Pos));
 8002804:	4b04      	ldr	r3, [pc, #16]	; (8002818 <__NVIC_GetPriorityGrouping+0x18>)
 8002806:	68db      	ldr	r3, [r3, #12]
 8002808:	0a1b      	lsrs	r3, r3, #8
 800280a:	f003 0307 	and.w	r3, r3, #7
}
 800280e:	4618      	mov	r0, r3
 8002810:	46bd      	mov	sp, r7
 8002812:	bc80      	pop	{r7}
 8002814:	4770      	bx	lr
 8002816:	bf00      	nop
 8002818:	e000ed00 	.word	0xe000ed00

0800281c <__NVIC_EnableIRQ>:
  \details Enables a device specific interrupt in the NVIC interrupt controller.
  \param [in]      IRQn  Device specific interrupt number.
  \note    IRQn must not be negative.
 */
__STATIC_INLINE void __NVIC_EnableIRQ(IRQn_Type IRQn)
{
 800281c:	b480      	push	{r7}
 800281e:	b083      	sub	sp, #12
 8002820:	af00      	add	r7, sp, #0
 8002822:	4603      	mov	r3, r0
 8002824:	71fb      	strb	r3, [r7, #7]
  if ((int32_t)(IRQn) >= 0)
 8002826:	f997 3007 	ldrsb.w	r3, [r7, #7]
 800282a:	2b00      	cmp	r3, #0
 800282c:	db0b      	blt.n	8002846 <__NVIC_EnableIRQ+0x2a>
  {
    NVIC->ISER[(((uint32_t)IRQn) >> 5UL)] = (uint32_t)(1UL << (((uint32_t)IRQn) & 0x1FUL));
 800282e:	79fb      	ldrb	r3, [r7, #7]
 8002830:	f003 021f 	and.w	r2, r3, #31
 8002834:	4906      	ldr	r1, [pc, #24]	; (8002850 <__NVIC_EnableIRQ+0x34>)
 8002836:	f997 3007 	ldrsb.w	r3, [r7, #7]
 800283a:	095b      	lsrs	r3, r3, #5
 800283c:	2001      	movs	r0, #1
 800283e:	fa00 f202 	lsl.w	r2, r0, r2
 8002842:	f841 2023 	str.w	r2, [r1, r3, lsl #2]
  }
}
 8002846:	bf00      	nop
 8002848:	370c      	adds	r7, #12
 800284a:	46bd      	mov	sp, r7
 800284c:	bc80      	pop	{r7}
 800284e:	4770      	bx	lr
 8002850:	e000e100 	.word	0xe000e100

08002854 <__NVIC_SetPriority>:
  \param [in]      IRQn  Interrupt number.
  \param [in]  priority  Priority to set.
  \note    The priority cannot be set for every processor exception.
 */
__STATIC_INLINE void __NVIC_SetPriority(IRQn_Type IRQn, uint32_t priority)
{
 8002854:	b480      	push	{r7}
 8002856:	b083      	sub	sp, #12
 8002858:	af00      	add	r7, sp, #0
 800285a:	4603      	mov	r3, r0
 800285c:	6039      	str	r1, [r7, #0]
 800285e:	71fb      	strb	r3, [r7, #7]
  if ((int32_t)(IRQn) >= 0)
 8002860:	f997 3007 	ldrsb.w	r3, [r7, #7]
 8002864:	2b00      	cmp	r3, #0
 8002866:	db0a      	blt.n	800287e <__NVIC_SetPriority+0x2a>
  {
    NVIC->IP[((uint32_t)IRQn)]               = (uint8_t)((priority << (8U - __NVIC_PRIO_BITS)) & (uint32_t)0xFFUL);
 8002868:	683b      	ldr	r3, [r7, #0]
 800286a:	b2da      	uxtb	r2, r3
 800286c:	490c      	ldr	r1, [pc, #48]	; (80028a0 <__NVIC_SetPriority+0x4c>)
 800286e:	f997 3007 	ldrsb.w	r3, [r7, #7]
 8002872:	0112      	lsls	r2, r2, #4
 8002874:	b2d2      	uxtb	r2, r2
 8002876:	440b      	add	r3, r1
 8002878:	f883 2300 	strb.w	r2, [r3, #768]	; 0x300
  }
  else
  {
    SCB->SHP[(((uint32_t)IRQn) & 0xFUL)-4UL] = (uint8_t)((priority << (8U - __NVIC_PRIO_BITS)) & (uint32_t)0xFFUL);
  }
}
 800287c:	e00a      	b.n	8002894 <__NVIC_SetPriority+0x40>
    SCB->SHP[(((uint32_t)IRQn) & 0xFUL)-4UL] = (uint8_t)((priority << (8U - __NVIC_PRIO_BITS)) & (uint32_t)0xFFUL);
 800287e:	683b      	ldr	r3, [r7, #0]
 8002880:	b2da      	uxtb	r2, r3
 8002882:	4908      	ldr	r1, [pc, #32]	; (80028a4 <__NVIC_SetPriority+0x50>)
 8002884:	79fb      	ldrb	r3, [r7, #7]
 8002886:	f003 030f 	and.w	r3, r3, #15
 800288a:	3b04      	subs	r3, #4
 800288c:	0112      	lsls	r2, r2, #4
 800288e:	b2d2      	uxtb	r2, r2
 8002890:	440b      	add	r3, r1
 8002892:	761a      	strb	r2, [r3, #24]
}
 8002894:	bf00      	nop
 8002896:	370c      	adds	r7, #12
 8002898:	46bd      	mov	sp, r7
 800289a:	bc80      	pop	{r7}
 800289c:	4770      	bx	lr
 800289e:	bf00      	nop
 80028a0:	e000e100 	.word	0xe000e100
 80028a4:	e000ed00 	.word	0xe000ed00

080028a8 <NVIC_EncodePriority>:
  \param [in]   PreemptPriority  Preemptive priority value (starting from 0).
  \param [in]       SubPriority  Subpriority value (starting from 0).
  \return                        Encoded priority. Value can be used in the function \ref NVIC_SetPriority().
 */
__STATIC_INLINE uint32_t NVIC_EncodePriority (uint32_t PriorityGroup, uint32_t PreemptPriority, uint32_t SubPriority)
{
 80028a8:	b480      	push	{r7}
 80028aa:	b089      	sub	sp, #36	; 0x24
 80028ac:	af00      	add	r7, sp, #0
 80028ae:	60f8      	str	r0, [r7, #12]
 80028b0:	60b9      	str	r1, [r7, #8]
 80028b2:	607a      	str	r2, [r7, #4]
  uint32_t PriorityGroupTmp = (PriorityGroup & (uint32_t)0x07UL);   /* only values 0..7 are used          */
 80028b4:	68fb      	ldr	r3, [r7, #12]
 80028b6:	f003 0307 	and.w	r3, r3, #7
 80028ba:	61fb      	str	r3, [r7, #28]
  uint32_t PreemptPriorityBits;
  uint32_t SubPriorityBits;

  PreemptPriorityBits = ((7UL - PriorityGroupTmp) > (uint32_t)(__NVIC_PRIO_BITS)) ? (uint32_t)(__NVIC_PRIO_BITS) : (uint32_t)(7UL - PriorityGroupTmp);
 80028bc:	69fb      	ldr	r3, [r7, #28]
 80028be:	f1c3 0307 	rsb	r3, r3, #7
 80028c2:	2b04      	cmp	r3, #4
 80028c4:	bf28      	it	cs
 80028c6:	2304      	movcs	r3, #4
 80028c8:	61bb      	str	r3, [r7, #24]
  SubPriorityBits     = ((PriorityGroupTmp + (uint32_t)(__NVIC_PRIO_BITS)) < (uint32_t)7UL) ? (uint32_t)0UL : (uint32_t)((PriorityGroupTmp - 7UL) + (uint32_t)(__NVIC_PRIO_BITS));
 80028ca:	69fb      	ldr	r3, [r7, #28]
 80028cc:	3304      	adds	r3, #4
 80028ce:	2b06      	cmp	r3, #6
 80028d0:	d902      	bls.n	80028d8 <NVIC_EncodePriority+0x30>
 80028d2:	69fb      	ldr	r3, [r7, #28]
 80028d4:	3b03      	subs	r3, #3
 80028d6:	e000      	b.n	80028da <NVIC_EncodePriority+0x32>
 80028d8:	2300      	movs	r3, #0
 80028da:	617b      	str	r3, [r7, #20]

  return (
           ((PreemptPriority & (uint32_t)((1UL << (PreemptPriorityBits)) - 1UL)) << SubPriorityBits) |
 80028dc:	f04f 32ff 	mov.w	r2, #4294967295
 80028e0:	69bb      	ldr	r3, [r7, #24]
 80028e2:	fa02 f303 	lsl.w	r3, r2, r3
 80028e6:	43da      	mvns	r2, r3
 80028e8:	68bb      	ldr	r3, [r7, #8]
 80028ea:	401a      	ands	r2, r3
 80028ec:	697b      	ldr	r3, [r7, #20]
 80028ee:	409a      	lsls	r2, r3
           ((SubPriority     & (uint32_t)((1UL << (SubPriorityBits    )) - 1UL)))
 80028f0:	f04f 31ff 	mov.w	r1, #4294967295
 80028f4:	697b      	ldr	r3, [r7, #20]
 80028f6:	fa01 f303 	lsl.w	r3, r1, r3
 80028fa:	43d9      	mvns	r1, r3
 80028fc:	687b      	ldr	r3, [r7, #4]
 80028fe:	400b      	ands	r3, r1
           ((PreemptPriority & (uint32_t)((1UL << (PreemptPriorityBits)) - 1UL)) << SubPriorityBits) |
 8002900:	4313      	orrs	r3, r2
         );
}
 8002902:	4618      	mov	r0, r3
 8002904:	3724      	adds	r7, #36	; 0x24
 8002906:	46bd      	mov	sp, r7
 8002908:	bc80      	pop	{r7}
 800290a:	4770      	bx	lr

0800290c <SysTick_Config>:
  \note    When the variable <b>__Vendor_SysTickConfig</b> is set to 1, then the
           function <b>SysTick_Config</b> is not included. In this case, the file <b><i>device</i>.h</b>
           must contain a vendor-specific implementation of this function.
 */
__STATIC_INLINE uint32_t SysTick_Config(uint32_t ticks)
{
 800290c:	b580      	push	{r7, lr}
 800290e:	b082      	sub	sp, #8
 8002910:	af00      	add	r7, sp, #0
 8002912:	6078      	str	r0, [r7, #4]
  if ((ticks - 1UL) > SysTick_LOAD_RELOAD_Msk)
 8002914:	687b      	ldr	r3, [r7, #4]
 8002916:	3b01      	subs	r3, #1
 8002918:	f1b3 7f80 	cmp.w	r3, #16777216	; 0x1000000
 800291c:	d301      	bcc.n	8002922 <SysTick_Config+0x16>
  {
    return (1UL);                                                   /* Reload value impossible */
 800291e:	2301      	movs	r3, #1
 8002920:	e00f      	b.n	8002942 <SysTick_Config+0x36>
  }

  SysTick->LOAD  = (uint32_t)(ticks - 1UL);                         /* set reload register */
 8002922:	4a0a      	ldr	r2, [pc, #40]	; (800294c <SysTick_Config+0x40>)
 8002924:	687b      	ldr	r3, [r7, #4]
 8002926:	3b01      	subs	r3, #1
 8002928:	6053      	str	r3, [r2, #4]
  NVIC_SetPriority (SysTick_IRQn, (1UL << __NVIC_PRIO_BITS) - 1UL); /* set Priority for Systick Interrupt */
 800292a:	210f      	movs	r1, #15
 800292c:	f04f 30ff 	mov.w	r0, #4294967295
 8002930:	f7ff ff90 	bl	8002854 <__NVIC_SetPriority>
  SysTick->VAL   = 0UL;                                             /* Load the SysTick Counter Value */
 8002934:	4b05      	ldr	r3, [pc, #20]	; (800294c <SysTick_Config+0x40>)
 8002936:	2200      	movs	r2, #0
 8002938:	609a      	str	r2, [r3, #8]
  SysTick->CTRL  = SysTick_CTRL_CLKSOURCE_Msk |
 800293a:	4b04      	ldr	r3, [pc, #16]	; (800294c <SysTick_Config+0x40>)
 800293c:	2207      	movs	r2, #7
 800293e:	601a      	str	r2, [r3, #0]
                   SysTick_CTRL_TICKINT_Msk   |
                   SysTick_CTRL_ENABLE_Msk;                         /* Enable SysTick IRQ and SysTick Timer */
  return (0UL);                                                     /* Function successful */
 8002940:	2300      	movs	r3, #0
}
 8002942:	4618      	mov	r0, r3
 8002944:	3708      	adds	r7, #8
 8002946:	46bd      	mov	sp, r7
 8002948:	bd80      	pop	{r7, pc}
 800294a:	bf00      	nop
 800294c:	e000e010 	.word	0xe000e010

08002950 <HAL_NVIC_SetPriorityGrouping>:
  * @note   When the NVIC_PriorityGroup_0 is selected, IRQ preemption is no more possible. 
  *         The pending IRQ priority will be managed only by the subpriority. 
